:020000040000FA
:06000000E6EF01F0120022
:020006000000F8
:0600080007EF00F01200FA
:02000E00DACF47
:10001000E4FFE2CFDAFFE9CFE4FFEACFE4FFE65204
:100020009EAA0ED00001B551B52B0F0BE96EEA6AFE
:10003000E9BEEA68A40EE926000EEA22AECFEFFF81
:100040009EA814D00001A351A2190F0B02E19D98A4
:100050000DD0A251A22B0F0BE96EEA6AE9BEEA6845
:10006000920EE926000EEA22EF50AD6EE552E5CF82
:10007000EAFFE5CFE9FFE5CFDAFF1100D9CFE6FFD0
:10008000E1CFD9FF040EE126020EAF6E948C948E60
:10009000AB8EAC98AC8AAB88D08E9F8A9F88F28E4C
:1000A0009D8A0001B56BB5C0B4F00001A36BA3C07D
:1000B000A2F0030EDB6A030EDBCFF6FFF76AF6BE93
:1000C000F768E80EF626030EF7220800F5501FE049
:1000D000030EDBCFF6FFF76AF6BEF768E80EF626EA
:1000E000030EF7220800F550E66E0001A351A32B82
:1000F0000F0BE96EEA6AE9BEEA68920EE926000E85
:10010000EA22E552E750EF6E030EDB2AD4D79D8832
:10011000020EDB6A0001B5510001B4190F0B01E1B9
:10012000B0D00001A2510001A35D0F0B040F026EBD
:10013000100EE76E0218E8AE02D0E73402D0E750A6
:10014000025C01E39ED00001B451B42B0F0BE96EA9
:10015000EA6AE9BEEA68A40EE926000EEA22EFCFB9
:10016000DFFFDF380F0BE76E010EE7CFDBFF010E7D
:10017000DBCF03F00A0EE76E0318E8AE02D0E734D7
:1001800002D0E750035C02E2300E01D0570E026E3F
:10019000010EDBCFE7FF0250E726010EE7CFDBFFC2
:1001A0000001A351A32B0F0BE96EEA6AE9BEEA68CE
:1001B000920EE926000EEA22010EDBCFEFFF0F0EB2
:1001C000DF14E76E010EE7CFDBFF010EDBCF03F09C
:1001D0000A0EE76E0318E8AE02D0E73402D0E7500B
:1001E000035C02E2300E01D0570E026E010EDBCF2F
:1001F000E7FF0250E726010EE7CFDBFF0001A35126
:10020000A32B0F0BE96EEA6AE9BEEA68920EE926B3
:10021000000EEA22010EDBCFEFFF020EDB2A020EF8
:10022000DB500A081FE10001A351A32B0F0BE96E5D
:10023000EA6AE9BEEA68920EE926000EEA220A0E90
:10024000EF6E0001A351A32B0F0BE96EEA6AE9BE22
:10025000EA68920EE926000EEA220D0EEF6E020EFB
:10026000DB6A0ED00001A351A32B0F0BE96EEA6AE3
:10027000E9BEEA68920EE926000EEA22200EEF6E31
:100280009D88D38E030046D7040EE15C02E2E16A4A
:0C029000E552E16EE552E7CFD9FF120005
:04029C00060EF66EE6
:1002A000000EF76E000EF86E00010900F550BB6FEE
:1002B0000900F550BC6F03E1BB6701D03DD00900D8
:1002C000F550B66F0900F550B76F0900F550B86FDB
:1002D00009000900F550E96E0900F550EA6E0900C1
:1002E00009000900F550B96F0900F550BA6F09000F
:1002F0000900F6CFBDF0F7CFBEF0F8CFBFF0B6C023
:10030000F6FFB7C0F7FFB8C0F8FF0001B95302E12C
:10031000BA5307E00900F550EE6EB907F8E2BA07E4
:10032000F9D7BDC0F6FFBEC0F7FFBFC0F8FF0001A0
:0A033000BB07000EBC5BBFD7120034
:06033A00D9CFE6FFE1CF80
:10034000D9FF020EE126DF6ADFCF02F00D0EE76E65
:100350000218E8AE02D0E73402D0E750025C17E2A0
:10036000DFCF02F0036A02BE0368FD0EDB500224F9
:10037000E96EFE0EDB500320EA6E010EDBCFE7FFD5
:10038000EF50E71A010EE7CFDBFFDF2ADDD7010EC2
:10039000DB50026E020EE15C03E200D0E16AE5523E
:0C03A000E16E0250E552E7CFD9FF1200D9
:0403AC00000EF36EDE
:1003B00000EE00F0060E01D81200EA6002D0EE6AEC
:0C03C000FCD7F350E9601200EE6AFCD795
:0403CC0015EE00F03A
:1003D00025EE00F0F86A019C4EEC01F0F9EC01F01A
:0803E0003EEC00F0FBD7120017
:0803E80048656C6C6F210A0DE1
:0103F000000C
:0203F2001200F7
:020000040030CA
:0100010002FC
:010003001EDE
:00000001FF
