:020000040000FA
:0600000039EF01F01200CF
:020006000000F8
:0600080007EF00F01200FA
:02000E00DACF47
:10001000E4FFE2CFDAFFE9CFE4FFEACFE4FFE65204
:100020009EAA0ED00001A351A32B0F0BE96EEA6A22
:10003000E9BEEA68920EE926000EEA22AECFEFFF93
:100040009EA814D00001915190190F0B02E19D98C8
:100050000DD09051902B0F0BE96EEA6AE9BEEA6869
:10006000800EE926000EEA22EF50AD6EE552E5CF94
:10007000EAFFE5CFE9FFE5CFDAFF1100D9CFE6FFD0
:10008000E1CFD9FF030EE1262A0EAF6E948C948E39
:10009000AB8EAC98AC8AAB88D08E9F8A9F88F28E4C
:1000A0009D8A0001A36BA3C0A2F00001916B91C0D7
:1000B00090F09D88020EDB6A0001A3290001A219BD
:1000C0000F0B02E19D9A9D8AD38E0300F5D7030E94
:1000D000E15C02E2E16AE552E16EE552E7CFD9FF69
:0200E00012000C
:0E00E200D9CFE6FFE1CFD9FF020EE126DF6A9B
:1000F000DFCF00F00D0EE76E0018E8AE02D0E73457
:1001000002D0E750005C17E2DFCF00F0016A00BECA
:100110000168FD0EDB500024E96EFE0EDB5001206D
:10012000EA6E010EDBCFE7FFEF50E71A010EE7CFD3
:10013000DBFFDF2ADDD7010EDB50006E020EE15C33
:1001400003E200D0E16AE552E16E0050E552E7CFEC
:10015000D9FF1200D9CFE6FFE1CFD9FFF00EDB5077
:10016000550802E0000E01D0010E026EF00EDB50C9
:10017000620802E0000E01D0010E016EF00EDB50AD
:10018000490802E0000E01D0010E006EF00EDB50B7
:10019000470802E0000E01D0010E0010011002100D
:1001A00003E0010E03D002D0000E00D0E552E7CFED
:0401B000D9FF120061
:0C01B400060EF66E000EF76E000EF86EE0
:1001C00000010900F550C86F0900F550C96F03E13F
:1001D000C86701D03DD00900F550C36F0900F55044
:1001E000C46F0900F550C56F09000900F550E96EAC
:1001F0000900F550EA6E090009000900F550C66FC4
:100200000900F550C76F09000900F6CFCAF0F7CF13
:10021000CBF0F8CFCCF0C3C0F6FFC4C0F7FFC5C029
:10022000F8FF0001C65302E1C75307E00900F5508B
:10023000EE6EC607F8E2C707F9D7CAC0F6FFCBC013
:10024000F7FFCCC0F8FF0001C807000EC95BBFD79D
:0202500012009A
:0E025200000EF36E00EE00F0060E01D8120052
:10026000EA6002D0EE6AFCD7F350E9601200EE6A51
:02027000FCD7B9
:0E02720015EE00F025EE00F0F86A049CDAECC0
:0E02800000F047EC01F03EEC00F0FBD712005E
:02028E0012005C
:020000040030CA
:0100010002FC
:010003001EDE
:00000001FF
