:020000040000FA
:060000004AEF0FF01200B0
:020006000000F8
:06000800B5EF03F0120049
:02000E00D9CF48
:10001000E6FFE1CFD9FF020EE126FD0EDBCFE9FFBF
:10002000FE0EDBCFEAFF010EEFCFDBFFDF6EDFCF8F
:1000300000F00D0EE76E0018E8AE02D0E73402D0F3
:10004000E750005C17E2DFCF00F0016A00BE0168F4
:10005000FD0EDB500024E96EFE0EDB500120EA6E3F
:10006000010EDBCFE7FFEF50E71A010EE7CFDBFF12
:10007000DF2ADDD7010EDB50006E020EE15C03E2E9
:1000800000D0E16AE552E16E0050E552E7CFD9FFBA
:100090001200D9CFE6FFE1CFD9FF120EE126160EEE
:1000A000DF6EDE52550EDD6EF20EDB50E76E020E95
:1000B000E7CFDBFFF30EDB50E76E030EE7CFDBFF8E
:1000C000F40EDB50E76E040EE7CFDBFFF50EDBCF5F
:1000D000E6FFF60EDBCFE6FF4CEC0EF0E552E55204
:1000E000100EF3CFDBFF110EF4CFDBFF100EDBCFD2
:1000F000E9FF110EDBCFEAFF050EEFCFDBFF010EAC
:10010000E76E100EDBCFE9FF110EDBCFEAFFE75001
:10011000E926000EEA22060EEFCFDBFFF50EDBCF5D
:10012000E6FFF60EDBCFE6FF4CEC0EF0E552E552B3
:10013000100EF3CFDBFF110EF4CFDBFF100EDBCF81
:10014000E9FF110EDBCFEAFF070EEFCFDBFF010E59
:10015000E76E100EDBCFE9FF110EDBCFEAFFE750B1
:10016000E926000EEA22080EEFCFDBFFF70EDBCF09
:10017000E6FFF80EDBCFE6FF4CEC0EF0E552E55261
:10018000100EF3CFDBFF110EF4CFDBFF100EDBCF31
:10019000E9FF110EDBCFEAFF090EEFCFDBFF010E07
:1001A000E76E100EDBCFE9FF110EDBCFEAFFE75061
:1001B000E926000EEA220A0EEFCFDBFFF90EDBCFB5
:1001C000E6FFFA0EDBCFE6FF4CEC0EF0E552E5520F
:1001D000100EF3CFDBFF110EF4CFDBFF100EDBCFE1
:1001E000E9FF110EDBCFEAFF0B0EEFCFDBFF010EB5
:1001F000E76E100EDBCFE9FF110EDBCFEAFFE75011
:10020000E926000EEA220C0EEFCFDBFFFB0EDBCF60
:10021000E6FFFC0EDBCFE6FF4CEC0EF0E552E552BC
:10022000100EF3CFDBFF110EF4CFDBFF100EDBCF90
:10023000E9FF110EDBCFEAFF0D0EEFCFDBFF010E62
:10024000E76E100EDBCFE9FF110EDBCFEAFFE750C0
:10025000E926000EEA220E0EEFCFDBFFD950020F87
:10026000E66E000EDA20E66ED2DEE552E552E76E6B
:100270000F0EE7CFDBFFD9CFE9FFDACFEAFFEECFF2
:1002800000F0EECF01F0EECF02F0EECF03F0EECFB4
:1002900004F0EECF05F0EECF06F0EECF07F0EECF94
:1002A00008F0EECF09F0EECF0AF0EECF0BF0EECF74
:1002B0000CF0EECF0DF0EECF0EF0EFCF0FF0D9CF68
:1002C000E9FFDACFEAFFED50ED500FC0EDFF0EC0B1
:1002D000EDFF0DC0EDFF0CC0EDFF0BC0EDFF0AC040
:1002E000EDFF09C0EDFF08C0EDFF07C0EDFF06C040
:1002F000EDFF05C0EDFF04C0EDFF03C0EDFF02C040
:10030000EDFF01C0EDFF00C0EFFF120EE15C03E264
:1003100000D0E16AE552E16EE552E7CFD9FF120065
:10032000D9CFE6FFE1CFD9FF0D0EE126F10EDB506C
:10033000DF6EF20EDB50E76E010EE7CFDBFFF30E50
:10034000DB50E76E020EE7CFDBFFF50EDBCFE6FFFB
:10035000F40EDBCFE6FF9EEC0EF0E552E552030E05
:10036000F3CFDBFF040EF4CFDBFFF70EDBCFE6FFAE
:10037000F60EDBCFE6FF9EEC0EF0E552E552050EE1
:10038000F3CFDBFF060EF4CFDBFFF90EDBCFE6FF8A
:10039000F80EDBCFE6FF9EEC0EF0E552E552070EBD
:1003A000F3CFDBFF080EF4CFDBFFFB0EDBCFE6FF66
:1003B000FA0EDBCFE6FF9EEC0EF0E552E552090E99
:1003C000F3CFDBFF0A0EF4CFDBFFFD0EDBCFE6FF42
:1003D000FC0EDBCFE6FF9EEC0EF0E552E5520B0E75
:1003E000F3CFDBFF0C0EF4CFDBFFD9CFE9FFDACF81
:1003F000EAFFEECF00F0EECF01F0EECF02F0EECF4D
:1004000003F0EECF04F0EECF05F0EECF06F0EECF26
:1004100007F0EECF08F0EECF09F0EECF0AF0EECF06
:100420000BF0EFCF0CF0D9CFE9FFDACFEAFFED50B8
:10043000ED500CC0EDFF0BC0EDFF0AC0EDFF09C091
:10044000EDFF08C0EDFF07C0EDFF06C0EDFF05C0E2
:10045000EDFF04C0EDFF03C0EDFF02C0EDFF01C0E2
:10046000EDFF00C0EFFF0D0EE15C03E200D0E16A9A
:10047000E552E16EE552E7CFD9FF1200D9CFE6FF92
:10048000E1CFD9FF120EE126B0EC0DF0DF6EB0EC3B
:100490000DF0E76E010EE7CFDBFF100EDB6ADBCF5E
:1004A00000F00D0EE76E0018E8AE02D0E73402D07F
:1004B000E750005C1AE2B0EC0DF0E66ED950020F86
:1004C000006EDACF01F0100EDBCF02F0036A02BE3D
:1004D000036800500224E96E01500320EA6EE552E1
:1004E000E750EF6E100EDB2ADAD7B0EC0DF0E76EB6
:1004F0000F0EE7CFDBFFD9CFE9FFDACFEAFFEECF70
:1005000000F0EECF01F0EECF02F0EECF03F0EECF31
:1005100004F0EECF05F0EECF06F0EECF07F0EECF11
:1005200008F0EECF09F0EECF0AF0EECF0BF0EECFF1
:100530000CF0EECF0DF0EECF0EF0EFCF0FF0D9CFE5
:10054000E9FFDACFEAFFED50ED500FC0EDFF0EC02E
:10055000EDFF0DC0EDFF0CC0EDFF0BC0EDFF0AC0BD
:10056000EDFF09C0EDFF08C0EDFF07C0EDFF06C0BD
:10057000EDFF05C0EDFF04C0EDFF03C0EDFF02C0BD
:10058000EDFF01C0EDFF00C0EFFF120EE15C03E2E2
:1005900000D0E16AE552E16EE552E7CFD9FF1200E3
:1005A000D9CFE6FFE1CFD9FF130EE126160EF36E89
:1005B000030EF3CFDBFFFE0EDB50E76E040EE7CF3A
:1005C000DBFFFC0EDBCFE6FFFD0EDBCFE6FF4CECE6
:1005D0000EF0E552E552F3CFDEFFF4CFDDFFDECFC4
:1005E000E9FFDDCFEAFF050EEFCFDBFFDECFE9FF4E
:1005F000DDCFEAFF010EE926000EEA22060EEFCF5C
:10060000DBFFFA0EDBCFE6FFFB0EDBCFE6FF4CECA9
:100610000EF0E552E552F3CFDEFFF4CFDDFFDECF83
:10062000E9FFDDCFEAFF070EEFCFDBFFDECFE9FF0B
:10063000DDCFEAFF010EE926000EEA22080EEFCF19
:10064000DBFF040EF36E020EF3CFDBFFDBCF00F017
:100650000D0EE76E0018E8AE02D0E73402D0E75086
:10066000005C15E2D950050F006EDACF01F0020EE2
:10067000DBCF02F0036A02BE036800500224E96E79
:1006800001500320EA6EEF6A020EDB2ADFD7D95051
:10069000050FE66E000EDA20E66EB9DCE552E55293
:1006A000E76E120EE7CFDBFF030EDBCF00F0040E88
:1006B000DBCF01F0050EDBCF02F0060EDBCF03F03F
:1006C000070EDBCF04F0080EDBCF05F0090EDBCF01
:1006D00006F00A0EDBCF07F00B0EDBCF08F00C0E96
:1006E000DBCF09F00D0EDBCF0AF00E0EDBCF0BF0E7
:1006F0000F0EDBCF0CF0100EDBCF0DF0110EDBCFA9
:100700000EF0120EDBCF0FF0D9CFE9FFDACFEAFF00
:10071000ED50ED500FC0EDFF0EC0EDFF0DC0EDFF31
:100720000CC0EDFF0BC0EDFF0AC0EDFF09C0EDFFEF
:1007300008C0EDFF07C0EDFF06C0EDFF05C0EDFFEF
:1007400004C0EDFF03C0EDFF02C0EDFF01C0EDFFEF
:1007500000C0EFFF130EE15C03E200D0E16AE55256
:0A076000E16EE552E7CFD9FF120069
:06076A00DACFE4FFE2CF4C
:10077000DAFFE9CFE4FFEACFE4FFF6CFE4FFF7CFFB
:10078000E4FFF5CFE4FFF3CFE4FFF4CFE4FFFACFCB
:10079000E4FF00EE16F0140EE80403E3EECFE4FFEE
:1007A000FBD700EE00F0160EE80403E3EECFE4FF03
:1007B000FBD7E6529EAA20D0ABA20AD0AB98AB885A
:1007C000AE50E66E33EC0EF0E552ABEC0DF014D00B
:1007D000AE50E66E33EC0EF0E552CCEC0DF0F3CFFC
:1007E0002AF0F4CF2BF0100E2A1801E12B5004E16F
:1007F000010E0001A56FA66B9EA034D0F3EC0AF0A9
:1008000097EC0CF0F3CF2EF0F4CF2FF02EC0E6FFD4
:100810002FC0E6FFEDEC0AF0F3CF30F0F4CF31F06B
:1008200030C0E6FF31C0E6FF7EEC08F0E552E5524D
:10083000E552E5521AC02AF01BC02BF01CC02CF068
:100840001DC02DF02AC0E6FF2BC0E6FF2CC0E6FF3E
:100850002DC0E6FFE3EC08F0E552E552E552E55223
:10086000D38E0300A1A248D000019D2B000E9E2331
:100870004EEC0CF0F3CF2AF0F4CF2BF02A502B10D3
:1008800004E09DC09FF09EC0A0F097C0E6FF98C016
:10089000E6FF62EC0CF0E552E552F3CF2AF0F4CF1C
:1008A0002BF02A502B1004E09DC0A1F09EC0A2F0B6
:1008B0009BC0E6FF9CC0E6FF9FC0E6FFA0C0E6FF2E
:1008C0009DC0E6FF9EC0E6FFEAEC0BF02A6E060E26
:1008D000E15E2A509BC0E6FF9CC0E6FF9FC0E6FF9A
:1008E000A0C0E6FF9DC0E6FF9EC0E6FF20EC0CF036
:1008F0002A6E060EE15E2A509EA80ED077EC0DF00F
:10090000F3CF2AF0F4CF2BF02A502B1002E09D9861
:1009100003D00FEC0DF0AD6EE55200EE15F0160EA3
:10092000E80403E3E5CFEDFFFBD700EE29F0140E5A
:10093000E80403E3E5CFEDFFFBD7E5CFFAFFE5CF12
:10094000F4FFE5CFF3FFE5CFF5FFE5CFF7FFE5CF08
:10095000F6FFE5CFEAFFE5CFE9FFE5CFDAFF1100CB
:10096000DAEC06F0E8EC0BF09DEC0AF0ABEC0DF0E5
:100970000AEC0DF00001A56BA66B0001010EA51994
:1009800001E1A65101E063D1CCEC0DF0F3CF00F012
:10099000F4CF01F0100E001801E1015001E056D132
:1009A000100EE1264CEC07F0EECF80F0EECF81F098
:1009B000EECF82F0EECF83F0EECF84F0EECF85F075
:1009C000EECF86F0EECF87F0EECF88F0EECF89F055
:1009D000EECF8AF0EECF8BF0EECF8CF0EECF8DF035
:1009E000EECF8EF0EECF8FF0006E100EE15E005075
:1009F0000001805101E127D1550E0001815D44E1E4
:100A000080C0E6FF81C0E6FF82C0E6FF83C0E6FF4C
:100A100084C0E6FF85C0E6FF86C0E6FF87C0E6FF2C
:100A200088C0E6FF89C0E6FF8AC0E6FF8BC0E6FF0C
:100A30008CC0E6FF8DC0E6FF8EC0E6FF8FC0E6FFEC
:100A400090EC01F0EECF90F0EECF91F0EECF92F07F
:100A5000EECF93F0EECF94F0EECF95F0EECF96F090
:100A6000EECF97F0EECF98F0EECF99F0EECF9AF070
:100A7000EECF9BF0EECF9CF0006E100EE15E0050CA
:100A80000001A56BA66BDED0490E0001815D6CE113
:100A9000030EE12690C0E6FF91C0E6FF92C0E6FF9C
:100AA00093C0E6FF94C0E6FF95C0E6FF96C0E6FF60
:100AB00097C0E6FF98C0E6FF99C0E6FF9AC0E6FF40
:100AC0009BC0E6FF9CC0E6FF49EC00F0EECF00F0D3
:100AD000EECF01F0EECF02F0EECF03F0EECF04F058
:100AE000EECF05F0EECF06F0EECF07F0EECF08F038
:100AF000EECF09F0EECF0AF0EECF0BF0EECF0CF018
:100B0000EECF0DF0EECF0EF0EECF0FF0106E100E18
:100B1000E15E105000C0E6FF01C0E6FF02C0E6FF44
:100B200003C0E6FF04C0E6FF05C0E6FF06C0E6FF1F
:100B300007C0E6FF08C0E6FF09C0E6FF0AC0E6FFFF
:100B40000BC0E6FF0CC0E6FF0DC0E6FF0EC0E6FFDF
:100B50000FC0E6FF0AEC07F0116E100EE15E1150B7
:100B60000001A56BA66B6ED0470E0001815D6AE1A6
:100B70000B0EE12697EC0CF0F3CF10F0F4CF11F050
:100B800010C0E6FF11C0E6FFEDEC0AF0F3CF12F063
:100B9000F4CF13F012C0E6FF13C0E6FF470EE66E77
:100BA000D0EC02F0EECF00F0EECF01F0EECF02F08D
:100BB000EECF03F0EECF04F0EECF05F0EECF06F06F
:100BC000EECF07F0EECF08F0EECF09F0EECF0AF04F
:100BD000EECF0BF0EECF0CF0EECF0DF0EECF0EF02F
:100BE000EECF0FF0146E100EE15E145000C0E6FF61
:100BF00001C0E6FF02C0E6FF03C0E6FF04C0E6FF57
:100C000005C0E6FF06C0E6FF07C0E6FF08C0E6FF36
:100C100009C0E6FF0AC0E6FF0BC0E6FF0CC0E6FF16
:100C20000DC0E6FF0EC0E6FF0FC0E6FF0AEC07F0BE
:100C3000156E100EE15E155029EC0FF0020E00014A
:100C4000A56FA66B03D00001A56BA66BAFD000010A
:100C5000020EA51901E1A65101E0A8D0CCEC0DF0DF
:100C6000F3CF00F0F4CF01F0100E001801E10150B5
:100C700001E09CD0100EE1264CEC07F0EECF80F0A6
:100C8000EECF81F0EECF82F0EECF83F0EECF84F0A6
:100C9000EECF85F0EECF86F0EECF87F0EECF88F086
:100CA000EECF89F0EECF8AF0EECF8BF0EECF8CF066
:100CB000EECF8DF0EECF8EF0EECF8FF0006E100EF7
:100CC000E15E0050000180516EE0620E0001815D26
:100CD0006AE10B0EE12697EC0CF0F3CF10F0F4CFA5
:100CE00011F010C0E6FF11C0E6FFEDEC0AF0F3CF03
:100CF00012F0F4CF13F012C0E6FF13C0E6FF620E4D
:100D0000E66ED0EC02F0EECF00F0EECF01F0EECFC9
:100D100002F0EECF03F0EECF04F0EECF05F0EECF11
:100D200006F0EECF07F0EECF08F0EECF09F0EECFF1
:100D30000AF0EECF0BF0EECF0CF0EECF0DF0EECFD1
:100D40000EF0EECF0FF0146E100EE15E145000C0E6
:100D5000E6FF01C0E6FF02C0E6FF03C0E6FF04C0F5
:100D6000E6FF05C0E6FF06C0E6FF07C0E6FF08C0D5
:100D7000E6FF09C0E6FF0AC0E6FF0BC0E6FF0CC0B5
:100D8000E6FF0DC0E6FF0EC0E6FF0FC0E6FF0AEC6F
:100D900007F0156E100EE15E15500001A56BA66BF5
:100DA0009D909E90CD900001A56BA66BD38E030005
:040DB000E4D5120074
:0C0DB400100EAF6E948C948EAC98AB8E39
:100DC000AC8AAC84B886AB88D08E9F8A9F88F28E1E
:100DD0009D8A1200D9CFE6FFE1CFD9FFFE0EDB508E
:100DE00047080CE0FE0EDB50490808E0FE0EDB5021
:100DF000620804E0FE0EDB50550805E1010EF36EBB
:100E0000F46A04D003D0F36AF46A00D0E552E7CF65
:100E1000D9FF1200D9CFE6FFE1CFD9FFE652EF0E9E
:100E2000DBCFE6FF92EC0DF0E552F00EDBCFE6FFF4
:100E300092EC0DF0E552DF6ADFCF00F00D0EE76EA9
:100E40000018E8AE02D0E73402D0E750005C18E2A8
:100E5000D950F10F006EFF0EDA20016EDFCF02F0E5
:100E6000036A02BE036800500224E96E01500320A9
:100E7000EA6EEF50E66E92EC0DF0E552DF2ADCD719
:100E8000FE0EDBCFE6FF92EC0DF0E5529D88E552B9
:100E9000E552E7CFD9FF1200D9CFE6FFE1CFD9FF66
:100EA000110EE126100EE1263EEC02F0EECF00F02E
:100EB000EECF01F0EECF02F0EECF03F0EECF04F074
:100EC000EECF05F0EECF06F0EECF07F0EECF08F054
:100ED000EECF09F0EECF0AF0EECF0BF0EECF0CF034
:100EE000EECF0DF0EECF0EF0EECF0FF0106E100E35
:100EF000E15E105000C0DFFF010E01C0DBFF020EFB
:100F000002C0DBFF030E03C0DBFF040E04C0DBFFE7
:100F1000050E05C0DBFF060E06C0DBFF070E07C08F
:100F2000DBFF080E08C0DBFF090E09C0DBFF0A0E5D
:100F30000AC0DBFF0B0E0BC0DBFF0C0E0CC0DBFF8F
:100F40000D0E0DC0DBFF0E0E0EC0DBFF0F0E0FC02F
:100F5000DBFFD950020FE66E000EDA20E66E07ECDA
:100F600000F0E552E552E76E100EE7CFDBFF010E11
:100F7000DBCFE6FF2FDFE552F3CF00F0F4CF01F037
:100F80000050011056E0160EDF5C53E1100EDB50EE
:100F9000F36E0F0EDB50F35C4CE1D9CFE9FFDACFF3
:100FA000EAFFEECF00F0EECF01F0EECF02F0EECF91
:100FB00003F0EECF04F0EECF05F0EECF06F0EECF6B
:100FC00007F0EECF08F0EECF09F0EECF0AF0EECF4B
:100FD0000BF0EECF0CF0EECF0DF0EECF0EF0EFCF2A
:100FE0000FF0D9CFE9FFDACFEAFFED50ED500FC097
:100FF000EDFF0EC0EDFF0DC0EDFF0CC0EDFF0BC00F
:10100000EDFF0AC0EDFF09C0EDFF08C0EDFF07C00E
:10101000EDFF06C0EDFF05C0EDFF04C0EDFF03C00E
:10102000EDFF02C0EDFF01C0EDFF00C0EFFF4DD0AE
:101030004CD0DF6AD9CFE9FFDACFEAFFEECF00F07C
:10104000EECF01F0EECF02F0EECF03F0EECF04F0E2
:10105000EECF05F0EECF06F0EECF07F0EECF08F0C2
:10106000EECF09F0EECF0AF0EECF0BF0EECF0CF0A2
:10107000EECF0DF0EECF0EF0EFCF0FF0D9CFE9FFAE
:10108000DACFEAFFED50ED500FC0EDFF0EC0EDFFDF
:101090000DC0EDFF0CC0EDFF0BC0EDFF0AC0EDFF72
:1010A00009C0EDFF08C0EDFF07C0EDFF06C0EDFF72
:1010B00005C0EDFF04C0EDFF03C0EDFF02C0EDFF72
:1010C00001C0EDFF00C0EFFF00D0110EE15C02E2B5
:1010D000E16AE552E16EE552E7CFD9FF1200D9CFC0
:1010E000E6FFE1CFD9FFFE0EDBCFE6FF92EC0DF07D
:1010F000E5529D88E552E7CFD9FF1200D9CFE6FF30
:10110000E1CFD9FF060EE126FD0EDBCFE6FFFE0E96
:10111000DBCFE6FF4CEC0EF0E552E552F3CFDEFFFD
:10112000F4CFDDFFDECFE9FFDDCFEAFF020EEFCF28
:10113000DBFFDECFE9FFDDCFEAFF010EE926000E7F
:10114000EA22030EEFCFDBFFFB0EDBCFE6FFFC0E48
:10115000DBCFE6FF4CEC0EF0E552E552F3CFDEFFBD
:10116000F4CFDDFFDECFE9FFDDCFEAFF040EEFCFE6
:10117000DBFFDECFE9FFDDCFEAFF010EE926000E3F
:10118000EA22050EEFCFDBFF020EDBCF00F0030EED
:10119000DBCF01F0040EDBCF02F0050EDBCF03F056
:1011A00000C01AF001C01BF002C01CF003C01DF00B
:1011B000060EE15C03E200D0E16AE552E16EE55221
:1011C000E7CFD9FF1200D9CFE6FFE1CFD9FFE65232
:1011D000DF6ADFCF00F0040EE76E0018E8AE02D041
:1011E000E73402D0E750005C18E2D950FB0F006EE4
:1011F000FF0EDA20016EDFCF02F0036A02BE036841
:1012000000500224E96E01500320EA6EEF50E66EB2
:1012100092EC0DF0E552DF2ADCD79D88E552E552CD
:06122000E7CFD9FF120028
:0A122600259E08D0259E1DAE05D0C0
:101230001C6C1D1EE86A1D22258E1DC017F01CC0E7
:1012400016F0296A286A8E0E186E196A33EF0AF0B2
:10125000256A6FEC0AF087EC0AF025B617EF0AF062
:1012600025A205D025BA17EF0AF01EEF0AF025BA1D
:101270002AEF0AF025A005D025B817EF0AF02AEFCB
:101280000AF025B81EEF0AF0196A7F0E1E24186EA8
:10129000E86A19222350185EE86A195A1A0E266E57
:1012A0001E6A286A296A166A176A20501B5E215036
:1012B0001C5A22501D5A000E1E5A09E720501B26A8
:1012C00021501C2222501D22000E1E2201D0288AED
:1012D000D8901B361C361D361E36D8902836293637
:1012E00016361736262EE1D71D501C101B10D8A419
:1012F000288A33EF0AF0256A6FEC0AF087EC0AF0CF
:1013000025B617EF0AF025A205D025B817EF0AF089
:101310001EEF0AF025AA05D025B017EF0AF01EEF40
:101320000AF025B002D025A802D02AEF0AF0196AE7
:1013300023501E24186EE86A19227E0E185EE86A91
:10134000195A286A296A166A176A22501D02F4CFB0
:1013500017F0F3CF16F021501D02F3502926F45058
:101360001622000E172222501C02F3502926F45098
:101370001622000E172220501D02F3502826F4508A
:101380002922000E1622172221501C02F350282673
:10139000F4502922000E1622172222501B02F3506D
:1013A0002826F4502922000E1622172220501C0253
:1013B000F4502826000E29221622172221501B0243
:1013C000F4502826000E29221622172233EF0AF0A5
:1013D000256A6FEC0AF025B6F2EF09F025A20ED0CF
:1013E00025B405D07F0E1D6EFF0E1C6E1FD0800E23
:1013F0001D6E1C6A1BD01D6A1C6A18D025B0FBD755
:101400008F0E1E60EDD77E0E1E64F5D78E0E1E5C0D
:1014100005E0D8901D321C321E2AF8D725A406D02C
:101420001C6C1D1EE86A1D221DAEE5D712007F0E42
:101430001E6EFF0E1D6E1C6E1B6E12007F0E25BEF3
:10144000FF0E1E6E02D07F0E1E6E800E1D6E1C6A79
:101450001B6AF3D725AE04D0800E1E6E1D6AF7D727
:101460001E6A1D6AF4D71750161029102810F8E0CC
:1014700019BEF0D717BE0CD018501910EBE0D89059
:1014800028362936163617361806D8A01906F2D788
:101490001950D4E11828D2E028AE11D07F0E2814BC
:1014A00002E129A00CD0292AE86A1622172207E3B4
:1014B000D880173216322932182A1828BFE018505F
:1014C000C9E029C01BF016C01CF017341D6E18307F
:1014D0001E6E1D321E9E25BE1E8E1DEF0AF01D368D
:1014E0001E3602E32584257E06E125801E6A1D6ADC
:1014F0001C6A1B6A12001E2803E0D8801D321200ED
:10150000D8901D3202E12582120025861200223673
:10151000233602E3258C257E06E12588236A226A8C
:10152000216A206A1200232803E0D88022321200A8
:0A153000D8902232EAE1258A120069
:06153A0095988388959A44
:10154000838A94969488949A928A1200D9CFE6FF5F
:10155000E1CFD9FF030EE126DE6ADD6A020EDB6A07
:10156000DBCF00F0100EE76E0018E8AE02D0E734D3
:1015700002D0E750005C14E282968286D9CFE9FF60
:10158000DACFEAFF010ED890EE36ED36E806FBE141
:101590008250100B01E0010EDF12020EDB2AE0D7B1
:1015A000DECF00F0DDCF01F000C0F3FF01C0F4FF9B
:1015B000030EE15C03E200D0E16AE552E16EE55220
:1015C000E7CFD9FF1200829A82968286828A82A809
:1015D000FED712008296829A12000CC1F3FF0DC151
:1015E000F4FF00D0120029EC0FF0EDDF086A096A61
:1015F000A00E0A6E400E0B6E08C0E6FF09C0E6FFA3
:101600000AC0E6FF0BC0E6FFA1DFE552E7CF0BF013
:10161000E552E7CF0AF0E552E7CF09F0E552E7CF10
:1016200008F0F3CF10F0F4CF11F010C01CF011C08F
:101630001DF013EC09F01BC00CF01CC00DF01DC018
:101640000EF01EC00FF00CC020F00DC021F00EC037
:1016500022F00FC023F008C01BF009C01CF00AC024
:101660001DF00BC01EF07BEC09F01BC004F01CC089
:1016700005F01DC006F01EC007F0206A21687F0E2D
:10168000226E470E236E04C01BF005C01CF006C07E
:101690001DF007C01EF028EC09F01BC000F01CC0B4
:1016A00001F01DC002F01EC003F0206A216A7A0E0C
:1016B000226E440E236E00C01BF001C01CF002C05D
:1016C0001DF003C01EF07BEC09F0E8EC09F01CC033
:1016D0000AF11DC00BF1086A096AA00E0A6E400EDD
:1016E0000B6E08C0E6FF09C0E6FF0AC0E6FF0BC0AC
:1016F000E6FF2CDFE552E7CF0BF0E552E7CF0AF02B
:10170000E552E7CF09F0E552E7CF08F0F3CF10F04C
:10171000F4CF11F010C01CF011C01DF013EC09F053
:101720001BC00CF01CC00DF01DC00EF01EC00FF051
:101730000CC020F00DC021F00EC022F00FC023F02D
:1017400008C01BF009C01CF00AC01DF00BC01EF041
:101750007BEC09F01BC004F01CC005F01DC006F0B6
:101760001EC007F0206A21687F0E226E470E236E8E
:1017700004C01BF005C01CF006C01DF007C01EF021
:1017800028EC09F01BC000F01CC001F01DC002F0E5
:101790001EC003F0206A216A7A0E226E440E236E68
:1017A00000C01BF001C01CF002C01DF003C01EF001
:1017B0007BEC09F0E8EC09F01CC00CF11DC00DF148
:1017C000EAEF0AF00AC1F3FF0BC1F4FF00D01200E8
:1017D00093801200D9CFE6FFE1CFD9FFF2C0F0F03D
:1017E000F3C0F1F0EEC0ECF0EFC0EDF08150010B72
:1017F0000001EE6FEF6BFD0EDBCF02F0FE0EDBCFD4
:1018000003F0FB0EDB50025C006EFC0EDB50035855
:10181000016EF90EDBCF04F0FA0EDBCF05F00050BD
:10182000045C0150055802E2000E01D0010EF26F77
:10183000F36B800B01E0F369E552E7CFD9FF1200AB
:10184000D9CFE6FFE1CFD9FFF6C0F4F0F7C0F5F04D
:10185000FD0EDBCF02F0FE0EDBCF03F0FB0EDB5004
:10186000025C006EFC0EDB500358016EF90EDBCFFC
:1018700004F0FA0EDBCF05F00050045C015005586F
:1018800002E2000E01D0010E0001F66FF76B800B33
:1018900001E0F769E552E7CFD9FF12000001F051EE
:1018A000F1110CE1010EEE1901E1EF5107E1EC51EC
:1018B000ED1104E1010EF36EF46A03D0F36AF46AE9
:1018C00000D01200D9CFE6FFE1CFD9FF0001F451DB
:1018D000F51113E1FAC000F0FBC001F0FD0EDB5082
:1018E000001803E1FE0EDB50011807E1FC51FD1169
:1018F00004E1010EF36EF46A03D0F36AF46A00D0D7
:10190000E552E7CFD9FF12000001010EF01901E105
:10191000F15105E0010EF41901E1F55104E1010E68
:10192000F36EF46A03D0F36AF46A00D01200000187
:10193000010EF01901E1F1510EE1010EF21901E180
:10194000F35105E0560EF36EF46A1CD01BD0280E3E
:10195000F36EF46A17D0010EF41901E1F5510EE1AE
:10196000010EF61901E1F75105E0560EF36EF46A27
:1019700009D008D0280EF36EF46A04D02D0EF36E51
:10198000F46A00D01200D9CFE6FFE1CFD9FFFAC048
:1019900000F0FBC001F0FD0EDB50001803E1FE0E6D
:1019A000DB50011808E10001FC51FD1104E1010EBA
:1019B000F36EF46A03D0F36AF46A00D0E552E7CF1D
:1019C000D9FF1200D9CFE6FFE1CFD9FFFD0EDBCF63
:1019D00002F0FE0EDBCF03F0FB0EDB50025C006E6C
:1019E000FC0EDB500358016EF90EDBCF04F0FA0E4B
:1019F000DBCF05F00050045C0150055804E3010EF4
:101A0000F36EF46A03D0F36AF46A00D0E552E7CFCC
:041A1000D9FF1200E8
:0C1A14000001A96BA9C0A8F01200D9CFF6
:101A2000E6FFE1CFD9FFE652A8C0E9FFEA6AE9BEC6
:101A3000EA68AA0EE926000EEA22EFCFDFFF0001D6
:101A4000A82B1F0EA815A86FDF5000D0E552E55255
:101A5000E7CFD9FF1200D9CFE6FFE1CFD9FF020EC1
:101A6000E1260001A951E76EA819E8AE02D0A83519
:101A700003D0E750D880A8550BE3A851A95D006EAC
:101A8000016A00BE016800C0DEFF01C0DDFF17D0A3
:101A9000A851E76EA919E8AE02D0E73402D0E750AA
:101AA000A95D0DE2200E026EA951A85D025C006ED8
:101AB000016A00BE016800C0DEFF01C0DDFFDECFAD
:101AC00000F0DDCF01F000C0F3FF01C0F4FF020E13
:101AD000E15C03E200D0E16AE552E16EE552E7CF56
:101AE000D9FF1200200EF36EF46A00D0120000013C
:101AF000A951A85D05E1010EF36EF46A04D003D08C
:101B0000F36AF46A00D012000001A9291F0BA85D36
:101B100005E1010EF36EF46A04D003D0F36AF46AAF
:101B200000D01200D9CFE6FFE1CFD9FFA9C0E9FF6D
:101B3000EA6AE9BEEA68AA0EE926000EEA22FE0E6B
:101B4000DBCFEFFF0001A92B1F0EA915A96FE552EE
:061B5000E7CFD9FF1200EF
:0A1B56000001CB6BCBC0CAF01200F7
:101B6000D9CFE6FFE1CFD9FFE652CAC0E9FFEA6A62
:101B7000E9BEEA68CC0EE926000EEA22EFCFDFFFCD
:101B80000001CA2B1F0ECA15CA6FDF5000D0E552E4
:101B9000E552E7CFD9FF1200D9CFE6FFE1CFD9FF59
:101BA000020EE1260001CB51E76ECA19E8AE02D061
:101BB000CA3503D0E750D880CA550BE3CA51CB5D74
:101BC000006E016A00BE016800C0DEFF01C0DDFFDB
:101BD00017D0CA51E76ECB19E8AE02D0E73402D075
:101BE000E750CB5D0DE2200E026ECB51CA5D025C68
:101BF000006E016A00BE016800C0DEFF01C0DDFFAB
:101C0000DECF00F0DDCF01F000C0F3FF01C0F4FF34
:101C1000020EE15C03E200D0E16AE552E16EE552BA
:101C2000E7CFD9FF1200200EF36EF46A00D0120045
:101C30000001CB51CA5D05E1010EF36EF46A04D0D8
:101C400003D0F36AF46A00D012000001CB291F0B05
:101C5000CA5D05E1010EF36EF46A04D003D0F36AA5
:101C6000F46A00D01200D9CFE6FFE1CFD9FFCBC094
:101C7000E9FFEA6AE9BEEA68CC0EE926000EEA222C
:101C8000FE0EDBCFEFFF0001CB2B1F0ECB15CB6F72
:081C9000E552E7CFD9FF120075
:081C9800D9CFE6FFE1CFD9FF2F
:101CA000040EE126FD0EDBCF00F0FE0EDBCF01F0CF
:101CB000000E0016FF0E0116020E00C0DBFF030E21
:101CC00001C0DBFF020EDBCF00F0030EDBCF01F023
:101CD00001C000F0016A020E00C0DBFF030E01C06C
:101CE000DBFF020EDB50DF6EFF0EE76EFD0EDBCF7B
:101CF00000F0FE0EDBCF01F0E7500016016A020E85
:101D000000C0DBFF030E01C0DBFF020EDB50E76EFD
:101D1000010EE7CFDBFFD9CF00F0DACF01F000C032
:101D2000F3FF01C0F4FF040EE15C03E200D0E16ABE
:101D3000E552E16EE552E7CFD9FF1200D9CFE6FFB9
:101D4000E1CFD9FF020EE126FE0EDBCF00F0016AE3
:101D500000BE016800C0DEFF01C0DDFFDECF00F085
:101D6000DDCF01F000C001F0006A00C0DEFF01C05D
:101D7000DDFFFD0EDBCF00F0016A00BE0168D9CFA8
:101D8000E9FFDACFEAFF0050EE120150ED12DECF8C
:101D900000F0DDCF01F000C0F3FF01C0F4FF020E40
:101DA000E15C03E200D0E16AE552E16EE552E7CF83
:041DB000D9FF120045
:0C1DB400060EF66E000EF76E000EF86EC4
:101DC00001010900F550056F0900F550066F03E1A8
:101DD000056701D03DD00900F550006F0900F550AE
:101DE000016F0900F550026F09000900F550E96E16
:101DF0000900F550EA6E090009000900F550036F6B
:101E00000900F550046F09000900F6CF07F1F7CF7C
:101E100008F1F8CF09F100C1F6FF01C1F7FF02C1D7
:101E2000F8FF0101035302E1045307E00900F550F4
:101E3000EE6E0307F8E20407F9D707C1F6FF08C101
:101E4000F7FF09C1F8FF01010507000E065BBFD7C8
:021E500012007E
:0E1E5200F10ECD6EFD0ECF6E110ECE6E9E9077
:101E60009D801200810EB16EB368050EB26EA19214
:041E7000A08212003A
:0C1E7400000EF36E00EE00F0060E01D828
:101E80001200EA6002D0EE6AFCD7F350E96012005B
:041E9000EE6AFCD723
:0C1E940015EE00F025EE00F0F86A259C29
:101EA000DAEC0EF058EC0FF0B0EC04F0FBD71200B7
:021EB00012001E
:020000040030CA
:0100010002FC
:010003001EDE
:00000001FF
