:020000040000FA
:06000000C4EF10F0120035
:020006001200E6
:06000800C2EF03F012003C
:02000E000200EE
:10001000BA2100000001000010000000A42100002F
:08002000E400000016000000DE
:08002800D9CFE6FFE1CFD9FFBB
:10003000020EE126FD0EDBCFE9FFFE0EDBCFEAFF6D
:10004000010EEFCFDBFFDF6EDFCF00F00D0EE76EAE
:100050000018E8AE02D0E73402D0E750005C17E2A7
:10006000DFCF00F0016A00BE0168FD0EDB50002406
:10007000E96EFE0EDB500120EA6E010EDBCFE7FFDA
:10008000EF50E71A010EE7CFDBFFDF2ADDD7010EC5
:10009000DB50006E020EE15C03E200D0E16AE55243
:1000A000E16E0050E552E7CFD9FF1200D9CFE6FF4D
:1000B000E1CFD9FF120EE126160EDF6EDE52550E8D
:1000C000DD6EF20EDB50E76E020EE7CFDBFFF30EC4
:1000D000DB50E76E030EE7CFDBFFF40EDB50E76E7D
:1000E000040EE7CFDBFFF50EDBCFE6FFF60EDBCF2E
:1000F000E6FFC6EC0FF0E552E552100EF3CFDBFF42
:10010000110EF4CFDBFF100EDBCFE9FF110EDBCFBA
:10011000EAFF050EEFCFDBFF010EE76E100EDBCF1F
:10012000E9FF110EDBCFEAFFE750E926000EEA22D5
:10013000060EEFCFDBFFF70EDBCFE6FFF80EDBCFCF
:10014000E6FFC6EC0FF0E552E552100EF3CFDBFFF1
:10015000110EF4CFDBFF100EDBCFE9FF110EDBCF6A
:10016000EAFF070EEFCFDBFF010EE76E100EDBCFCD
:10017000E9FF110EDBCFEAFFE750E926000EEA2285
:10018000080EEFCFDBFFF90EDBCFE6FFFA0EDBCF79
:10019000E6FFC6EC0FF0E552E552100EF3CFDBFFA1
:1001A000110EF4CFDBFF100EDBCFE9FF110EDBCF1A
:1001B000EAFF090EEFCFDBFF010EE76E100EDBCF7B
:1001C000E9FF110EDBCFEAFFE750E926000EEA2235
:1001D0000A0EEFCFDBFFFB0EDBCFE6FFFC0EDBCF23
:1001E000E6FFC6EC0FF0E552E552100EF3CFDBFF51
:1001F000110EF4CFDBFF100EDBCFE9FF110EDBCFCA
:10020000EAFF0B0EEFCFDBFF010EE76E100EDBCF28
:10021000E9FF110EDBCFEAFFE750E926000EEA22E4
:100220000C0EEFCFDBFFFD0EDBCFE6FFFE0EDBCFCC
:10023000E6FFC6EC0FF0E552E552100EF3CFDBFF00
:10024000110EF4CFDBFF100EDBCFE9FF110EDBCF79
:10025000EAFF0D0EEFCFDBFF010EE76E100EDBCFD6
:10026000E9FF110EDBCFEAFFE750E926000EEA2294
:100270000E0EEFCFDBFFD950020FE66E000EDA2034
:10028000E66ED2DEE552E552E76E0F0EE7CFDBFFFA
:10029000D9CFE9FFDACFEAFFEECF00F0EECF01F0E1
:1002A000EECF02F0EECF03F0EECF04F0EECF05F08C
:1002B000EECF06F0EECF07F0EECF08F0EECF09F06C
:1002C000EECF0AF0EECF0BF0EECF0CF0EECF0DF04C
:1002D000EECF0EF0EFCF0FF0D9CFE9FFDACFEAFF84
:1002E000ED50ED500FC0EDFF0EC0EDFF0DC0EDFF66
:1002F0000CC0EDFF0BC0EDFF0AC0EDFF09C0EDFF24
:1003000008C0EDFF07C0EDFF06C0EDFF05C0EDFF23
:1003100004C0EDFF03C0EDFF02C0EDFF01C0EDFF23
:1003200000C0EFFF120EE15C03E200D0E16AE5528B
:10033000E16EE552E7CFD9FF1200D9CFE6FFE1CF5A
:10034000D9FF0D0EE126F10EDB50DF6EF20EDB5011
:10035000E76E010EE7CFDBFFF30EDB50E76E020E18
:10036000E7CFDBFFF50EDBCFE6FFF40EDBCFE6FFDA
:1003700018EC10F0E552E552030EF3CFDBFF040E4C
:10038000F4CFDBFFF70EDBCFE6FFF60EDBCFE6FFA9
:1003900018EC10F0E552E552050EF3CFDBFF060E28
:1003A000F4CFDBFFF90EDBCFE6FFF80EDBCFE6FF85
:1003B00018EC10F0E552E552070EF3CFDBFF080E04
:1003C000F4CFDBFFFB0EDBCFE6FFFA0EDBCFE6FF61
:1003D00018EC10F0E552E552090EF3CFDBFF0A0EE0
:1003E000F4CFDBFFFD0EDBCFE6FFFC0EDBCFE6FF3D
:1003F00018EC10F0E552E5520B0EF3CFDBFF0C0EBC
:10040000F4CFDBFFD9CFE9FFDACFEAFFEECF00F080
:10041000EECF01F0EECF02F0EECF03F0EECF04F01E
:10042000EECF05F0EECF06F0EECF07F0EECF08F0FE
:10043000EECF09F0EECF0AF0EECF0BF0EFCF0CF0DD
:10044000D9CFE9FFDACFEAFFED50ED500CC0EDFF58
:100450000BC0EDFF0AC0EDFF09C0EDFF08C0EDFFC6
:1004600007C0EDFF06C0EDFF05C0EDFF04C0EDFFC6
:1004700003C0EDFF02C0EDFF01C0EDFF00C0EFFFC4
:100480000D0EE15C03E200D0E16AE552E16EE55257
:10049000E7CFD9FF1200D9CFE6FFE1CFD9FF120E87
:1004A000E12635EC0FF0DF6E35EC0FF0E76E010E54
:1004B000E7CFDBFF100EDB6ADBCF00F00D0EE76E3F
:1004C0000018E8AE02D0E73402D0E750005C1AE230
:1004D00035EC0FF0E66ED950020F006EDACF01F066
:1004E000100EDBCF02F0036A02BE03680050022444
:1004F000E96E01500320EA6EE552E750EF6E100EF0
:10050000DB2ADAD735EC0FF0E76E0F0EE7CFDBFF13
:10051000D9CFE9FFDACFEAFFEECF00F0EECF01F05E
:10052000EECF02F0EECF03F0EECF04F0EECF05F009
:10053000EECF06F0EECF07F0EECF08F0EECF09F0E9
:10054000EECF0AF0EECF0BF0EECF0CF0EECF0DF0C9
:10055000EECF0EF0EFCF0FF0D9CFE9FFDACFEAFF01
:10056000ED50ED500FC0EDFF0EC0EDFF0DC0EDFFE3
:100570000CC0EDFF0BC0EDFF0AC0EDFF09C0EDFFA1
:1005800008C0EDFF07C0EDFF06C0EDFF05C0EDFFA1
:1005900004C0EDFF03C0EDFF02C0EDFF01C0EDFFA1
:1005A00000C0EFFF120EE15C03E200D0E16AE55209
:1005B000E16EE552E7CFD9FF1200D9CFE6FFE1CFD8
:1005C000D9FF130EE126160EF36E030EF3CFDBFFF9
:1005D000FE0EDB50E76E040EE7CFDBFFFC0EDBCF39
:1005E000E6FFFD0EDBCFE6FFC6EC0FF0E552E5526D
:1005F000F3CFDEFFF4CFDDFFDECFE9FFDDCFEAFF93
:10060000050EEFCFDBFFDECFE9FFDDCFEAFF010E06
:10061000E926000EEA22060EEFCFDBFFFA0EDBCF53
:10062000E6FFFB0EDBCFE6FFC6EC0FF0E552E5522E
:10063000F3CFDEFFF4CFDDFFDECFE9FFDDCFEAFF52
:10064000070EEFCFDBFFDECFE9FFDDCFEAFF010EC4
:10065000E926000EEA22080EEFCFDBFF040EF36E50
:10066000020EF3CFDBFFDBCF00F00D0EE76E0018BC
:10067000E8AE02D0E73402D0E750005C15E2D95072
:10068000050F006EDACF01F0020EDBCF02F0036A35
:1006900002BE036800500224E96E01500320EA6E96
:1006A000EF6A020EDB2ADFD7D950050FE66E000E87
:1006B000DA20E66EB9DCE552E552E76E120EE7CFBE
:1006C000DBFF030EDBCF00F0040EDBCF01F0050EE5
:1006D000DBCF02F0060EDBCF03F0070EDBCF04F01A
:1006E000080EDBCF05F0090EDBCF06F00A0EDBCFDC
:1006F00007F00B0EDBCF08F00C0EDBCF09F00D0E70
:10070000DBCF0AF00E0EDBCF0BF00F0EDBCF0CF0C1
:10071000100EDBCF0DF0110EDBCF0EF0120EDBCF83
:100720000FF0D9CFE9FFDACFEAFFED50ED500FC05F
:10073000EDFF0EC0EDFF0DC0EDFF0CC0EDFF0BC0D7
:10074000EDFF0AC0EDFF09C0EDFF08C0EDFF07C0D7
:10075000EDFF06C0EDFF05C0EDFF04C0EDFF03C0D7
:10076000EDFF02C0EDFF01C0EDFF00C0EFFF130E73
:10077000E15C03E200D0E16AE552E16EE552E7CFC9
:04078000D9FF12008B
:0C078400DACFE4FFE2CFDAFFE9CFE4FFB8
:10079000EACFE4FFF6CFE4FFF7CFE4FFF5CFE4FFC5
:1007A000F3CFE4FFF4CFE4FFFACFE4FF00EE16F05E
:1007B000140EE80403E3EECFE4FFFBD700EE00F0F5
:1007C000160EE80403E3EECFE4FFFBD7E6529EAA41
:1007D00024D0ABA20AD0AB98AB88AE50E66EADEC9D
:1007E0000FF0E55230EC0FF018D0AE50E66EADECE5
:1007F0000FF0E5520001E151E2110FE151EC0FF071
:10080000F3CF2AF0F4CF2BF0100E2A1801E12B5071
:1008100004E1010E0001E16FE26B9EA034D0A5EC73
:100820000DF0E0EC07F0F3CF2EF0F4CF2FF02EC058
:10083000E6FF2FC0E6FF9FEC0DF0F3CF30F0F4CFD2
:1008400031F030C0E6FF31C0E6FF30EC0BF0E5528E
:10085000E552E552E5521AC02AF01BC02BF01CC02D
:100860002CF01DC02DF02AC0E6FF2BC0E6FF2CC0E7
:10087000E6FF2DC0E6FF95EC0BF0E552E552E552A0
:10088000E552D38E0300A1A28AD0ACEC10F0010196
:10089000002B000E012308C10AF109C10BF10CC1A4
:1008A0000EF10DC10FF1ADEC07F000090DE00101F3
:1008B0000A510B1109E1010E0101086F096B00C11A
:1008C00002F101C103F103D00101086B096BDBC028
:1008D000E6FFDCC0E6FFB9EC07F0E552E55200099F
:1008E0000DE001010E510F1109E1010E01010C6F24
:1008F0000D6B00C104F101C105F103D001010C6BC6
:100900000D6BDBC0E6FFDCC0E6FF18EC08F0E5523B
:10091000E552000904E000C106F101C107F101013F
:1009200002510101005D2A6E0151010103552B6E38
:100930008DEC08F0F3CF2CF0F4CF2DF02C502A5C86
:100940002D502B580EE300C1E6FF01C1E6FFDBC0CE
:10095000E6FFDCC0E6FF93EC08F0E552E552E55215
:10096000E552DDC0E6FFDEC0E6FFDFC0E6FFE0C027
:10097000E6FF06C1E6FF07C1E6FF04C1E6FF05C1C9
:10098000E6FF02C1E6FF03C1E6FF00C1E6FF01C1C9
:10099000E6FF46EC07F02A6E0C0EE15E2A509EA898
:1009A00009D002EC0FF0000902E09D9803D09FEC03
:1009B0000EF0AD6EE55200EE15F0160EE80403E3FE
:1009C000E5CFEDFFFBD700EE29F0140EE80403E3BA
:1009D000E5CFEDFFFBD7E5CFFAFFE5CFF4FFE5CF9D
:1009E000F3FFE5CFF5FFE5CFF7FFE5CFF6FFE5CF66
:1009F000EAFFE5CFE9FFE5CFDAFF11008CEC09F063
:100A00004FEC0DF030EC0FF09AEC0EF00001E16BC2
:100A1000E26B0001010EE11901E1E25101E083D135
:100A200051EC0FF0F3CF00F0F4CF01F0100E0018EE
:100A300001E1015001E076D1100EE126FEEC09F053
:100A4000EECFC4F0EECFC5F0EECFC6F0EECFC7F0DC
:100A5000EECFC8F0EECFC9F0EECFCAF0EECFCBF0BC
:100A6000EECFCCF0EECFCDF0EECFCEF0EECFCFF09C
:100A7000EECFD0F0EECFD1F0EECFD2F0EECFD3F07C
:100A8000006E100EE15E00500001C45101E147D13B
:100A9000550E0001C55D64E1C4C0E6FFC5C0E6FFB8
:100AA000C6C0E6FFC7C0E6FFC8C0E6FFC9C0E6FF94
:100AB000CAC0E6FFCBC0E6FFCCC0E6FFCDC0E6FF74
:100AC000CEC0E6FFCFC0E6FFD0C0E6FFD1C0E6FF54
:100AD000D2C0E6FFD3C0E6FF9DEC01F0EECFD4F02C
:100AE000EECFD5F0EECFD6F0EECFD7F0EECFD8F0F8
:100AF000EECFD9F0EECFDAF0EECFDBF0EECFDCF0D8
:100B0000EECFDDF0EECFDEF0EECFDFF0EECFE0F0B7
:100B1000006E100EE15E0050D4C0E6FFD5C0E6FFC7
:100B2000D6C0E6FFD7C0E6FFD8C0E6FFD9C0E6FFD3
:100B3000DAC0E6FFDBC0E6FFDCC0E6FFDDC0E6FFB3
:100B4000DEC0E6FFDFC0E6FFE0C0E6FF59EC08F0DC
:100B5000006E0D0EE15E00500001E16BE26BDED035
:100B6000490E0001C55D6CE1030EE126D4C0E6FF2D
:100B7000D5C0E6FFD6C0E6FFD7C0E6FFD8C0E6FF87
:100B8000D9C0E6FFDAC0E6FFDBC0E6FFDCC0E6FF67
:100B9000DDC0E6FFDEC0E6FFDFC0E6FFE0C0E6FF47
:100BA00056EC00F0EECF00F0EECF01F0EECF02F009
:100BB000EECF03F0EECF04F0EECF05F0EECF06F06F
:100BC000EECF07F0EECF08F0EECF09F0EECF0AF04F
:100BD000EECF0BF0EECF0CF0EECF0DF0EECF0EF02F
:100BE000EECF0FF0106E100EE15E105000C0E6FF69
:100BF00001C0E6FF02C0E6FF03C0E6FF04C0E6FF57
:100C000005C0E6FF06C0E6FF07C0E6FF08C0E6FF36
:100C100009C0E6FF0AC0E6FF0BC0E6FF0CC0E6FF16
:100C20000DC0E6FF0EC0E6FF0FC0E6FFBCEC09F00A
:100C3000116E100EE15E11500001E16BE26B6ED09F
:100C4000470E0001C55D6AE10B0EE126E0EC07F0FE
:100C5000F3CF10F0F4CF11F010C0E6FF11C0E6FFA3
:100C60009FEC0DF0F3CF12F0F4CF13F012C0E6FFBB
:100C700013C0E6FF470EE66EDDEC02F0EECF00F0AB
:100C8000EECF01F0EECF02F0EECF03F0EECF04F0A6
:100C9000EECF05F0EECF06F0EECF07F0EECF08F086
:100CA000EECF09F0EECF0AF0EECF0BF0EECF0CF066
:100CB000EECF0DF0EECF0EF0EECF0FF0146E100E63
:100CC000E15E145000C0E6FF01C0E6FF02C0E6FF8F
:100CD00003C0E6FF04C0E6FF05C0E6FF06C0E6FF6E
:100CE00007C0E6FF08C0E6FF09C0E6FF0AC0E6FF4E
:100CF0000BC0E6FF0CC0E6FF0DC0E6FF0EC0E6FF2E
:100D00000FC0E6FFBCEC09F0156E100EE15E155049
:100D1000A3EC10F0020E0001E16FE26B03D00001C2
:100D2000E16BE26BACD00001020EE11901E1E2518E
:100D300001E0A5D051EC0FF0F3CF00F0F4CF01F0BB
:100D4000100E001801E1015001E099D0100EE126CB
:100D5000FEEC09F0EECFC4F0EECFC5F0EECFC6F05A
:100D6000EECFC7F0EECFC8F0EECFC9F0EECFCAF0AD
:100D7000EECFCBF0EECFCCF0EECFCDF0EECFCEF08D
:100D8000EECFCFF0EECFD0F0EECFD1F0EECFD2F06D
:100D9000EECFD3F0006E100EE15E00500001C451A2
:100DA0006EE0620E0001C55D6AE10B0EE126E0EC2B
:100DB00007F0F3CF10F0F4CF11F010C0E6FF11C030
:100DC000E6FF9FEC0DF0F3CF12F0F4CF13F012C05A
:100DD000E6FF13C0E6FF620EE66EDDEC02F0EECF3A
:100DE00000F0EECF01F0EECF02F0EECF03F0EECF49
:100DF00004F0EECF05F0EECF06F0EECF07F0EECF29
:100E000008F0EECF09F0EECF0AF0EECF0BF0EECF08
:100E10000CF0EECF0DF0EECF0EF0EECF0FF0146E23
:100E2000100EE15E145000C0E6FF01C0E6FF02C0F4
:100E3000E6FF03C0E6FF04C0E6FF05C0E6FF06C00C
:100E4000E6FF07C0E6FF08C0E6FF09C0E6FF0AC0EC
:100E5000E6FF0BC0E6FF0CC0E6FF0DC0E6FF0EC0CC
:100E6000E6FF0FC0E6FFBCEC09F0156E100EE15E68
:100E700015500001E16BE26B9D909E90CD90D38E5A
:060E80000300C7D51200BB
:0A0E86009380ACEF10F0D9CFE6FF27
:100E9000E1CFD9FFE6C0E7F0E4C0E5F08150010BF7
:100EA0000001E46FFD0EDBCF02F0FE0EDBCF03F09E
:100EB000FB0EDB50025C006EFC0EDB500358016E33
:100EC000F50EDBCF04F0F60EDBCF05F00050045C2E
:100ED0000150055802E2000E01D0010EE66FE8C095
:100EE000E9F0FD0EDBCF02F0FE0EDBCF03F0F90ED2
:100EF000DB50025C006EFA0EDB500358016EF50EFB
:100F0000DBCF04F0F60EDBCF05F00050045C01509F
:100F1000055802E2000E01D0010EE86FEAC0EBF0C6
:100F2000F30EDBCFE6FFF40EDBCFE6FFF70EDBCFF1
:100F3000E6FFF80EDBCFE6FFFD0EDBCFE6FFFE0E91
:100F4000DBCFE6FF91D8006E060EE15E0050000197
:100F5000EA6FE552E7CFD9FF12000001E65106E142
:100F6000E55104E0E45102E0010E02D0000E00D091
:100F70001200D9CFE6FFE1CFD9FF0001E85111E11E
:100F8000EEC000F0EFC001F0FD0EDB50001803E1F1
:100F9000FE0EDB50011805E1F051F11102E1010EE6
:100FA00002D0000E00D0E552E7CFD9FF12000001B9
:100FB000E651E81102E0010E02D0000E00D012004E
:100FC0000001E65115E0E7510AE1530EE66E560EB8
:100FD000E66E18EC10F0E552E55229D028D0290E23
:100FE000E66E280EE66E18EC10F0E552E5521FD0C2
:100FF000E85115E0E9510AE1500EE66E560EE66E34
:1010000018EC10F0E552E55212D011D0290EE66E20
:10101000280EE66E18EC10F0E552E55208D02D0EC1
:10102000E66EE66E18EC10F0E552E55200D01200C4
:10103000D9CFE6FFE1CFD9FFEEC000F0EFC001F05D
:10104000FD0EDB50001803E1FE0EDB50011806E137
:101050000001F051F11102E1010E02D0000E00D0AA
:10106000E552E7CFD9FF1200D9CFE6FFE1CFD9FF94
:10107000FD0EDBCF02F0FE0EDBCF03F0FB0EDB50EC
:10108000025C006EFC0EDB500358016EF90EDBCFE4
:1010900004F0FA0EDBCF05F00050045C0150055857
:1010A00002E3010E02D0000E00D0E552E7CFD9FFD7
:1010B0001200D9CFE6FFE1CFD9FF0001E7511FE1D0
:1010C000E6511DE0F40EDB5013E0F50EDBCF00F02F
:1010D000F60EDBCF01F0F70EDB500001002400011B
:1010E000FE6FF80EDB50000101200001FF6F06D0FB
:1010F000F70EDBCFFEF0F80EDBCFFFF00AD0E951A0
:1011000008E1E85106E0F70EDBCFFEF0F80EDBCF8A
:10111000FFF0E552E7CFD9FF1200FEC0F3FFFFC09A
:10112000F4FF00D01200D9CFE6FFE1CFD9FF8CD871
:10113000F90EDBCFE6FFFA0EDBCFE6FF5FD8E55214
:10114000E552F90EDBCFE6FFFA0EDBCFE6FF69D8FA
:10115000E552E552EEC0F0F0EFC0F1F0ECC0EEF079
:10116000EDC0EFF0FB0EDB500001FE5D0001006EF4
:10117000FC0EDB500001FF590001016E00C0E6FFCC
:1011800001C0E6FFF90EDBCFE6FFFA0EDBCFE6FF8C
:101190009DD8E552E552E552E552000924E1FB0EE7
:1011A000DB500001FE5D0001026EFC0EDB50000111
:1011B000FF590001036E02C0E6FF03C0E6FFF90E0F
:1011C000DBCFE6FFFA0EDBCFE6FF5AD8E552E55259
:1011D000E552E552000907E1FD0EDBCFECF0FE0E13
:1011E000DBCFEDF007D00001EB5104E0EA5102E162
:1011F000EC6BED6BE552E7CFD9FF1200D9CFE6FFDC
:10120000E1CFD9FF0001F60508E1F75106E1FD0E37
:10121000DBCFF2F0FE0EDBCFF3F0E552E7CFD9FFE4
:101220001200D9CFE6FFE1CFD9FF0001F80508E1B0
:10123000F95106E1FD0EDBCFF4F0FE0EDBCFF5F049
:10124000E552E7CFD9FF1200F8C0F9F0B0DE00098F
:1012500004E10001EE51EF1102E0000E01D0010E99
:101260000001F86FF6C0F7F0A2DE000903E100010B
:10127000E45102E0000E01D0010E0001F66F1200F1
:10128000D9CFE6FFE1CFD9FF0001F80519E1FD0E46
:10129000DBCF1CF0FE0EDBCF1DF0F4511C5C006EAA
:1012A000F5511D58016EFB0EDBCF02F0FC0EDBCFBB
:1012B00003F00250005C0350015802E3010E02D01B
:1012C000000E00D0E552E7CFD9FF1200D9CFE6FFDC
:1012D000E1CFD9FF0001F60519E1FD0EDBCF1CF0CF
:1012E000FE0EDBCF1DF0F2511C5C006EF3511D5859
:1012F000016EFB0EDBCF02F0FC0EDBCF03F00250E1
:10130000005C0350015802E3010E02D0000E00D031
:08131000E552E7CFD9FF1200FE
:08131800100EAF6E948C948E50
:10132000AC98AB8EAC8AAC84B886AB88D08E9F8AE2
:101330009F88F28E9D8A1200D9CFE6FFE1CFD9FFB8
:10134000FE0EDB5047080CE0FE0EDB50490808E0BB
:10135000FE0EDB50620804E0FE0EDB50550805E18E
:10136000010EF36EF46A04D003D0F36AF46A00D07D
:10137000E552E7CFD9FF1200D9CFE6FFE1CFD9FF81
:10138000E652EF0EDBCFE6FF17EC0FF0E552F00E62
:10139000DBCFE6FF17EC0FF0E552DF6ADFCF00F09E
:1013A0000D0EE76E0018E8AE02D0E73402D0E75029
:1013B000005C18E2D950F10F006EFF0EDA20016ECA
:1013C000DFCF02F0036A02BE036800500224E96E18
:1013D00001500320EA6EEF50E66E17EC0FF0E55275
:1013E000DF2ADCD7FE0EDBCFE6FF17EC0FF0E5526D
:1013F0009D88E552E552E7CFD9FF1200D9CFE6FF2D
:10140000E1CFD9FF110EE126100EE1264BEC02F0E0
:10141000EECF00F0EECF01F0EECF02F0EECF03F012
:10142000EECF04F0EECF05F0EECF06F0EECF07F0F2
:10143000EECF08F0EECF09F0EECF0AF0EECF0BF0D2
:10144000EECF0CF0EECF0DF0EECF0EF0EECF0FF0B2
:10145000106E100EE15E105000C0DFFF010E01C0E3
:10146000DBFF020E02C0DBFF030E03C0DBFF040E36
:1014700004C0DBFF050E05C0DBFF060E06C0DBFF68
:10148000070E07C0DBFF080E08C0DBFF090E09C00E
:10149000DBFF0A0E0AC0DBFF0B0E0BC0DBFF0C0EDE
:1014A0000CC0DBFF0D0E0DC0DBFF0E0E0EC0DBFF10
:1014B0000F0E0FC0DBFFD950020FE66E000EDA20D0
:1014C000E66E14EC00F0E552E552E76E100EE7CF41
:1014D000DBFF010EDBCFE6FF2FDFE552F3CF00F09D
:1014E000F4CF01F00050011056E0160EDF5C53E11E
:1014F000100EDB50F36E0F0EDB50F35C4CE1D9CFD6
:10150000E9FFDACFEAFFEECF00F0EECF01F0EECF49
:1015100002F0EECF03F0EECF04F0EECF05F0EECF09
:1015200006F0EECF07F0EECF08F0EECF09F0EECFE9
:101530000AF0EECF0BF0EECF0CF0EECF0DF0EECFC9
:101540000EF0EFCF0FF0D9CFE9FFDACFEAFFED5081
:10155000ED500FC0EDFF0EC0EDFF0DC0EDFF0CC054
:10156000EDFF0BC0EDFF0AC0EDFF09C0EDFF08C0A5
:10157000EDFF07C0EDFF06C0EDFF05C0EDFF04C0A5
:10158000EDFF03C0EDFF02C0EDFF01C0EDFF00C0A5
:10159000EFFF4DD04CD0DF6AD9CFE9FFDACFEAFFB9
:1015A000EECF00F0EECF01F0EECF02F0EECF03F081
:1015B000EECF04F0EECF05F0EECF06F0EECF07F061
:1015C000EECF08F0EECF09F0EECF0AF0EECF0BF041
:1015D000EECF0CF0EECF0DF0EECF0EF0EFCF0FF020
:1015E000D9CFE9FFDACFEAFFED50ED500FC0EDFFA4
:1015F0000EC0EDFF0DC0EDFF0CC0EDFF0BC0EDFF09
:101600000AC0EDFF09C0EDFF08C0EDFF07C0EDFF08
:1016100006C0EDFF05C0EDFF04C0EDFF03C0EDFF08
:1016200002C0EDFF01C0EDFF00C0EFFF00D0110EC2
:10163000E15C02E2E16AE552E16EE552E7CFD9FFF3
:101640001200D9CFE6FFE1CFD9FFFE0EDBCFE6FFD8
:1016500017EC0FF0E5529D88E552E7CFD9FF120055
:10166000D9CFE6FFE1CFD9FF060EE126FD0EDBCF95
:10167000E6FFFE0EDBCFE6FFC6EC0FF0E552E552CB
:10168000F3CFDEFFF4CFDDFFDECFE9FFDDCFEAFFF2
:10169000020EEFCFDBFFDECFE9FFDDCFEAFF010E69
:1016A000E926000EEA22030EEFCFDBFFFB0EDBCFB5
:1016B000E6FFFC0EDBCFE6FFC6EC0FF0E552E5528D
:1016C000F3CFDEFFF4CFDDFFDECFE9FFDDCFEAFFB2
:1016D000040EEFCFDBFFDECFE9FFDDCFEAFF010E27
:1016E000E926000EEA22050EEFCFDBFF020EDBCF6C
:1016F00000F0030EDBCF01F0040EDBCF02F0050E8D
:10170000DBCF03F000C01AF001C01BF002C01CF0D8
:1017100003C01DF0060EE15C03E200D0E16AE55271
:10172000E16EE552E7CFD9FF1200D9CFE6FFE1CF56
:10173000D9FFE652DF6ADFCF00F0040EE76E001833
:10174000E8AE02D0E73402D0E750005C18E2D9508E
:10175000FB0F006EFF0EDA20016EDFCF02F0036A8E
:1017600002BE036800500224E96E01500320EA6EB5
:10177000EF50E66E17EC0FF0E552DF2ADCD79D88BC
:0A178000E552E552E7CFD9FF120051
:06178A00259E08D0259EFB
:101790001DAE05D01C6C1D1EE86A1D22258E1DC0C5
:1017A00017F01CC016F0296A286A8E0E186E196A86
:1017B000E5EF0CF0256A21EC0DF039EC0DF025B6C3
:1017C000C9EF0CF025A205D025BAC9EF0CF0D0EF77
:1017D0000CF025BADCEF0CF025A005D025B8C9EF38
:1017E0000CF0DCEF0CF025B8D0EF0CF0196A7F0E8E
:1017F0001E24186EE86A19222350185EE86A195AE6
:101800001A0E266E1E6A286A296A166A176A2050FE
:101810001B5E21501C5A22501D5A000E1E5A09E709
:1018200020501B2621501C2222501D22000E1E2259
:1018300001D0288AD8901B361C361D361E36D8900B
:101840002836293616361736262EE1D71D501C109D
:101850001B10D8A4288AE5EF0CF0256A21EC0DF0C6
:1018600039EC0DF025B6C9EF0CF025A205D025B84E
:10187000C9EF0CF0D0EF0CF025AA05D025B0C9EFC8
:101880000CF0D0EF0CF025B002D025A802D0DCEF90
:101890000CF0196A23501E24186EE86A19227E0E75
:1018A000185EE86A195A286A296A166A176A225065
:1018B0001D02F4CF17F0F3CF16F021501D02F350A4
:1018C0002926F4501622000E172222501C02F35033
:1018D0002926F4501622000E172220501D02F35024
:1018E0002826F4502922000E1622172221501C020D
:1018F000F3502826F4502922000E162217222250D7
:101900001B02F3502826F4502922000E162217221B
:1019100020501C02F4502826000E292216221722DD
:1019200021501B02F4502826000E292216221722CD
:10193000E5EF0CF0256A21EC0DF025B6A4EF0CF0D4
:1019400025A20ED025B405D07F0E1D6EFF0E1C6E95
:101950001FD0800E1D6E1C6A1BD01D6A1C6A18D019
:1019600025B0FBD78F0E1E60EDD77E0E1E64F5D717
:101970008E0E1E5C05E0D8901D321C321E2AF8D750
:1019800025A406D01C6C1D1EE86A1D221DAEE5D7DD
:1019900012007F0E1E6EFF0E1D6E1C6E1B6E12005F
:1019A0007F0E25BEFF0E1E6E02D07F0E1E6E800EB5
:1019B0001D6E1C6A1B6AF3D725AE04D0800E1E6E06
:1019C0001D6AF7D71E6A1D6AF4D717501610291022
:1019D0002810F8E019BEF0D717BE0CD01850191017
:1019E000EBE0D89028362936163617361806D8A0D8
:1019F0001906F2D71950D4E11828D2E028AE11D038
:101A00007F0E281402E129A00CD0292AE86A1622A8
:101A1000172207E3D880173216322932182A1828DD
:101A2000BFE01850C9E029C01BF016C01CF01734E5
:101A30001D6E18301E6E1D321E9E25BE1E8ECFEFEF
:101A40000CF01D361E3602E32584257E06E1258036
:101A50001E6A1D6A1C6A1B6A12001E2803E0D880D9
:101A60001D321200D8901D3202E125821200258617
:101A700012002236233602E3258C257E06E12588D6
:101A8000236A226A216A206A1200232803E0D88090
:0E1A900022321200D8902232EAE1258A12009A
:021A9E00959819
:101AA0008388959A838A94969488949A928A12004D
:101AB000D9CFE6FFE1CFD9FF030EE126DE6ADD6A6A
:101AC000020EDB6ADBCF00F0100EE76E0018E8AE06
:101AD00002D0E73402D0E750005C14E2829682869E
:101AE000D9CFE9FFDACFEAFF010ED890EE36ED3616
:101AF000E806FBE18250100B01E0010EDF12020E3E
:101B0000DB2AE0D7DECF00F0DDCF01F000C0F3FF2D
:101B100001C0F4FF030EE15C03E200D0E16AE5528C
:101B2000E16EE552E7CFD9FF1200829A8296828653
:101B3000828A82A8FED712008296829A1200FCC086
:101B4000F3FFFDC0F4FF00D01200A3EC10F0EDDFB6
:101B5000086A096AA00E0A6E400E0B6E08C0E6FF06
:101B600009C0E6FF0AC0E6FF0BC0E6FFA1DFE552B1
:101B7000E7CF0BF0E552E7CF0AF0E552E7CF09F0E7
:101B8000E552E7CF08F0F3CF10F0F4CF11F010C01A
:101B90001CF011C01DF0C5EC0BF01BC00CF01CC0FC
:101BA0000DF01DC00EF01EC00FF00CC020F00DC0D7
:101BB00021F00EC022F00FC023F008C01BF009C0B6
:101BC0001CF00AC01DF00BC01EF02DEC0CF01BC069
:101BD00004F01CC005F01DC006F01EC007F0206A0E
:101BE00021687F0E226E470E236E04C01BF005C0D5
:101BF0001CF006C01DF007C01EF0DAEC0BF01BC095
:101C000000F01CC001F01DC002F01EC003F0206AED
:101C1000216A7A0E226E440E236E00C01BF001C0B2
:101C20001CF002C01DF003C01EF02DEC0CF09AEC6D
:101C30000CF01CC0FCF01DC0FDF0086A096AA00E83
:101C40000A6E400E0B6E08C0E6FF09C0E6FF0AC030
:101C5000E6FF0BC0E6FF2CDFE552E7CF0BF0E552C5
:101C6000E7CF0AF0E552E7CF09F0E552E7CF08F0F9
:101C7000F3CF10F0F4CF11F010C01CF011C01DF024
:101C8000C5EC0BF01BC00CF01CC00DF01DC00EF01D
:101C90001EC00FF00CC020F00DC021F00EC022F0CD
:101CA0000FC023F008C01BF009C01CF00AC01DF0D3
:101CB0000BC01EF02DEC0CF01BC004F01CC005F096
:101CC0001DC006F01EC007F0206A21687F0E226E3C
:101CD000470E236E04C01BF005C01CF006C01DF0AB
:101CE00007C01EF0DAEC0BF01BC000F01CC001F0C6
:101CF0001DC002F01EC003F0206A216A7A0E226E17
:101D0000440E236E00C01BF001C01CF002C01DF089
:101D100003C01EF02DEC0CF09AEC0CF01CC0FAF095
:101D20001DC0FBF09CEF0DF0FAC0F3FFFBC0F4FF09
:041D300000D01200CD
:0C1D34000001816B81C080F01200D9CF4B
:101D4000E6FFE1CFD9FFE65280C0E9FFEA6AE9BECB
:101D5000EA68820EE926000EEA22EFCFDFFF0001DB
:101D6000802B1F0E8015806FDF5000D0E552E552AA
:101D7000E7CFD9FF1200D9CFE6FFE1CFD9FF020E9E
:101D8000E12600018151E76E8019E8AE02D080356E
:101D900003D0E750D88080550BE38051815D006E01
:101DA000016A00BE016800C0DEFF01C0DDFF17D080
:101DB0008051E76E8119E8AE02D0E73402D0E750D7
:101DC000815D0DE2200E026E8151805D025C006E2D
:101DD000016A00BE016800C0DEFF01C0DDFFDECF8A
:101DE00000F0DDCF01F000C0F3FF01C0F4FF020EF0
:101DF000E15C03E200D0E16AE552E16EE552E7CF33
:101E0000D9FF120000018151805D03E1010E03D072
:101E100002D0000E00D01200000181291F0B805D4E
:101E200003E1010E03D002D0000E00D01200D9CF82
:101E3000E6FFE1CFD9FF81C0E9FFEA6AE9BEEA68BF
:101E4000820EE926000EEA22FE0EDBCFEFFF000134
:101E5000812B1F0E8115816FE552E7CFD9FF12004C
:101E60000001A36BA3C0A2F01200D9CFE6FFE1CF1F
:101E7000D9FFE652A2C0E9FFEA6AE9BEEA68A40E09
:101E8000E926000EEA22EFCFDFFF0001A22B1F0E92
:101E9000A215A26FDF5000D0E552E552E7CFD9FF7F
:101EA0001200D9CFE6FFE1CFD9FF020EE1260001F3
:101EB000A351E76EA219E8AE02D0A23503D0E750D5
:101EC000D880A2550BE3A251A35D006E016A00BE4B
:101ED000016800C0DEFF01C0DDFF17D0A251E76E30
:101EE000A319E8AE02D0E73402D0E750A35D0DE2BB
:101EF000200E026EA351A25D025C006E016A00BE5C
:101F0000016800C0DEFF01C0DDFFDECF00F0DDCFE5
:101F100001F000C0F3FF01C0F4FF020EE15C03E238
:101F200000D0E16AE552E16EE552E7CFD9FF120039
:101F30000001A351A25D03E1010E03D002D0000E07
:101F400000D012000001A3291F0BA25D03E1010EC6
:101F500003D002D0000E00D01200D9CFE6FFE1CFAF
:101F6000D9FFA3C0E9FFEA6AE9BEEA68A40EE92640
:101F7000000EEA22FE0EDBCFEFFF0001A32B1F0EA7
:0C1F8000A315A36FE552E7CFD9FF1200B4
:041F8C00D9CFE6FFC4
:101F9000E1CFD9FF040EE126FD0EDBCF00F0FE0EEF
:101FA000DBCF01F0000E0016FF0E0116020E00C07E
:101FB000DBFF030E01C0DBFF020EDBCF00F0030EE0
:101FC000DBCF01F001C000F0016A020E00C0DBFFB0
:101FD000030E01C0DBFF020EDB50DF6EFF0EE76E6B
:101FE000FD0EDBCF00F0FE0EDBCF01F0E750001658
:101FF000016A020E00C0DBFF030E01C0DBFF020E10
:10200000DB50E76E010EE7CFDBFFD9CF00F0DACF70
:1020100001F000C0F3FF01C0F4FF040EE15C03E235
:1020200000D0E16AE552E16EE552E7CFD9FF120038
:10203000D9CFE6FFE1CFD9FF020EE126FE0EDBCFBE
:1020400000F0016A00BE016800C0DEFF01C0DDFFD4
:10205000DECF00F0DDCF01F000C001F0006A00C06B
:10206000DEFF01C0DDFFFD0EDBCF00F0016A00BE28
:102070000168D9CFE9FFDACFEAFF0050EE12015034
:10208000ED12DECF00F0DDCF01F000C0F3FF01C0A4
:10209000F4FF020EE15C03E200D0E16AE552E16E7A
:0820A000E552E7CFD9FF120061
:0820A8000E0EF66E000EF76E3D
:1020B000000EF86E01010900F550156F0900F5508A
:1020C000166F03E1156701D03DD00900F550106F80
:1020D0000900F550116F0900F550126F0900090051
:1020E000F550E96E0900F550EA6E09000900090093
:1020F000F550136F0900F550146F09000900F6CF71
:1021000017F1F7CF18F1F8CF19F110C1F6FF11C18F
:10211000F7FF12C1F8FF0101135302E1145307E066
:102120000900F550EE6E1307F8E21407F9D717C14E
:10213000F6FF18C1F7FF19C1F8FF01011507000EDE
:06214000165BBFD7120080
:0A214600F10ECD6EFC0ECF6E170EE9
:10215000CE6E9E909D801200810EB16EB368050E0A
:08216000B26EA192A0821200F0
:08216800000EF36E00EE00F022
:10217000060E01D81200EA6002D0EE6AFCD7F350D6
:08218000E9601200EE6AFCD7D1
:0821880015EE00F025EE00F059
:10219000F86A259C54EC10F003EC00F0FEEC04F01F
:0421A000FBD7120057
:0C21A4000000000000000000000000002F
:0A21B0000000000000000000000025
:0621BA000000000000001F
:0A21C0000000000000000000000015
:020000040030CA
:0100010002FC
:010003001EDE
:00000001FF
