:020000040000FA
:0600000030EF0EF01200CB
:020006000000F8
:06000800B5EF03F0120049
:02000E00D9CF48
:10001000E6FFE1CFD9FF020EE126FD0EDBCFE9FFBF
:10002000FE0EDBCFEAFF010EEFCFDBFFDF6EDFCF8F
:1000300014F00D0EE76E1418E8AE02D0E73402D0CB
:10004000E750145C17E2DFCF14F0156A14BE156890
:10005000FD0EDB501424E96EFE0EDB501520EA6E17
:10006000010EDBCFE7FFEF50E71A010EE7CFDBFF12
:10007000DF2ADDD7010EDB50146E020EE15C03E2D5
:1000800000D0E16AE552E16E1450E552E7CFD9FFA6
:100090001200D9CFE6FFE1CFD9FF120EE126160EEE
:1000A000DF6EDE52550EDD6EF20EDB50E76E020E95
:1000B000E7CFDBFFF30EDB50E76E030EE7CFDBFF8E
:1000C000F40EDB50E76E040EE7CFDBFFF50EDBCF5F
:1000D000E6FFF60EDBCFE6FF32EC0DF0E552E5521F
:1000E000100EF3CFDBFF110EF4CFDBFF100EDBCFD2
:1000F000E9FF110EDBCFEAFF050EEFCFDBFF010EAC
:10010000E76E100EDBCFE9FF110EDBCFEAFFE75001
:10011000E926000EEA22060EEFCFDBFFF50EDBCF5D
:10012000E6FFF60EDBCFE6FF32EC0DF0E552E552CE
:10013000100EF3CFDBFF110EF4CFDBFF100EDBCF81
:10014000E9FF110EDBCFEAFF070EEFCFDBFF010E59
:10015000E76E100EDBCFE9FF110EDBCFEAFFE750B1
:10016000E926000EEA22080EEFCFDBFFF70EDBCF09
:10017000E6FFF80EDBCFE6FF32EC0DF0E552E5527C
:10018000100EF3CFDBFF110EF4CFDBFF100EDBCF31
:10019000E9FF110EDBCFEAFF090EEFCFDBFF010E07
:1001A000E76E100EDBCFE9FF110EDBCFEAFFE75061
:1001B000E926000EEA220A0EEFCFDBFFF90EDBCFB5
:1001C000E6FFFA0EDBCFE6FF32EC0DF0E552E5522A
:1001D000100EF3CFDBFF110EF4CFDBFF100EDBCFE1
:1001E000E9FF110EDBCFEAFF0B0EEFCFDBFF010EB5
:1001F000E76E100EDBCFE9FF110EDBCFEAFFE75011
:10020000E926000EEA220C0EEFCFDBFFFB0EDBCF60
:10021000E6FFFC0EDBCFE6FF32EC0DF0E552E552D7
:10022000100EF3CFDBFF110EF4CFDBFF100EDBCF90
:10023000E9FF110EDBCFEAFF0D0EEFCFDBFF010E62
:10024000E76E100EDBCFE9FF110EDBCFEAFFE750C0
:10025000E926000EEA220E0EEFCFDBFFD950020F87
:10026000E66E000EDA20E66ED2DEE552E552E76E6B
:100270000F0EE7CFDBFFD9CFE9FFDACFEAFFEECFF2
:1002800014F0EECF15F0EECF16F0EECF17F0EECF64
:1002900018F0EECF19F0EECF1AF0EECF1BF0EECF44
:1002A0001CF0EECF1DF0EECF1EF0EECF1FF0EECF24
:1002B00020F0EECF21F0EECF22F0EFCF23F0D9CF18
:1002C000E9FFDACFEAFFED50ED5023C0EDFF22C089
:1002D000EDFF21C0EDFF20C0EDFF1FC0EDFF1EC0F0
:1002E000EDFF1DC0EDFF1CC0EDFF1BC0EDFF1AC0F0
:1002F000EDFF19C0EDFF18C0EDFF17C0EDFF16C0F0
:10030000EDFF15C0EDFF14C0EFFF120EE15C03E23C
:1003100000D0E16AE552E16EE552E7CFD9FF120065
:10032000D9CFE6FFE1CFD9FF0D0EE126F10EDB506C
:10033000DF6EF20EDB50E76E010EE7CFDBFFF30E50
:10034000DB50E76E020EE7CFDBFFF50EDBCFE6FFFB
:10035000F40EDBCFE6FF84EC0DF0E552E552030E20
:10036000F3CFDBFF040EF4CFDBFFF70EDBCFE6FFAE
:10037000F60EDBCFE6FF84EC0DF0E552E552050EFC
:10038000F3CFDBFF060EF4CFDBFFF90EDBCFE6FF8A
:10039000F80EDBCFE6FF84EC0DF0E552E552070ED8
:1003A000F3CFDBFF080EF4CFDBFFFB0EDBCFE6FF66
:1003B000FA0EDBCFE6FF84EC0DF0E552E552090EB4
:1003C000F3CFDBFF0A0EF4CFDBFFFD0EDBCFE6FF42
:1003D000FC0EDBCFE6FF84EC0DF0E552E5520B0E90
:1003E000F3CFDBFF0C0EF4CFDBFFD9CFE9FFDACF81
:1003F000EAFFEECF14F0EECF15F0EECF16F0EECF11
:1004000017F0EECF18F0EECF19F0EECF1AF0EECFD6
:100410001BF0EECF1CF0EECF1DF0EECF1EF0EECFB6
:100420001FF0EFCF20F0D9CFE9FFDACFEAFFED5090
:10043000ED5020C0EDFF1FC0EDFF1EC0EDFF1DC041
:10044000EDFF1CC0EDFF1BC0EDFF1AC0EDFF19C092
:10045000EDFF18C0EDFF17C0EDFF16C0EDFF15C092
:10046000EDFF14C0EFFF0D0EE15C03E200D0E16A86
:10047000E552E16EE552E7CFD9FF1200D9CFE6FF92
:10048000E1CFD9FF120EE12696EC0CF0DF6E96EC70
:100490000CF0E76E010EE7CFDBFF100EDB6ADBCF5F
:1004A00014F00D0EE76E1418E8AE02D0E73402D057
:1004B000E750145C1AE296EC0CF0E66ED950020F8D
:1004C000146EDACF15F0100EDBCF16F0176A16BED9
:1004D000176814501624E96E15501720EA6EE5527D
:1004E000E750EF6E100EDB2ADAD796EC0CF0E76ED1
:1004F0000F0EE7CFDBFFD9CFE9FFDACFEAFFEECF70
:1005000014F0EECF15F0EECF16F0EECF17F0EECFE1
:1005100018F0EECF19F0EECF1AF0EECF1BF0EECFC1
:100520001CF0EECF1DF0EECF1EF0EECF1FF0EECFA1
:1005300020F0EECF21F0EECF22F0EFCF23F0D9CF95
:10054000E9FFDACFEAFFED50ED5023C0EDFF22C006
:10055000EDFF21C0EDFF20C0EDFF1FC0EDFF1EC06D
:10056000EDFF1DC0EDFF1CC0EDFF1BC0EDFF1AC06D
:10057000EDFF19C0EDFF18C0EDFF17C0EDFF16C06D
:10058000EDFF15C0EDFF14C0EFFF120EE15C03E2BA
:1005900000D0E16AE552E16EE552E7CFD9FF1200E3
:1005A000D9CFE6FFE1CFD9FF130EE126160EF36E89
:1005B000030EF3CFDBFFFE0EDB50E76E040EE7CF3A
:1005C000DBFFFC0EDBCFE6FFFD0EDBCFE6FF32EC00
:1005D0000DF0E552E552F3CFDEFFF4CFDDFFDECFC5
:1005E000E9FFDDCFEAFF050EEFCFDBFFDECFE9FF4E
:1005F000DDCFEAFF010EE926000EEA22060EEFCF5C
:10060000DBFFFA0EDBCFE6FFFB0EDBCFE6FF32ECC3
:100610000DF0E552E552F3CFDEFFF4CFDDFFDECF84
:10062000E9FFDDCFEAFF070EEFCFDBFFDECFE9FF0B
:10063000DDCFEAFF010EE926000EEA22080EEFCF19
:10064000DBFF040EF36E020EF3CFDBFFDBCF14F003
:100650000D0EE76E1418E8AE02D0E73402D0E75072
:10066000145C15E2D950050F146EDACF15F0020EA6
:10067000DBCF16F0176A16BE176814501624E96E01
:1006800015501720EA6EEF6A020EDB2ADFD7D95029
:10069000050FE66E000EDA20E66EB9DCE552E55293
:1006A000E76E120EE7CFDBFF030EDBCF14F0040E74
:1006B000DBCF15F0050EDBCF16F0060EDBCF17F003
:1006C000070EDBCF18F0080EDBCF19F0090EDBCFD9
:1006D0001AF00A0EDBCF1BF00B0EDBCF1CF00C0E5A
:1006E000DBCF1DF00D0EDBCF1EF00E0EDBCF1FF0AB
:1006F0000F0EDBCF20F0100EDBCF21F0110EDBCF81
:1007000022F0120EDBCF23F0D9CFE9FFDACFEAFFD8
:10071000ED50ED5023C0EDFF22C0EDFF21C0EDFFF5
:1007200020C0EDFF1FC0EDFF1EC0EDFF1DC0EDFF9F
:100730001CC0EDFF1BC0EDFF1AC0EDFF19C0EDFF9F
:1007400018C0EDFF17C0EDFF16C0EDFF15C0EDFF9F
:1007500014C0EFFF130EE15C03E200D0E16AE55242
:0A076000E16EE552E7CFD9FF120069
:06076A00DACFE4FFE2CF4C
:10077000DAFFE9CFE4FFEACFE4FFF6CFE4FFF7CFFB
:10078000E4FFF5CFE4FFF3CFE4FFF4CFE4FFFACFCB
:10079000E4FF00EE00F0140EE80403E3EECFE4FF04
:1007A000FBD700EE14F0140EE80403E3EECFE4FFF1
:1007B000FBD7E6529EAA24D0ABA20AD0AB98AB8856
:1007C000AE50E66E19EC0DF0E55291EC0CF018D03D
:1007D000AE50E66E19EC0DF0E5520001AD51AE11D0
:1007E0000FE1B2EC0CF0F3CF28F0F4CF29F0100EAB
:1007F000281801E1295004E1010E0001AD6FAE6B34
:100800009EA02DD0FBEC0AF02D0EE66EE66AF5EC0C
:100810000AF0F3CF2CF0F4CF2DF02CC0E6FF2DC062
:10082000E6FF86EC08F0E552E552E552E55204C0D9
:1008300028F005C029F006C02AF007C02BF028C018
:10084000E6FF29C0E6FF2AC0E6FF2BC0E6FFEBEC7F
:1008500008F0E552E552E552E552D38E03009EA81A
:100860000ED05DEC0CF0F3CF28F0F4CF29F0285037
:10087000291002E09D9803D0F5EC0BF0AD6EE55227
:1008800000EE27F0140EE80403E3E5CFEDFFFBD7FD
:1008900000EE13F0140EE80403E3E5CFEDFFFBD701
:1008A000E5CFFAFFE5CFF4FFE5CFF3FFE5CFF5FFA6
:1008B000E5CFF7FFE5CFF6FFE5CFEAFFE5CFE9FFAC
:1008C000E5CFDAFF1100E2EC06F0A5EC0AF091ECBE
:1008D0000CF0F0EC0BF00001AD6BAE6B030EE126FB
:1008E00090C0E6FF91C0E6FF92C0E6FF93C0E6FF2E
:1008F00094C0E6FF95C0E6FF96C0E6FF97C0E6FF0E
:1009000098C0E6FF99C0E6FF9AC0E6FF9BC0E6FFED
:100910009CC0E6FF49EC00F0EECF14F0EECF15F0EE
:10092000EECF16F0EECF17F0EECF18F0EECF19F0B5
:10093000EECF1AF0EECF1BF0EECF1CF0EECF1DF095
:10094000EECF1EF0EECF1FF0EECF20F0EECF21F075
:10095000EECF22F0EECF23F0246E100EE15E245095
:1009600014C0E6FF15C0E6FF16C0E6FF17C0E6FF9D
:1009700018C0E6FF19C0E6FF1AC0E6FF1BC0E6FF7D
:100980001CC0E6FF1DC0E6FF1EC0E6FF1FC0E6FF5D
:1009900020C0E6FF21C0E6FF22C0E6FF23C0E6FF3D
:1009A00012EC07F0256E100EE15E25500001010EDD
:1009B000AD1901E1AE5101E05CD1B2EC0CF0F3CF26
:1009C00014F0F4CF15F0100E141801E1155001E0E9
:1009D0004FD1100EE12654EC07F0EECF80F0EECFB1
:1009E00081F0EECF82F0EECF83F0EECF84F0EECF49
:1009F00085F0EECF86F0EECF87F0EECF88F0EECF29
:100A000089F0EECF8AF0EECF8BF0EECF8CF0EECF08
:100A10008DF0EECF8EF0EECF8FF0146E100EE15E03
:100A200014500001805101E120D1550E0001815D7B
:100A300044E180C0E6FF81C0E6FF82C0E6FF83C0DC
:100A4000E6FF84C0E6FF85C0E6FF86C0E6FF87C0FC
:100A5000E6FF88C0E6FF89C0E6FF8AC0E6FF8BC0DC
:100A6000E6FF8CC0E6FF8DC0E6FF8EC0E6FF8FC0BC
:100A7000E6FF90EC01F0EECF90F0EECF91F0EECFEC
:100A800092F0EECF93F0EECF94F0EECF95F0EECF64
:100A900096F0EECF97F0EECF98F0EECF99F0EECF44
:100AA0009AF0EECF9BF0EECF9CF0146E100EE15E4C
:100AB00014500001AD6BAE6BD7D0490E0001815DC3
:100AC0006CE1030EE12690C0E6FF91C0E6FF92C004
:100AD000E6FF93C0E6FF94C0E6FF95C0E6FF96C030
:100AE000E6FF97C0E6FF98C0E6FF99C0E6FF9AC010
:100AF000E6FF9BC0E6FF9CC0E6FF49EC00F0EECFAE
:100B000014F0EECF15F0EECF16F0EECF17F0EECFDB
:100B100018F0EECF19F0EECF1AF0EECF1BF0EECFBB
:100B20001CF0EECF1DF0EECF1EF0EECF1FF0EECF9B
:100B300020F0EECF21F0EECF22F0EECF23F0246EA6
:100B4000100EE15E245014C0E6FF15C0E6FF16C08B
:100B5000E6FF17C0E6FF18C0E6FF19C0E6FF1AC09F
:100B6000E6FF1BC0E6FF1CC0E6FF1DC0E6FF1EC07F
:100B7000E6FF1FC0E6FF20C0E6FF21C0E6FF22C05F
:100B8000E6FF23C0E6FF12EC07F0256E100EE15ED3
:100B900025500001AD6BAE6B67D0470E0001815D43
:100BA00063E10B0EE1262D0EE66EE66AF5EC0AF027
:100BB000F3CF24F0F4CF25F024C0E6FF25C0E6FFF4
:100BC000470EE66ED0EC02F0EECF14F0EECF15F04B
:100BD000EECF16F0EECF17F0EECF18F0EECF19F003
:100BE000EECF1AF0EECF1BF0EECF1CF0EECF1DF0E3
:100BF000EECF1EF0EECF1FF0EECF20F0EECF21F0C3
:100C0000EECF22F0EECF23F0266E100EE15E2650DE
:100C100014C0E6FF15C0E6FF16C0E6FF17C0E6FFEA
:100C200018C0E6FF19C0E6FF1AC0E6FF1BC0E6FFCA
:100C30001CC0E6FF1DC0E6FF1EC0E6FF1FC0E6FFAA
:100C400020C0E6FF21C0E6FF22C0E6FF23C0E6FF8A
:100C500012EC07F0276E100EE15E27500FEC0EF03D
:100C6000020E0001AD6FAE6B03D00001AD6BAE6B39
:100C7000A5D00001020EAD1901E1AE5101E09ED0F8
:100C8000B2EC0CF0F3CF14F0F4CF15F0100E1418F2
:100C900001E1155001E092D0100EE12654EC07F06E
:100CA000EECF80F0EECF81F0EECF82F0EECF83F08A
:100CB000EECF84F0EECF85F0EECF86F0EECF87F06A
:100CC000EECF88F0EECF89F0EECF8AF0EECF8BF04A
:100CD000EECF8CF0EECF8DF0EECF8EF0EECF8FF02A
:100CE000146E100EE15E14500001805167E0620E38
:100CF0000001815D63E10B0EE1262D0EE66EE66AD2
:100D0000F5EC0AF0F3CF24F0F4CF25F024C0E6FF91
:100D100025C0E6FF620EE66ED0EC02F0EECF14F0D6
:100D2000EECF15F0EECF16F0EECF17F0EECF18F0B5
:100D3000EECF19F0EECF1AF0EECF1BF0EECF1CF095
:100D4000EECF1DF0EECF1EF0EECF1FF0EECF20F075
:100D5000EECF21F0EECF22F0EECF23F0266E100E74
:100D6000E15E265014C0E6FF15C0E6FF16C0E6FFA0
:100D700017C0E6FF18C0E6FF19C0E6FF1AC0E6FF7D
:100D80001BC0E6FF1CC0E6FF1DC0E6FF1EC0E6FF5D
:100D90001FC0E6FF20C0E6FF21C0E6FF22C0E6FF3D
:100DA00023C0E6FF12EC07F0276E100EE15E27501D
:100DB0000001AD6BAE6B9D909E90CD90D38E0300E5
:040DC000F5D5120053
:0C0DC400100EAF6E948C948EAC98AB8E29
:100DD000AC8AAC84B886AB88D08E9F8A9F88F28E0E
:100DE0009D8A1200D9CFE6FFE1CFD9FFFE0EDB507E
:100DF00047080CE0FE0EDB50490808E0FE0EDB5011
:100E0000620804E0FE0EDB50550805E1010EF36EAA
:100E1000F46A04D003D0F36AF46A00D0E552E7CF55
:100E2000D9FF1200D9CFE6FFE1CFD9FFE652EF0E8E
:100E3000DBCFE6FF78EC0CF0E552F00EDBCFE6FFFF
:100E400078EC0CF0E552DF6ADFCF14F00D0EE76EA0
:100E50001418E8AE02D0E73402D0E750145C18E270
:100E6000D950F10F146EFF0EDA20156EDFCF16F099
:100E7000176A16BE176814501624E96E155017200D
:100E8000EA6EEF50E66E78EC0CF0E552DF2ADCD724
:100E9000FE0EDBCFE6FF78EC0CF0E5529D88E552C4
:100EA000E552E7CFD9FF1200D9CFE6FFE1CFD9FF56
:100EB000110EE126100EE1263EEC02F0EECF14F00A
:100EC000EECF15F0EECF16F0EECF17F0EECF18F014
:100ED000EECF19F0EECF1AF0EECF1BF0EECF1CF0F4
:100EE000EECF1DF0EECF1EF0EECF1FF0EECF20F0D4
:100EF000EECF21F0EECF22F0EECF23F0246E100ED5
:100F0000E15E245014C0DFFF010E15C0DBFF020EAE
:100F100016C0DBFF030E17C0DBFF040E18C0DBFF9B
:100F2000050E19C0DBFF060E1AC0DBFF070E1BC043
:100F3000DBFF080E1CC0DBFF090E1DC0DBFF0A0E25
:100F40001EC0DBFF0B0E1FC0DBFF0C0E20C0DBFF43
:100F50000D0E21C0DBFF0E0E22C0DBFF0F0E23C0E3
:100F6000DBFFD950020FE66E000EDA20E66E07ECCA
:100F700000F0E552E552E76E100EE7CFDBFF010E01
:100F8000DBCFE6FF2FDFE552F3CF14F0F4CF15F0FF
:100F90001450151056E0160EDF5C53E1100EDB50B6
:100FA000F36E0F0EDB50F35C4CE1D9CFE9FFDACFE3
:100FB000EAFFEECF14F0EECF15F0EECF16F0EECF45
:100FC00017F0EECF18F0EECF19F0EECF1AF0EECF0B
:100FD0001BF0EECF1CF0EECF1DF0EECF1EF0EECFEB
:100FE0001FF0EECF20F0EECF21F0EECF22F0EFCFCA
:100FF00023F0D9CFE9FFDACFEAFFED50ED5023C05F
:10100000EDFF22C0EDFF21C0EDFF20C0EDFF1FC0AE
:10101000EDFF1EC0EDFF1DC0EDFF1CC0EDFF1BC0AE
:10102000EDFF1AC0EDFF19C0EDFF18C0EDFF17C0AE
:10103000EDFF16C0EDFF15C0EDFF14C0EFFF4DD062
:101040004CD0DF6AD9CFE9FFDACFEAFFEECF14F058
:10105000EECF15F0EECF16F0EECF17F0EECF18F082
:10106000EECF19F0EECF1AF0EECF1BF0EECF1CF062
:10107000EECF1DF0EECF1EF0EECF1FF0EECF20F042
:10108000EECF21F0EECF22F0EFCF23F0D9CFE9FF62
:10109000DACFEAFFED50ED5023C0EDFF22C0EDFFA7
:1010A00021C0EDFF20C0EDFF1FC0EDFF1EC0EDFF12
:1010B0001DC0EDFF1CC0EDFF1BC0EDFF1AC0EDFF12
:1010C00019C0EDFF18C0EDFF17C0EDFF16C0EDFF12
:1010D00015C0EDFF14C0EFFF00D0110EE15C02E27D
:1010E000E16AE552E16EE552E7CFD9FF1200D9CFB0
:1010F000E6FFE1CFD9FFFE0EDBCFE6FF78EC0CF088
:10110000E5529D88E552E7CFD9FF1200D9CFE6FF1F
:10111000E1CFD9FF060EE126FD0EDBCFE6FFFE0E86
:10112000DBCFE6FF32EC0DF0E552E552F3CFDEFF08
:10113000F4CFDDFFDECFE9FFDDCFEAFF020EEFCF18
:10114000DBFFDECFE9FFDDCFEAFF010EE926000E6F
:10115000EA22030EEFCFDBFFFB0EDBCFE6FFFC0E38
:10116000DBCFE6FF32EC0DF0E552E552F3CFDEFFC8
:10117000F4CFDDFFDECFE9FFDDCFEAFF040EEFCFD6
:10118000DBFFDECFE9FFDDCFEAFF010EE926000E2F
:10119000EA22050EEFCFDBFF020EDBCF14F0030EC9
:1011A000DBCF15F0040EDBCF16F0050EDBCF17F00A
:1011B00014C004F015C005F016C006F017C007F003
:1011C000060EE15C03E200D0E16AE552E16EE55211
:1011D000E7CFD9FF1200D9CFE6FFE1CFD9FFE65222
:1011E000DF6ADFCF14F0040EE76E1418E8AE02D009
:1011F000E73402D0E750145C18E2D950FB0F146EAC
:10120000FF0EDA20156EDFCF16F0176A16BE1768CC
:1012100014501624E96E15501720EA6EEF50E66E52
:1012200078EC0CF0E552DF2ADCD79D88E552E552D8
:06123000E7CFD9FF120018
:0A1236000F9E08D00F9E07AE05D0F2
:10124000066C071EE86A07220F8E07C001F006C071
:1012500000F0136A126A8E0E026E036A3BEF0AF008
:101260000F6A77EC0AF08FEC0AF00FB61FEF0AF066
:101270000FA205D00FBA1FEF0AF026EF0AF00FBA3F
:1012800032EF0AF00FA005D00FB81FEF0AF032EFCF
:101290000AF00FB826EF0AF0036A7F0E0824026EE8
:1012A000E86A03220D50025EE86A035A1A0E106EB5
:1012B000086A126A136A006A016A0A50055E0B50D6
:1012C000065A0C50075A000E085A09E70A5005261C
:1012D0000B5006220C500722000E082201D0128A61
:1012E000D8900536063607360836D89012361336AB
:1012F00000360136102EE1D7075006100510D8A48D
:10130000128A3BEF0AF00F6A77EC0AF08FEC0AF0D2
:101310000FB61FEF0AF00FA205D00FB81FEF0AF0AB
:1013200026EF0AF00FAA05D00FB01FEF0AF026EF44
:101330000AF00FB002D00FA802D032EF0AF0036A11
:101340000D500824026EE86A03227E0E025EE86AEF
:10135000035A126A136A006A016A0C500702F4CF3A
:1013600001F0F3CF00F00B500702F3501326F450B6
:101370000022000E01220C500602F3501326F450F6
:101380000022000E01220A500702F3501226F450E8
:101390001322000E002201220B500602F3501226E7
:1013A000F4501322000E002201220C500502F350CB
:1013B0001226F4501322000E002201220A500602C7
:1013C000F4501226000E1322002201220B500502B7
:1013D000F4501226000E1322002201223BEF0AF0E5
:1013E0000F6A77EC0AF00FB6FAEF09F00FA20ED0F1
:1013F0000FB405D07F0E076EFF0E066E1FD0800E55
:10140000076E066A1BD0076A066A18D00FB0FBD7B2
:101410008F0E0860EDD77E0E0864F5D78E0E085C3F
:1014200005E0D89007320632082AF8D70FA406D074
:10143000066C071EE86A072207AEE5D712007F0E8A
:10144000086EFF0E076E066E056E12007F0E0FBE51
:10145000FF0E086E02D07F0E086E800E076E066AC1
:10146000056AF3D70FAE04D0800E086E076AF7D76F
:10147000086A076AF4D70150001013101210F8E040
:1014800003BEF0D701BE0CD002500310EBE0D890A1
:1014900012361336003601360206D8A00306F2D7FC
:1014A0000350D4E10228D2E012AE11D07F0E121404
:1014B00002E113A00CD0132AE86A0022012207E3FC
:1014C000D880013200321332022A0228BFE00250D3
:1014D000C9E013C005F000C006F00134076E023009
:1014E000086E0732089E0FBE088E25EF0AF00736F9
:1014F000083602E30F840F7E06E10F80086A076A50
:10150000066A056A1200082803E0D8800732120034
:10151000D890073202E10F8212000F8612000C36BB
:101520000D3602E30F8C0F7E06E10F880D6A0C6A00
:101530000B6A0A6A12000D2803E0D8800C321200F0
:0A154000D8900C32EAE10F8A120085
:06154A0095988388959A34
:10155000838A94969488949A928A1200D9CFE6FF4F
:10156000E1CFD9FF030EE126DE6ADD6A020EDB6AF7
:10157000DBCF14F0100EE76E1418E8AE02D0E7349B
:1015800002D0E750145C14E282968286D9CFE9FF3C
:10159000DACFEAFF010ED890EE36ED36E806FBE131
:1015A0008250100B01E0010EDF12020EDB2AE0D7A1
:1015B000DECF14F0DDCF15F014C0F3FF15C0F4FF3B
:1015C000030EE15C03E200D0E16AE552E16EE55210
:1015D000E7CFD9FF1200829A82968286828A82A8F9
:1015E000FED712008296829A120002C1F3FF03C155
:1015F000F4FF00D012000FEC0EF0EDDF1C6A1D6A44
:10160000A00E1E6E400E1F6E1CC0E6FF1DC0E6FF42
:101610001EC0E6FF1FC0E6FFA1DFE552E7CF1FF0C7
:10162000E552E7CF1EF0E552E7CF1DF0E552E7CFD8
:101630001CF0F3CF24F0F4CF25F024C006F025C031
:1016400007F01BEC09F005C020F006C021F007C030
:1016500022F008C023F020C00AF021C00BF022C005
:101660000CF023C00DF01CC005F01DC006F01EC01C
:1016700007F01FC008F083EC09F005C018F006C0A1
:1016800019F007C01AF008C01BF00A6A0B687F0E39
:101690000C6E470E0D6E18C005F019C006F01AC08A
:1016A00007F01BC008F030EC09F005C014F006C0CC
:1016B00015F007C016F008C017F00A6A0B6A7A0E18
:1016C0000C6E440E0D6E14C005F015C006F016C069
:1016D00007F017C008F083EC09F0F0EC09F006C041
:1016E00000F107C001F11C6A1D6AA00E1E6E400EBB
:1016F0001F6E1CC0E6FF1DC0E6FF1EC0E6FF1FC038
:10170000E6FF2CDFE552E7CF1FF0E552E7CF1EF0F2
:10171000E552E7CF1DF0E552E7CF1CF0F3CF24F000
:10172000F4CF25F024C006F025C007F01BEC09F02B
:1017300005C020F006C021F007C022F008C023F049
:1017400020C00AF021C00BF022C00CF023C00DF025
:101750001CC005F01DC006F01EC007F01FC008F039
:1017600083EC09F005C018F006C019F007C01AF0A4
:1017700008C01BF00A6A0B687F0E0C6E470E0D6ED8
:1017800018C005F019C006F01AC007F01BC008F019
:1017900030EC09F005C014F006C015F007C016F0D3
:1017A00008C017F00A6A0B6A7A0E0C6E440E0D6EB2
:1017B00014C005F015C006F016C007F017C008F0F9
:1017C00083EC09F0F0EC09F006C002F107C003F168
:1017D000F2EF0AF000C1F3FF01C1F4FF00D01200E4
:1017E0000001B16BB1C0B0F01200D9CFE6FFE1CF7C
:1017F000D9FFE652B0C0E9FFEA6AE9BEEA68B20E74
:10180000E926000EEA22EFCFDFFF0001B02B1F0E0A
:10181000B015B06FDF5000D0E552E552E7CFD9FFE9
:101820001200D9CFE6FFE1CFD9FF020EE126000179
:10183000B151E76EB019E8AE02D0B03503D0E75031
:10184000D880B0550BE3B051B15D146E156A14BE6B
:10185000156814C0DEFF15C0DDFF17D0B051E76E6C
:10186000B119E8AE02D0E73402D0E750B15D0DE225
:10187000200E166EB151B05D165C146E156A14BE62
:10188000156814C0DEFF15C0DDFFDECF14F0DDCF1C
:1018900015F014C0F3FF15C0F4FF020EE15C03E283
:1018A00000D0E16AE552E16EE552E7CFD9FF1200C0
:1018B000200EF36EF46A00D012000001B151B05D49
:1018C00005E1010EF36EF46A04D003D0F36AF46A02
:1018D00000D012000001B1291F0BB05D05E1010E1F
:1018E000F36EF46A04D003D0F36AF46A00D01200F5
:1018F000D9CFE6FFE1CFD9FFB1C0E9FFEA6AE9BE7F
:10190000EA68B20EE926000EEA22FE0EDBCFEFFFF8
:101910000001B12B1F0EB115B16FE552E7CFD9FF12
:021920001200B3
:0E1922000001D36BD3C0D2F01200D9CFE6FF84
:10193000E1CFD9FFE652D2C0E9FFEA6AE9BEEA6820
:10194000D40EE926000EEA22EFCFDFFF0001D22BF2
:101950001F0ED215D26FDF5000D0E552E552E7CF0F
:10196000D9FF1200D9CFE6FFE1CFD9FF020EE12661
:101970000001D351E76ED219E8AE02D0D23503D0C0
:10198000E750D880D2550BE3D251D35D146E156A5F
:1019900014BE156814C0DEFF15C0DDFF17D0D2518C
:1019A000E76ED319E8AE02D0E73402D0E750D35D3A
:1019B0000DE2200E166ED351D25D165C146E156AC0
:1019C00014BE156814C0DEFF15C0DDFFDECF14F0B5
:1019D000DDCF15F014C0F3FF15C0F4FF020EE15C7B
:1019E00003E200D0E16AE552E16EE552E7CFD9FFAC
:1019F0001200200EF36EF46A00D012000001D351E1
:101A0000D25D05E1010EF36EF46A04D003D0F36AEF
:101A1000F46A00D012000001D3291F0BD25D05E14A
:101A2000010EF36EF46A04D003D0F36AF46A00D0B6
:101A30001200D9CFE6FFE1CFD9FFD3C0E9FFEA6AB0
:101A4000E9BEEA68D40EE926000EEA22FE0EDBCFDC
:101A5000EFFF0001D32B1F0ED315D36FE552E7CF55
:041A6000D9FF120098
:0C1A6400D9CFE6FFE1CFD9FF040EE12648
:101A7000FD0EDBCF14F0FE0EDBCF15F0000E1416BA
:101A8000FF0E1516020E14C0DBFF030E15C0DBFFA0
:101A9000020EDBCF14F0030EDBCF15F015C014F0EF
:101AA000156A020E14C0DBFF030E15C0DBFF020E29
:101AB000DB50DF6EFF0EE76EFD0EDBCF14F0FE0E87
:101AC000DBCF15F0E7501416156A020E14C0DBFFC9
:101AD000030E15C0DBFF020EDB50E76E010EE7CFF1
:101AE000DBFFD9CF14F0DACF15F014C0F3FF15C027
:101AF000F4FF040EE15C03E200D0E16AE552E16E1E
:101B0000E552E7CFD9FF1200D9CFE6FFE1CFD9FFE9
:101B1000020EE126FE0EDBCF14F0156A14BE156826
:101B200014C0DEFF15C0DDFFDECF14F0DDCF15F0F1
:101B300014C015F0146A14C0DEFF15C0DDFFFD0EE1
:101B4000DBCF14F0156A14BE1568D9CFE9FFDACFE0
:101B5000EAFF1450EE121550ED12DECF14F0DDCF77
:101B600015F014C0F3FF15C0F4FF020EE15C03E2B0
:101B700000D0E16AE552E16EE552E7CFD9FF1200ED
:101B8000060EF66E000EF76E000EF86E00010900EC
:101B9000F550F96F0900F550FA6F03E1F96701D0CC
:101BA0003DD00900F550F46F0900F550F56F0900BC
:101BB000F550F66F09000900F550E96E0900F5507F
:101BC000EA6E090009000900F550F76F0900F550A9
:101BD000F86F09000900F6CFFBF0F7CFFCF0F8CF63
:101BE000FDF0F4C0F6FFF5C0F7FFF6C0F8FF000106
:101BF000F75302E1F85307E00900F550EE6EF707DE
:101C0000F8E2F807F9D7FBC0F6FFFCC0F7FFFDC00C
:0E1C1000F8FF0001F907000EFA5BBFD71200C3
:021C1E00F10EC5
:101C2000CD6EFD0ECF6E110ECE6E9E909D80120079
:101C3000810EB16EB368050EB26EA192A082120041
:101C4000000EF36E00EE00F0060E01D81200EA60FE
:101C500002D0EE6AFCD7F350E9601200EE6AFCD7BE
:101C600015EE00F025EE00F0F86A0F9CC0EC0DF0C8
:0C1C70003EEC0EF063EC04F0FBD7120019
:021C7C00120054
:020000040030CA
:0100010002FC
:010003001EDE
:00000001FF
