:020000040000FA
:06000000BFEF0EF012003C
:020006000000F8
:06000800D5EF03F0120029
:02000E00D9CF48
:10001000E6FFE1CFD9FF020EE126FD0EDBCFE9FFBF
:10002000FE0EDBCFEAFF010EEFCFDBFFDF6EDFCF8F
:1000300026F00D0EE76E2618E8AE02D0E73402D0A7
:10004000E750265C17E2DFCF26F0276A26BE276836
:10005000FD0EDB502624E96EFE0EDB502720EA6EF3
:10006000010EDBCFE7FFEF50E71A010EE7CFDBFF12
:10007000DF2ADDD7010EDB50266E020EE15C03E2C3
:1000800000D0E16AE552E16E2650E552E7CFD9FF94
:100090001200D9CFE6FFE1CFD9FF120EE126160EEE
:1000A000DF6EDE52550EDD6EF20EDB50E76E020E95
:1000B000E7CFDBFFF30EDB50E76E030EE7CFDBFF8E
:1000C000F40EDB50E76E040EE7CFDBFFF50EDBCF5F
:1000D000E6FFF60EDBCFE6FFD2EC0DF0E552E5527F
:1000E000100EF3CFDBFF110EF4CFDBFF100EDBCFD2
:1000F000E9FF110EDBCFEAFF050EEFCFDBFF010EAC
:10010000E76E100EDBCFE9FF110EDBCFEAFFE75001
:10011000E926000EEA22060EEFCFDBFFF50EDBCF5D
:10012000E6FFF60EDBCFE6FFD2EC0DF0E552E5522E
:10013000100EF3CFDBFF110EF4CFDBFF100EDBCF81
:10014000E9FF110EDBCFEAFF070EEFCFDBFF010E59
:10015000E76E100EDBCFE9FF110EDBCFEAFFE750B1
:10016000E926000EEA22080EEFCFDBFFF70EDBCF09
:10017000E6FFF80EDBCFE6FFD2EC0DF0E552E552DC
:10018000100EF3CFDBFF110EF4CFDBFF100EDBCF31
:10019000E9FF110EDBCFEAFF090EEFCFDBFF010E07
:1001A000E76E100EDBCFE9FF110EDBCFEAFFE75061
:1001B000E926000EEA220A0EEFCFDBFFF90EDBCFB5
:1001C000E6FFFA0EDBCFE6FFD2EC0DF0E552E5528A
:1001D000100EF3CFDBFF110EF4CFDBFF100EDBCFE1
:1001E000E9FF110EDBCFEAFF0B0EEFCFDBFF010EB5
:1001F000E76E100EDBCFE9FF110EDBCFEAFFE75011
:10020000E926000EEA220C0EEFCFDBFFFB0EDBCF60
:10021000E6FFFC0EDBCFE6FFD2EC0DF0E552E55237
:10022000100EF3CFDBFF110EF4CFDBFF100EDBCF90
:10023000E9FF110EDBCFEAFF0D0EEFCFDBFF010E62
:10024000E76E100EDBCFE9FF110EDBCFEAFFE750C0
:10025000E926000EEA220E0EEFCFDBFFD950020F87
:10026000E66E000EDA20E66ED2DEE552E552E76E6B
:100270000F0EE7CFDBFFD9CFE9FFDACFEAFFEECFF2
:1002800026F0EECF27F0EECF28F0EECF29F0EECF1C
:100290002AF0EECF2BF0EECF2CF0EECF2DF0EECFFC
:1002A0002EF0EECF2FF0EECF30F0EECF31F0EECFDC
:1002B00032F0EECF33F0EECF34F0EFCF35F0D9CFD0
:1002C000E9FFDACFEAFFED50ED5035C0EDFF34C065
:1002D000EDFF33C0EDFF32C0EDFF31C0EDFF30C0A8
:1002E000EDFF2FC0EDFF2EC0EDFF2DC0EDFF2CC0A8
:1002F000EDFF2BC0EDFF2AC0EDFF29C0EDFF28C0A8
:10030000EDFF27C0EDFF26C0EFFF120EE15C03E218
:1003100000D0E16AE552E16EE552E7CFD9FF120065
:10032000D9CFE6FFE1CFD9FF0D0EE126F10EDB506C
:10033000DF6EF20EDB50E76E010EE7CFDBFFF30E50
:10034000DB50E76E020EE7CFDBFFF50EDBCFE6FFFB
:10035000F40EDBCFE6FF24EC0EF0E552E552030E7F
:10036000F3CFDBFF040EF4CFDBFFF70EDBCFE6FFAE
:10037000F60EDBCFE6FF24EC0EF0E552E552050E5B
:10038000F3CFDBFF060EF4CFDBFFF90EDBCFE6FF8A
:10039000F80EDBCFE6FF24EC0EF0E552E552070E37
:1003A000F3CFDBFF080EF4CFDBFFFB0EDBCFE6FF66
:1003B000FA0EDBCFE6FF24EC0EF0E552E552090E13
:1003C000F3CFDBFF0A0EF4CFDBFFFD0EDBCFE6FF42
:1003D000FC0EDBCFE6FF24EC0EF0E552E5520B0EEF
:1003E000F3CFDBFF0C0EF4CFDBFFD9CFE9FFDACF81
:1003F000EAFFEECF26F0EECF27F0EECF28F0EECFDB
:1004000029F0EECF2AF0EECF2BF0EECF2CF0EECF8E
:100410002DF0EECF2EF0EECF2FF0EECF30F0EECF6E
:1004200031F0EFCF32F0D9CFE9FFDACFEAFFED506C
:10043000ED5032C0EDFF31C0EDFF30C0EDFF2FC0F9
:10044000EDFF2EC0EDFF2DC0EDFF2CC0EDFF2BC04A
:10045000EDFF2AC0EDFF29C0EDFF28C0EDFF27C04A
:10046000EDFF26C0EFFF0D0EE15C03E200D0E16A74
:10047000E552E16EE552E7CFD9FF1200D9CFE6FF92
:10048000E1CFD9FF120EE126FD0EDBCFE6FFFE0E17
:10049000DBCFE6FF44EC09F0E552E552DF6EFD0EDE
:1004A000DBCFE6FFFE0EDBCFE6FF44EC09F0E552C2
:1004B000E552E76E010EE7CFDBFF100EDB6ADBCF04
:1004C00026F00D0EE76E2618E8AE02D0E73402D013
:1004D000E750265C22E2FD0EDBCFE6FFFE0EDBCF0F
:1004E000E6FF44EC09F0E552E552E66ED950020F02
:1004F000266EDACF27F0100EDBCF28F0296A28BE4F
:10050000296826502824E96E27502920EA6EE552F2
:10051000E750EF6E100EDB2AD2D7FD0EDBCFE6FFE1
:10052000FE0EDBCFE6FF44EC09F0E552E552E76E44
:100530000F0EE7CFDBFFD9CFE9FFDACFEAFFEECF2F
:1005400026F0EECF27F0EECF28F0EECF29F0EECF59
:100550002AF0EECF2BF0EECF2CF0EECF2DF0EECF39
:100560002EF0EECF2FF0EECF30F0EECF31F0EECF19
:1005700032F0EECF33F0EECF34F0EFCF35F0D9CF0D
:10058000E9FFDACFEAFFED50ED5035C0EDFF34C0A2
:10059000EDFF33C0EDFF32C0EDFF31C0EDFF30C0E5
:1005A000EDFF2FC0EDFF2EC0EDFF2DC0EDFF2CC0E5
:1005B000EDFF2BC0EDFF2AC0EDFF29C0EDFF28C0E5
:1005C000EDFF27C0EDFF26C0EFFF120EE15C03E256
:1005D00000D0E16AE552E16EE552E7CFD9FF1200A3
:1005E000D9CFE6FFE1CFD9FF130EE126160EF36E49
:1005F000030EF3CFDBFFFE0EDB50E76E040EE7CFFA
:10060000DBFFFC0EDBCFE6FFFD0EDBCFE6FFD2EC1F
:100610000DF0E552E552F3CFDEFFF4CFDDFFDECF84
:10062000E9FFDDCFEAFF050EEFCFDBFFDECFE9FF0D
:10063000DDCFEAFF010EE926000EEA22060EEFCF1B
:10064000DBFFFA0EDBCFE6FFFB0EDBCFE6FFD2ECE3
:100650000DF0E552E552F3CFDEFFF4CFDDFFDECF44
:10066000E9FFDDCFEAFF070EEFCFDBFFDECFE9FFCB
:10067000DDCFEAFF010EE926000EEA22080EEFCFD9
:10068000DBFF040EF36E020EF3CFDBFFDBCF26F0B1
:100690000D0EE76E2618E8AE02D0E73402D0E75020
:1006A000265C15E2D950050F266EDACF27F0020E30
:1006B000DBCF28F0296A28BE296826502824E96E55
:1006C00027502920EA6EEF6A020EDB2ADFD7D950C5
:1006D000050FE66E000EDA20E66E99DCE552E55273
:1006E000E76E120EE7CFDBFF030EDBCF26F0040E22
:1006F000DBCF27F0050EDBCF28F0060EDBCF29F08D
:10070000070EDBCF2AF0080EDBCF2BF0090EDBCF74
:100710002CF00A0EDBCF2DF00B0EDBCF2EF00C0EE3
:10072000DBCF2FF00D0EDBCF30F00E0EDBCF31F034
:100730000F0EDBCF32F0100EDBCF33F0110EDBCF1C
:1007400034F0120EDBCF35F0D9CFE9FFDACFEAFF74
:10075000ED50ED5035C0EDFF34C0EDFF33C0EDFF7F
:1007600032C0EDFF31C0EDFF30C0EDFF2FC0EDFF17
:100770002EC0EDFF2DC0EDFF2CC0EDFF2BC0EDFF17
:100780002AC0EDFF29C0EDFF28C0EDFF27C0EDFF17
:1007900026C0EFFF130EE15C03E200D0E16AE552F0
:0A07A000E16EE552E7CFD9FF120029
:0607AA00DACFE4FFE2CF0C
:1007B000DAFFE9CFE4FFEACFE4FFF6CFE4FFF7CFBB
:1007C000E4FFF5CFE4FFF3CFE4FFF4CFE4FFFACF8B
:1007D000E4FF00EE00F0140EE80403E3EECFE4FFC4
:1007E000FBD700EE26F0120EE80403E3EECFE4FFA1
:1007F000FBD7E6529EA05AD0800EE66E000EE66E43
:100800000B0EE126050EE66EE66A020EE66EE66A5D
:10081000010EE66EF0EC02F0EECF14F0EECF15F024
:10082000EECF16F0EECF17F0EECF18F0EECF19F0B6
:10083000EECF1AF0EECF1BF0EECF1CF0EECF1DF096
:10084000EECF1EF0EECF1FF0EECF20F0EECF21F076
:10085000EECF22F0EECF23F0246E100EE15E245096
:1008600014C0E6FF15C0E6FF16C0E6FF17C0E6FF9E
:1008700018C0E6FF19C0E6FF1AC0E6FF1BC0E6FF7E
:100880001CC0E6FF1DC0E6FF1EC0E6FF1FC0E6FF5E
:1008900020C0E6FF21C0E6FF22C0E6FF23C0E6FF3E
:1008A000F4EC08F0256E120EE15E25509EAA0FD0E2
:1008B000AE50E66EA20EE66E000EE66EE1EC0AF0B9
:1008C000E552E552E552010E0001E56FE66B9EA888
:1008D0001AD0800EE66E000EE66E9CEC0AF0E55231
:1008E000E552F3CF14F0F4CF15F01450151002E0D8
:1008F0009D9809D0800EE66E000EE66E44EC09F07D
:10090000E552E552AD6EE55200EE37F0120EE80406
:1009100003E3E5CFEDFFFBD700EE13F0140EE80480
:1009200003E3E5CFEDFFFBD7E5CFFAFFE5CFF4FF1B
:10093000E5CFF3FFE5CFF5FFE5CFF7FFE5CFF6FF16
:10094000E5CFEAFFE5CFE9FFE5CFDAFF110022ECC2
:1009500007F0A20EE66E000EE66E2CEC09F0E552F2
:10096000E552800EE66E000EE66E2CEC09F0E552C4
:10097000E5520001E56BE66B0001E551E61101E18E
:10098000FBD7010EE51901E1E65101E057D1A20EB6
:10099000E66E000EE66E84EC09F0E552E552F3CF08
:1009A00026F0F4CF27F0100E261801E1275001E0C1
:1009B00044D10E0EE126A20EE66E000EE66EB4ECF9
:1009C00007F0EECFC4F0EECFC5F0EECFC6F0EECF1D
:1009D000C7F0EECFC8F0EECFC9F0EECFCAF0EECF41
:1009E000CBF0EECFCCF0EECFCDF0EECFCEF0EECF21
:1009F000CFF0EECFD0F0EECFD1F0EECFD2F0EECF01
:100A0000D3F0266E100EE15E26500001C45101E1C4
:100A100014D1550EC55D41E1C4C0E6FFC5C0E6FF77
:100A2000C6C0E6FFC7C0E6FFC8C0E6FFC9C0E6FF14
:100A3000CAC0E6FFCBC0E6FFCCC0E6FFCDC0E6FFF4
:100A4000CEC0E6FFCFC0E6FFD0C0E6FFD1C0E6FFD4
:100A5000D2C0E6FFD3C0E6FF90EC01F0EECFD4F0B9
:100A6000EECFD5F0EECFD6F0EECFD7F0EECFD8F078
:100A7000EECFD9F0EECFDAF0EECFDBF0EECFDCF058
:100A8000EECFDDF0EECFDEF0EECFDFF0EECFE0F038
:100A9000266E100EE15E2650D0D0490EC55D6DE188
:100AA000800EE66E000EE66E030EE126D4C0E6FF71
:100AB000D5C0E6FFD6C0E6FFD7C0E6FFD8C0E6FF48
:100AC000D9C0E6FFDAC0E6FFDBC0E6FFDCC0E6FF28
:100AD000DDC0E6FFDEC0E6FFDFC0E6FFE0C0E6FF08
:100AE00049EC00F0EECF26F0EECF27F0EECF28F065
:100AF000EECF29F0EECF2AF0EECF2BF0EECF2CF098
:100B0000EECF2DF0EECF2EF0EECF2FF0EECF30F077
:100B1000EECF31F0EECF32F0EECF33F0EECF34F057
:100B2000EECF35F0366E100EE15E365026C0E6FF91
:100B300027C0E6FF28C0E6FF29C0E6FF2AC0E6FF7F
:100B40002BC0E6FF2CC0E6FF2DC0E6FF2EC0E6FF5F
:100B50002FC0E6FF30C0E6FF31C0E6FF32C0E6FF3F
:100B600033C0E6FF34C0E6FF35C0E6FF52EC07F0C5
:100B7000376E120EE15E375060D0470EC55D5DE105
:100B8000800EE66E000EE66E0B0EE1262D0EE66E72
:100B9000E66AE668E668470EE66EF0EC02F0EECF35
:100BA00026F0EECF27F0EECF28F0EECF29F0EECFF3
:100BB0002AF0EECF2BF0EECF2CF0EECF2DF0EECFD3
:100BC0002EF0EECF2FF0EECF30F0EECF31F0EECFB3
:100BD00032F0EECF33F0EECF34F0EECF35F0366EAC
:100BE000100EE15E365026C0E6FF27C0E6FF28C0A3
:100BF000E6FF29C0E6FF2AC0E6FF2BC0E6FF2CC0B7
:100C0000E6FF2DC0E6FF2EC0E6FF2FC0E6FF30C096
:100C1000E6FF31C0E6FF32C0E6FF33C0E6FF34C076
:100C2000E6FF35C0E6FF52EC07F0376E120EE15ECC
:100C30003750020E0001E56FE66B02D1020EE51996
:100C400001E1E65101E0FCD0800EE66E000EE66E9A
:100C50000B0EE1262D0EE66EE66AE66EE668470E9E
:100C6000E66EF0EC02F0EECF26F0EECF27F0EECFFE
:100C700028F0EECF29F0EECF2AF0EECF2BF0EECF1A
:100C80002CF0EECF2DF0EECF2EF0EECF2FF0EECFFA
:100C900030F0EECF31F0EECF32F0EECF33F0EECFDA
:100CA00034F0EECF35F0366E100EE15E365026C0D1
:100CB000E6FF27C0E6FF28C0E6FF29C0E6FF2AC0FE
:100CC000E6FF2BC0E6FF2CC0E6FF2DC0E6FF2EC0DE
:100CD000E6FF2FC0E6FF30C0E6FF31C0E6FF32C0BE
:100CE000E6FF33C0E6FF34C0E6FF35C0E6FF52EC56
:100CF00007F0376E120EE15E3750A20EE66E000E60
:100D0000E66E84EC09F0E552E552F3CF26F0F4CF1D
:100D100027F0100E261801E1275001E091D00E0EA9
:100D2000E126A20EE66E000EE66EB4EC07F0EECF02
:100D3000C4F0EECFC5F0EECFC6F0EECFC7F0EECFE9
:100D4000C8F0EECFC9F0EECFCAF0EECFCBF0EECFC9
:100D5000CCF0EECFCDF0EECFCEF0EECFCFF0EECFA9
:100D6000D0F0EECFD1F0EECFD2F0EECFD3F0266EB2
:100D7000100EE15E26500001C45162E0620EC55DB6
:100D80005FE1800EE66E000EE66E0B0EE1262D0E84
:100D9000E66EE66A430EE66E230EE66E620EE66EC1
:100DA000F0EC02F0EECF26F0EECF27F0EECF28F0F9
:100DB000EECF29F0EECF2AF0EECF2BF0EECF2CF0D5
:100DC000EECF2DF0EECF2EF0EECF2FF0EECF30F0B5
:100DD000EECF31F0EECF32F0EECF33F0EECF34F095
:100DE000EECF35F0366E100EE15E365026C0E6FFCF
:100DF00027C0E6FF28C0E6FF29C0E6FF2AC0E6FFBD
:100E00002BC0E6FF2CC0E6FF2DC0E6FF2EC0E6FF9C
:100E10002FC0E6FF30C0E6FF31C0E6FF32C0E6FF7C
:100E200033C0E6FF34C0E6FF35C0E6FF52EC07F002
:100E3000376E120EE15E3750010E0001E56FE66B72
:040E40009BD512002C
:0C0E4400100EAF6E948C948EAC98AB8EA8
:100E5000AC8AAC84B886AB88D08E9F8A9F88F28E8D
:100E60009D8A1200D9CFE6FFE1CFD9FFFE0EDB50FD
:100E700047080CE0FE0EDB50490808E0FE0EDB5090
:100E8000620804E0FE0EDB50550805E1010EF36E2A
:100E9000F46A04D003D0F36AF46A00D0E552E7CFD5
:100EA000D9FF1200D9CFE6FFE1CFD9FFE652EF0E0E
:100EB000DBCFE6FFED0EDBCFE6FFEE0EDBCFE6FF8E
:100EC000E1EC0AF0E552E552E552F00EDBCFE6FF29
:100ED000ED0EDBCFE6FFEE0EDBCFE6FFE1EC0AF036
:100EE000E552E552E552DF6ADFCF26F00D0EE76EE0
:100EF0002618E8AE02D0E73402D0E750265C20E2A4
:100F0000D950F10F266EFF0EDA20276EDFCF28F0C2
:100F1000296A28BE296826502824E96E27502920EE
:100F2000EA6EEF50E66EED0EDBCFE6FFEE0EDBCFA6
:100F3000E6FFE1EC0AF0E552E552E552DF2AD4D7AC
:100F4000FE0EDBCFE6FFED0EDBCFE6FFEE0EDBCFD6
:100F5000E6FFE1EC0AF0E552E552E5529D88E552E4
:100F6000E552E7CFD9FF1200D9CFE6FFE1CFD9FF95
:100F7000110EE1260E0EE126FD0EDBCFE6FFFE0E82
:100F8000DBCFE6FF3EEC02F0EECF26F0EECF27F00F
:100F9000EECF28F0EECF29F0EECF2AF0EECF2BF0F7
:100FA000EECF2CF0EECF2DF0EECF2EF0EECF2FF0D7
:100FB000EECF30F0EECF31F0EECF32F0EECF33F0B7
:100FC000EECF34F0EECF35F0366E100EE15E3650D7
:100FD00026C0DFFF010E27C0DBFF020E28C0DBFFAB
:100FE000030E29C0DBFF040E2AC0DBFF050E2BC059
:100FF000DBFF060E2CC0DBFF070E2DC0DBFF080E4B
:101000002EC0DBFF090E2FC0DBFF0A0E30C0DBFF56
:101010000B0E31C0DBFF0C0E32C0DBFF0D0E33C0F8
:10102000DBFF0E0E34C0DBFF0F0E35C0DBFFD950E7
:10103000020FE66E000EDA20E66E07EC00F0E552D5
:10104000E552E76E100EE7CFDBFF010EDBCFE6FFC8
:1010500009DFE552F3CF26F0F4CF27F02650271012
:1010600056E0160EDF5C53E1100EDB50F36E0F0EF0
:10107000DB50F35C4CE1D9CFE9FFDACFEAFFEECFEA
:1010800026F0EECF27F0EECF28F0EECF29F0EECF0E
:101090002AF0EECF2BF0EECF2CF0EECF2DF0EECFEE
:1010A0002EF0EECF2FF0EECF30F0EECF31F0EECFCE
:1010B00032F0EECF33F0EECF34F0EFCF35F0D9CFC2
:1010C000E9FFDACFEAFFED50ED5035C0EDFF34C057
:1010D000EDFF33C0EDFF32C0EDFF31C0EDFF30C09A
:1010E000EDFF2FC0EDFF2EC0EDFF2DC0EDFF2CC09A
:1010F000EDFF2BC0EDFF2AC0EDFF29C0EDFF28C09A
:10110000EDFF27C0EDFF26C0EFFF4DD04CD0DF6ACA
:10111000D9CFE9FFDACFEAFFEECF26F0EECF27F006
:10112000EECF28F0EECF29F0EECF2AF0EECF2BF065
:10113000EECF2CF0EECF2DF0EECF2EF0EECF2FF045
:10114000EECF30F0EECF31F0EECF32F0EECF33F025
:10115000EECF34F0EFCF35F0D9CFE9FFDACFEAFFA9
:10116000ED50ED5035C0EDFF34C0EDFF33C0EDFF65
:1011700032C0EDFF31C0EDFF30C0EDFF2FC0EDFFFD
:101180002EC0EDFF2DC0EDFF2CC0EDFF2BC0EDFFFD
:101190002AC0EDFF29C0EDFF28C0EDFF27C0EDFFFD
:1011A00026C0EFFF00D0110EE15C02E2E16AE552D9
:1011B000E16EE552E7CFD9FF1200D9CFE6FFE1CFCC
:1011C000D9FFFE0EDBCFE6FFFC0EDBCFE6FFFD0E08
:1011D000DBCFE6FFE1EC0AF0E552E552E5529D88EF
:1011E000E552E7CFD9FF1200D9CFE6FFE1CFD9FF13
:1011F000E652DF6ADFCF26F0030EE76E2618E8AE70
:1012000002D0E73402D0E750265C20E2D950FB0F31
:10121000266EFF0EDA20276EDFCF28F0296A28BE5F
:10122000296826502824E96E27502920EA6EEF50BD
:10123000E66EF90EDBCFE6FFFA0EDBCFE6FFE1EC60
:101240000AF0E552E552E552DF2AD4D79D88E552EF
:08125000E552E7CFD9FF1200BF
:08125800D9CFE6FFE1CFD9FF79
:10126000FD0EDBCFE9FFFE0EDBCFEAFFEE52EF6AA9
:10127000FD0EDBCFE9FFFE0EDBCFEAFF000EEF6EC7
:10128000E552E7CFD9FF1200D9CFE6FFE1CFD9FF72
:10129000E652FD0EDBCFE9FFFE0EDBCFEAFF020ECA
:1012A000E926000EEA22E9CF26F0EACF27F0FD0E6C
:1012B000DBCFE9FFFE0EDBCFEAFFEFCF28F0296A94
:1012C00028BE296826502824E96E27502920EA6E76
:1012D000EFCFDFFFFD0EDBCFE9FFFE0EDBCFEAFF36
:1012E000EF2AEF501F0BE66EFD0EDBCFE9FFFE0E7F
:1012F000DBCFEAFFE552E750EF6EDF5000D0E5525A
:10130000E552E7CFD9FF1200D9CFE6FFE1CFD9FFF1
:10131000020EE126FD0EDBCFE9FFFE0EDBCFEAFF7A
:10132000EFCF26F0FD0EDBCFE9FFFE0EDBCFEAFFAD
:10133000EE52EF50E76E2618E8AE02D0263403D006
:10134000E750D88026541AE3FD0EDBCFE9FFFE0EEE
:10135000DBCFEAFFEE52EFCF28F0FD0EDBCFE9FF47
:10136000FE0EDBCFEAFFEF50285C266E276A26BE12
:10137000276826C0DEFF27C0DDFF3CD0FD0EDBCF97
:10138000E9FFFE0EDBCFEAFFEE52EFCF26F0FD0EB7
:10139000DBCFE9FFFE0EDBCFEAFFEF50E76E26184A
:1013A000E8AE02D0E73402D0E750265C23E2200EFC
:1013B000286EFD0EDBCFE9FFFE0EDBCFEAFFEFCF9D
:1013C00029F0FD0EDBCFE9FFFE0EDBCFEAFFEE5288
:1013D00029C009F0EFCF0EF0F6EC0BF0EFBE056C74
:1013E0000550285C266E276A26BE276826C0DEFFC9
:1013F00027C0DDFFFD0EDBCFE9FFFE0EDBCFEAFFEE
:10140000EFCF26F0FD0EDBCFE9FFFE0EDBCFEAFFCC
:10141000EE52EF50E76E2618E8AE02D0E73402D065
:10142000E750265C19E2FD0EDBCFE9FFFE0EDBCFB5
:10143000EAFFEE52EFCF28F0FD0EDBCFE9FFFE0E04
:10144000DBCFEAFFEF50285C266E276A26BE2768AE
:1014500026C0DEFF27C0DDFFFD0EDBCFE9FFFE0E5D
:10146000DBCFEAFFEE52EFCF26F0FD0EDBCFE9FF38
:10147000FE0EDBCFEAFFEF50E76E2618E8AE02D093
:10148000E73402D0E750265C23E2200E286EFD0EE2
:10149000DBCFE9FFFE0EDBCFEAFFEFCF29F0FD0E39
:1014A000DBCFE9FFFE0EDBCFEAFFEE5229C009F0E9
:1014B000EFCF0EF0F6EC0BF0EFBE056C0550285C9C
:1014C000266E276A26BE276826C0DEFF27C0DDFFFE
:1014D000FD0EDBCFE9FFFE0EDBCFEAFFEF50E66E3D
:1014E000FD0EDBCFE9FFFE0EDBCFEAFFEE52E55249
:1014F000E750EF6E02E0DE6ADD6ADECF26F0DDCF78
:1015000027F026C0F3FF27C0F4FF020EE15C03E2E0
:1015100000D0E16AE552E16EE552E7CFD9FF120053
:10152000D9CFE6FFE1CFD9FF200EF36EF46A00D0E9
:10153000E552E7CFD9FF1200D9CFE6FFE1CFD9FFBF
:10154000FD0EDBCFE9FFFE0EDBCFEAFFEFCF26F08B
:10155000FD0EDBCFE9FFFE0EDBCFEAFFEE52EF50D0
:10156000265C05E1010EF36EF46A04D003D0F36A41
:10157000F46A00D0E552E7CFD9FF1200D9CFE6FFD9
:10158000E1CFD9FFFD0EDBCFE9FFFE0EDBCFEAFF97
:10159000EE52EF281F0B266EFD0EDBCFE9FFFE0E8D
:1015A000DBCFEAFFEF50265C05E1010EF36EF46A33
:1015B00004D003D0F36AF46A00D0E552E7CFD9FF34
:1015C0001200D9CFE6FFE1CFD9FFFD0EDBCFE9FF57
:1015D000FE0EDBCFEAFF020EE926000EEA22E9CF7B
:1015E00026F0EACF27F0FD0EDBCFE9FFFE0EDBCFC2
:1015F000EAFFEE52EFCF28F0296A28BE296826506C
:101600002824E96E27502920EA6EFC0EDBCFEFFF7D
:10161000FD0EDBCFE9FFFE0EDBCFEAFFEE52EF2A35
:10162000EF501F0BE66EFD0EDBCFE9FFFE0EDBCFAA
:10163000EAFFEE52E552E750EF6EE552E7CFD9FFF1
:02164000120096
:0E164200019E08D0019E09AE05D0086C091E5D
:10165000E86A0922018E09C003F008C002F0136A8B
:10166000126A8E0E046E056A2CEF0CF0016A68ECAB
:101670000CF080EC0CF001B610EF0CF001A205D0DC
:1016800001BA10EF0CF017EF0CF001BA23EF0CF0D9
:1016900001A005D001B810EF0CF023EF0CF001B859
:1016A00017EF0CF0056A7F0E0A24046EE86A052223
:1016B0000F50045EE86A055A1A0E106E0A6A126A22
:1016C000136A026A036A0C50075E0D50085A0E50E6
:1016D000095A000E0A5A09E70C5007260D50082235
:1016E0000E500922000E0A2201D0128AD890073625
:1016F000083609360A36D8901236133602360336C3
:10170000102EE1D7095008100710D8A4128A2CEF28
:101710000CF0016A68EC0CF080EC0CF001B610EFF4
:101720000CF001A205D001B810EF0CF017EF0CF08F
:1017300001AA05D001B010EF0CF017EF0CF001B0CA
:1017400002D001A802D023EF0CF0056A0F500A2442
:10175000046EE86A05227E0E045EE86A055A126A83
:10176000136A026A036A0E500902F4CF03F0F3CF42
:1017700002F00D500902F3501326F4500222000E1D
:1017800003220E500802F3501326F4500222000EDA
:1017900003220C500902F3501226F4501322000EBB
:1017A000022203220D500802F3501226F450132295
:1017B000000E022203220E500702F3501226F450AC
:1017C0001322000E022203220C500802F4501226AB
:1017D000000E1322022203220D500702F45012269B
:1017E000000E1322022203222CEF0CF0006A0EAE30
:1017F000FCEF0BF00E6C001E09AE01EF0CF0096C53
:10180000001ECDEC0EF009BE0BEF0CF000AE000C8C
:10181000096C056C000C00BE08EF0CF00188FF0C91
:101820007F0E0A6EFF0E096E086E076E12007F0EA5
:1018300001BEFF0E0A6E02D07F0E0A6E800E096E88
:10184000086A076AF3D701AE04D0800E0A6E096AEF
:10185000F7D70A6A096AF4D703500210131012105E
:10186000F8E005BEF0D703BE0CD004500510EBE045
:10187000D89012361336023603360406D8A0050671
:10188000F2D70550D4E10428D2E012AE11D07F0E79
:10189000121402E113A00CD0132AE86A02220322D8
:1018A00007E3D880033202321332042A0428BFE04F
:1018B0000450C9E013C007F002C008F00334096EF9
:1018C00004300A6E09320A9E01BE0A8E16EF0CF031
:1018D00009360A3602E30184017E06E101800A6AC4
:1018E000096A086A076A12000A2803E0D8800932E8
:1018F0001200D890093202E1018212000186120022
:101900000E360F3602E3018C017E06E101880F6A74
:101910000E6A0D6A0C6A12000F2803E0D8800E329E
:0C1920001200D8900E32EAE1018A120099
:04192C00F10ECD6E7D
:10193000FE0ECF6E0B0ECE6E9D50E8B09E80E8A0DE
:101940009E909E50E8B09D80E8A09D9012009380EC
:10195000120095988388959A838A94969488949A8D
:10196000928A1200D9CFE6FFE1CFD9FF030EE1261C
:10197000DE6ADD6A020EDB6ADBCF26F0100EE76E50
:101980002618E8AE02D0E73402D0E750265C14E215
:1019900082968286D9CFE9FFDACFEAFF010ED8908E
:1019A000EE36ED36E806FBE18250100B01E0010E49
:1019B000DF12020EDB2AE0D7DECF26F0DDCF27F0E4
:1019C00026C0F3FF27C0F4FF030EE15C03E200D062
:1019D000E16AE552E16EE552E7CFD9FF1200829A43
:1019E00082968286828A82A8FED712008296829A86
:1019F0001200D9CFE6FFE1CFD9FF0C0EE12696DF2A
:101A0000EEDF2A6A2B6AA00E2C6E400E2D6E2AC0C5
:101A1000E6FF2BC0E6FF2CC0E6FF2DC0E6FFA2DFED
:101A2000E552E7CF2DF0E552E7CF2CF0E552E7CFB6
:101A30002BF0E552E7CF2AF0F3CF32F0F4CF33F0BA
:101A400032C008F033C009F021EC0BF007C02EF0D3
:101A500008C02FF009C030F00AC031F02EC00CF0E1
:101A60002FC00DF030C00EF031C00FF02AC007F0CB
:101A70002BC008F02CC009F02DC00AF089EC0BF047
:101A800007C026F008C027F009C028F00AC029F0D6
:101A90000C6A0D687F0E0E6E470E0F6E26C007F0A3
:101AA00027C008F028C009F029C00AF036EC0BF076
:101AB000080E07C0DBFF090E08C0DBFF0A0E09C0D5
:101AC000DBFF0B0E0AC0DBFF2A6A2B6AA00E2C6E0E
:101AD000400E2D6E2AC0E6FF2BC0E6FF2CC0E6FFAD
:101AE0002DC0E6FF3FDFE552E7CF2DF0E552E7CF0F
:101AF0002CF0E552E7CF2BF0E552E7CF2AF0F3CFF9
:101B000032F0F4CF33F032C008F033C009F021ECEA
:101B10000BF007C02EF008C02FF009C030F00AC04B
:101B200031F02EC00CF02FC00DF030C00EF031C0DF
:101B30000FF02AC007F02BC008F02CC009F02DC010
:101B40000AF089EC0BF007C026F008C027F009C0A6
:101B500028F00AC029F00C6A0D687F0E0E6E470E41
:101B60000F6E26C007F027C008F028C009F029C072
:101B70000AF036EC0BF0080E07C0DBFF090E08C0B8
:101B8000DBFF0A0E09C0DBFF0B0E0AC0DBFF2EDFF6
:101B90000C0EE15C02E2E16AE552E16EE552E7CF4C
:041BA000D9FF120057
:0C1BA400D9CFE6FFE1CFD9FF040EE12607
:101BB000FD0EDBCF26F0FE0EDBCF27F0000E261643
:101BC000FF0E2716020E26C0DBFF030E27C0DBFF29
:101BD000020EDBCF26F0030EDBCF27F027C026F066
:101BE000276A020E26C0DBFF030E27C0DBFF020EB2
:101BF000DB50DF6EFF0EE76EFD0EDBCF26F0FE0E34
:101C0000DBCF27F0E7502616276A020E26C0DBFF3F
:101C1000030E27C0DBFF020EDB50E76E010EE7CF9D
:101C2000DBFFD9CF26F0DACF27F026C0F3FF27C09D
:101C3000F4FF040EE15C03E200D0E16AE552E16EDC
:101C4000E552E7CFD9FF1200D9CFE6FFE1CFD9FFA8
:101C5000020EE126FE0EDBCF26F0276A26BE27689D
:101C600026C0DEFF27C0DDFFDECF26F0DDCF27F068
:101C700026C027F0266A26C0DEFF27C0DDFFFD0E46
:101C8000DBCF26F0276A26BE2768D9CFE9FFDACF57
:101C9000EAFF2650EE122750ED12DECF26F0DDCF00
:101CA00027F026C0F3FF27C0F4FF020EE15C03E239
:101CB00000D0E16AE552E16EE552E7CFD9FF1200AC
:101CC000060EF66E000EF76E000EF86E00010900AB
:101CD000F550ED6F0900F550EE6F03E1ED6701D0AF
:101CE0003DD00900F550E86F0900F550E96F090093
:101CF000F550EA6F09000900F550E96E0900F5504A
:101D0000EA6E090009000900F550EB6F0900F55073
:101D1000EC6F09000900F6CFEFF0F7CFF0F0F8CF45
:101D2000F1F0E8C0F6FFE9C0F7FFEAC0F8FF0001F4
:101D3000EB5302E1EC5307E00900F550EE6EEB07C0
:101D4000F8E2EC07F9D7EFC0F6FFF0C0F7FFF1C0FB
:0E1D5000F8FF0001ED07000EEE5BBFD712009A
:021D5E00000E75
:101D6000F36E00EE00F0060E01D81200EA6002D019
:0E1D7000EE6AFCD7F350E9601200EE6AFCD771
:021D7E0015EE60
:101D800000F025EE00F0F86A019C60EC0EF0DBEC50
:0A1D90000EF0A7EC04F0FBD71200E0
:061D9A00056A080EE76E69
:101DA000D890093605360E50055C02E3056E092A07
:061DB000E72EF7D7120038
:021DB600120019
:020000040030CA
:0100010002FC
:010003001EDE
:00000001FF
