:020000040000FA
:060000006BEF03F012009B
:020006000000F8
:060008009BEF02F0120064
:02000E00030EDF
:10001000AF6E948C948EAB8EAC98AC8AAC84AB886B
:10002000D08E9F8A9F88F28E9D8A1200D9CFE6FFDC
:10003000E1CFD9FFE552E7CFD9FF1200D9CFE6FFD4
:10004000E1CFD9FF020EE126DF6ADFCF00F00D0E0F
:10005000E76E0018E8AE02D0E73402D0E750005C4B
:1000600017E2DFCF00F0016A00BE0168FD0EDB5031
:100070000024E96EFE0EDB500120EA6E010EDBCF9C
:10008000E7FFEF50E71A010EE7CFDBFFDF2ADDD7EE
:10009000010EDB50006E020EE15C03E200D0E16A6B
:1000A000E552E16E0050E552E7CFD9FF1200D9CFFB
:1000B000E6FFE1CFD9FFFE0EDB50550802E0000E4F
:1000C00001D0010E026EFE0EDB50620802E0000E4F
:1000D00001D0010E016EFE0EDB50490802E0000E59
:1000E00001D0010E006EFE0EDB50470802E0000E4C
:1000F00001D0010E00100110021005E0010EF36E98
:10010000F46A04D003D0F36AF46A00D0E552E7CF72
:10011000D9FF1200D9CFE6FFE1CFD9FF120EE126B9
:10012000FB0EDBCFE9FFFC0EDBCFEAFFE9CF00F0EF
:10013000EACF01F0FB0EDBCFE9FFFC0EDBCFEAFFDD
:10014000100EE926000EEA22EF50EF2A0F0B026E86
:10015000036A02BE036800500224E96E01500320C6
:10016000EA6EEFCFDFFFFB0EDBCFE9FFFC0EDBCF4C
:10017000EAFFE9CF00F0EACF01F0FB0EDBCFE9FFA9
:10018000FC0EDBCFEAFF100EE926000EEA22EF504C
:10019000EF2A0F0B026E036A02BE036800500224AE
:1001A000E96E01500320EA6E010EEFCFDBFF100E67
:1001B000DB6ADBCF00F00D0EE76E0018E8AE02D070
:1001C000E73402D0E750005C3AE2FB0EDBCFE9FFF8
:1001D000FC0EDBCFEAFFE9CF04F0EACF05F0FB0E1F
:1001E000DBCFE9FFFC0EDBCFEAFF100EE926000EA5
:1001F000EA22EF50EF2A0F0B066E076A06BE076869
:1002000004500624E96E05500720EA6EEF50E66EB2
:10021000D950020F006EDACF01F0100EDBCF02F0E2
:10022000036A02BE036800500224E96E01500320F5
:10023000EA6EE552E750EF6E100EDB2ABAD7FB0EDE
:10024000DBCFE9FFFC0EDBCFEAFFE9CF00F0EACF1E
:1002500001F0FB0EDBCFE9FFFC0EDBCFEAFF100E57
:10026000E926000EEA22EF50EF2A0F0B026E036A16
:1002700002BE036800500224E96E01500320EA6EBA
:100280000F0EEFCFDBFFD950020FE66E000EDA2023
:10029000E66ED4DEE552E552E76E110EE7CFDBFFE6
:1002A000010EDBCFE6FF03DFE552F3CF00F0F4CF22
:1002B00001F00050011044E0160EDF5C41E1110E28
:1002C000DB50F36E0F0EDB50F35C3AE1FD0EDBCF3B
:1002D000E9FFFE0EDBCFEAFFDFCFEEFF010EDBCF43
:1002E000EEFF020EDBCFEEFF030EDBCFEEFF040EC0
:1002F000DBCFEEFF050EDBCFEEFF060EDBCFEEFF12
:10030000070EDBCFEEFF080EDBCFEEFF090EDBCFD3
:10031000EEFF0A0EDBCFEEFF0B0EDBCFEEFF0C0E77
:10032000DBCFEEFF0D0EDBCFEEFF0E0EDBCFEEFFD1
:100330000F0EDBCFEEFF010EF36EF46A04D003D094
:10034000F36AF46A00D0120EE15C02E2E16AE5525F
:10035000E16EE552E7CFD9FF1200D9CFE6FFE1CF3A
:10036000D9FFE652FB0EDBCFE9FFFC0EDBCFEAFF45
:10037000E9CF00F0EACF01F0FB0EDBCFE9FFFC0E86
:10038000DBCFEAFF110EE926000EEA22EF50EF2A3A
:100390000F0B026E036A02BE036800500224E96E6E
:1003A00001500320EA6E160EEF6EFB0EDBCFE9FF65
:1003B000FC0EDBCFEAFFE9CF00F0EACF01F0FB0E45
:1003C000DBCFE9FFFC0EDBCFEAFF110EE926000EC2
:1003D000EA22EF50EF2A0F0B026E036A02BE036897
:1003E00000500224E96E01500320EA6E550EEF6EB4
:1003F000DF6ADFCF00F00D0EE76E0018E8AE02D026
:10040000E73402D0E750005C35E2DFCF04F0056A44
:1004100004BE0568FD0EDB500424E96EFE0EDB50C1
:100420000520EA6EEF50E66EFB0EDBCFE9FFFC0E17
:10043000DBCFEAFFE9CF00F0EACF01F0FB0EDBCF24
:10044000E9FFFC0EDBCFEAFF110EE926000EEA22DF
:10045000EF50EF2A0F0B026E036A02BE03680050D2
:100460000224E96E01500320EA6EE552E750EF6E78
:10047000DF2ABFD7FD0EDBCFE6FFFE0EDBCFE6FFA8
:10048000DDDDE552E552E66EFB0EDBCFE9FFFC0E4B
:10049000DBCFEAFFE9CF00F0EACF01F0FB0EDBCFC4
:1004A000E9FFFC0EDBCFEAFF110EE926000EEA227F
:1004B000EF50EF2A0F0B026E036A02BE0368005072
:1004C0000224E96E01500320EA6EE552E750EF6E18
:1004D0009D88E552E552E7CFD9FF1200D9CFE6FF5C
:1004E000E1CFD9FFFC0EDBCFE9FFFD0EDBCFEAFF4A
:1004F000E9CF00F0EACF01F0FC0EDBCFE9FFFD0E03
:10050000DBCFEAFF110EE926000EEA22EF50EF2AB8
:100510000F0B026E036A02BE036800500224E96EEC
:1005200001500320EA6EFE0EDBCFEFFF9D88E552FF
:06053000E7CFD9FF120025
:0A053600DACFE4FFE2CFDAFFE9CFED
:10054000E4FFEACFE4FFE6529EAA0ED00001A351D9
:10055000A32B0F0BE96EEA6AE9BEEA68920EE92660
:10056000000EEA22AECFEFFF9EA814D000019151F9
:1005700090190F0B02E19D980DD09051902B0F0B0D
:10058000E96EEA6AE9BEEA68800EE926000EEA2210
:10059000EF50AD6EE552E5CFEAFFE5CFE9FFE5CFDD
:1005A000DAFF110007EC00F00001A3290001A219F5
:1005B0000F0B2EE1920EE66E000EE66EA40EE66EB6
:1005C000000EE66E8AEC00F0E552E552E552E55287
:1005D000F3CF00F0F4CF01F0005001100FE0800ED7
:1005E000E66E000EE66EA60EE66E000EE66EADEC52
:1005F00001F0E552E552E552E5520AD0800EE66E72
:10060000000EE66EE66A6EEC02F0E552E552E55247
:08061000D38E0300C9D71200CC
:08061800060EF66E000EF76EEF
:10062000000EF86E00010900F550B96F0900F55091
:10063000BA6F03E1B96701D03DD00900F550B46F3E
:100640000900F550B56F0900F550B66F09000900B3
:10065000F550E96E0900F550EA6E0900090009003D
:10066000F550B76F0900F550B86F09000900F6CFD3
:10067000BBF0F7CFBCF0F8CFBDF0B4C0F6FFB5C00B
:10068000F7FFB6C0F8FF0001B75302E1B85307E027
:100690000900F550EE6EB707F8E2B807F9D7BBC00E
:1006A000F6FFBCC0F7FFBDC0F8FF0001B907000EA0
:0606B000BA5BBFD7120087
:0A06B600000EF36E00EE00F0060ED9
:1006C00001D81200EA6002D0EE6AFCD7F350E9606C
:0606D0001200EE6AFCD7E7
:0A06D60015EE00F025EE00F0F86AC2
:1006E000099C0CEC03F079EC03F0D2EC02F0FBD7A0
:0206F0001200F6
:0206F2001200F4
:020000040030CA
:0100010002FC
:010003001EDE
:00000001FF
