:020000040000FA
:0600000021EF0FF01200D9
:020006001200E6
:0600080014EF00F01200ED
:02000E000200EE
:100010008A1E0000000100001E0000006E1E00008D
:08002000E40000001C000000D8
:08002800DACFE4FFE2CFDAFFBA
:10003000E9CFE4FFEACFE4FFE6529EAA4BD0ABA2A1
:1000400014D0AB98AB880001A3291F0BA36FE96EF6
:10005000EA6AE9BEEA68A40EE926000EEA22AECFFB
:10006000EFFFA36BA3C0A2F035D00001A3291F0BA3
:10007000A36FE96EEA6AE9BEEA68A40EE926000EFB
:10008000EA22AECFEFFFA351E76EA219E8AE02D08D
:10009000A23503D0E750D880A25503E3A251A35D57
:1000A00005D0200E266EA351A25D265C0101106FC3
:1000B000116B800B01E011690001E151E2110AE1CD
:1000C0000101100E101901E1115104E1010E0001AE
:1000D000E16FE26BA1A204D00101010E1D6FA0929D
:1000E0009E50100B16E09D50100B13E00001815143
:1000F000805D02E19D980DD080291F0B806FE96E15
:10010000EA6AE9BEEA68820EE926000EEA22EF50AA
:10011000AD6EE552E5CFEAFFE5CFE9FFE5CFDAFFC7
:1001200011000101006B016B026B036BD1EC0AF053
:10013000E8EC07F044EC0DF00001A36BA3C0A2F0C3
:100140000001816B81C080F00001E16BE26B010175
:100150001D5101E10BD10101002B000E01230223EF
:10016000032312C114F113C115F116C118F117C1FF
:1001700019F1C4EC08F0000911E001011451151146
:100180000DE1010E0101126F136B00C104F101C1F9
:1001900005F102C106F103C107F103D00101126BA1
:1001A000136BDBC0E6FFDCC0E6FFD0EC08F0E552E5
:1001B000E552000911E00101185119110DE1010E7C
:1001C0000101166F176B00C108F101C109F102C1ED
:1001D0000AF103C10BF103D00101166B176BDBC0F1
:1001E000E6FFDCC0E6FF2FEC09F0E552E55200091E
:1001F00008E000C10CF101C10DF102C10EF103C113
:100200000FF100C1E6FF01C1E6FF02C1E6FF03C135
:10021000E6FFDFC0E6FFE0C0E6FFDBC0E6FFDCC0D4
:10022000E6FFCAEC09F0006E080EE15E0050DDC08A
:10023000E6FFDEC0E6FFDFC0E6FFE0C0E6FF0CC180
:10024000E6FF0DC1E6FF0EC1E6FF0FC1E6FF08C1E4
:10025000E6FF09C1E6FF0AC1E6FF0BC1E6FF04C1E4
:10026000E6FF05C1E6FF06C1E6FF07C1E6FF00C1E4
:10027000E6FF01C1E6FF02C1E6FF03C1E6FFEBECCA
:1002800007F0006E140EE15E0050D4C0E6FFD5C04A
:10029000E6FFD6C0E6FFD7C0E6FFD8C0E6FFD9C06C
:1002A000E6FFDAC0E6FFDBC0E6FFDCC0E6FFDDC04C
:1002B000E6FFDEC0E6FFDFC0E6FFE0C0E6FF96EC4B
:1002C00009F0006E0D0EE15E005001011A2B000EC8
:1002D0001B230101020E1A1901E11B5139E1000132
:1002E000020EE11901E1E25132E19AEC0DF0F7EC76
:1002F00008F0F3CF04F0F4CF05F004C0E6FF05C02A
:10030000E6FF94EC0DF0F3CF06F0F4CF07F006C053
:10031000E6FF07C0E6FFA3EC0CF0E552E552E5521C
:10032000E5521AC000F01BC001F01CC002F01DC055
:1003300003F000C0E6FF01C0E6FF02C0E6FF03C015
:10034000E6FF08EC0DF0E552E552E552E5520AD021
:100350000101020ED8801A55000E1B5503E201015F
:100360001A6B1B6B2FEC0FF001011D6B0001010ECE
:10037000E11901E1E25101E09BD10001A35100012B
:10038000E76EA219E8AE02D0A23503D0E750D880BC
:10039000A25505E30001A2510001A35D07D0200E84
:1003A000006E0001A3510001A25D005C0101106F0D
:1003B000116B800B01E011690101100E101901E1B0
:1003C000115101E074D1100EE12668EC0BF0EECF74
:1003D000C4F0EECFC5F0EECFC6F0EECFC7F0EECF53
:1003E000C8F0EECFC9F0EECFCAF0EECFCBF0EECF33
:1003F000CCF0EECFCDF0EECFCEF0EECFCFF0EECF13
:10040000D0F0EECFD1F0EECFD2F0EECFD3F0006E41
:10041000100EE15E00500001C45101E145D1550EBE
:100420000001C55D64E1C4C0E6FFC5C0E6FFC6C00B
:10043000E6FFC7C0E6FFC8C0E6FFC9C0E6FFCAC006
:10044000E6FFCBC0E6FFCCC0E6FFCDC0E6FFCEC0E6
:10045000E6FFCFC0E6FFD0C0E6FFD1C0E6FFD2C0C6
:10046000E6FFD3C0E6FF9EEC05F0EECFD4F0EECF72
:10047000D5F0EECFD6F0EECFD7F0EECFD8F0EECF6E
:10048000D9F0EECFDAF0EECFDBF0EECFDCF0EECF4E
:10049000DDF0EECFDEF0EECFDFF0EECFE0F0006E7D
:1004A000100EE15E0050D4C0E6FFD5C0E6FFD6C016
:1004B000E6FFD7C0E6FFD8C0E6FFD9C0E6FFDAC046
:1004C000E6FFDBC0E6FFDCC0E6FFDDC0E6FFDEC026
:1004D000E6FFDFC0E6FFE0C0E6FF96EC09F0006E45
:1004E0000D0EE15E00500001E16BE26BDCD0490EC5
:1004F0000001C55D6CE1030EE126D4C0E6FFD5C066
:10050000E6FFD6C0E6FFD7C0E6FFD8C0E6FFD9C0F9
:10051000E6FFDAC0E6FFDBC0E6FFDCC0E6FFDDC0D9
:10052000E6FFDEC0E6FFDFC0E6FFE0C0E6FF57EC17
:1005300004F0EECF00F0EECF01F0EECF02F0EECF00
:1005400003F0EECF04F0EECF05F0EECF06F0EECFE5
:1005500007F0EECF08F0EECF09F0EECF0AF0EECFC5
:100560000BF0EECF0CF0EECF0DF0EECF0EF0EECFA5
:100570000FF0106E100EE15E105000C0E6FF01C0DB
:10058000E6FF02C0E6FF03C0E6FF04C0E6FF05C0C9
:10059000E6FF06C0E6FF07C0E6FF08C0E6FF09C0A9
:1005A000E6FF0AC0E6FF0BC0E6FF0CC0E6FF0DC089
:1005B000E6FF0EC0E6FF0FC0E6FF02EC0BF0116E87
:1005C000100EE15E11500001E16BE26B6CD0470E42
:1005D0000001C55D68E10B0EE126F7EC08F0F3CFF2
:1005E00010F0F4CF11F010C0E6FF11C0E6FF94EC5C
:1005F0000DF0F3CF12F0F4CF13F012C0E6FF13C0EA
:10060000E6FF470EE66E03EC07F0EECF00F0EECF0C
:1006100001F0EECF02F0EECF03F0EECF04F0EECF1C
:1006200005F0EECF06F0EECF07F0EECF08F0EECFFC
:1006300009F0EECF0AF0EECF0BF0EECF0CF0EECFDC
:100640000DF0EECF0EF0EECF0FF0146E100EE15E57
:10065000145000C0E6FF01C0E6FF02C0E6FF03C081
:10066000E6FF04C0E6FF05C0E6FF06C0E6FF07C0E0
:10067000E6FF08C0E6FF09C0E6FF0AC0E6FF0BC0C0
:10068000E6FF0CC0E6FF0DC0E6FF0EC0E6FF0FC0A0
:10069000E6FF02EC0BF0156E100EE15E1550020E37
:1006A0000001E16FE26B03D00001E16BE26BB9D0B6
:1006B0000001020EE11901E1E25101E0B2D00001B6
:1006C000A3510001E76EA219E8AE02D0A23503D013
:1006D000E750D880A25505E30001A2510001A35DB7
:1006E00007D0200E006E0001A3510001A25D005C46
:1006F000100801E096D0100EE12668EC0BF0EECF6A
:10070000C4F0EECFC5F0EECFC6F0EECFC7F0EECF1F
:10071000C8F0EECFC9F0EECFCAF0EECFCBF0EECFFF
:10072000CCF0EECFCDF0EECFCEF0EECFCFF0EECFDF
:10073000D0F0EECFD1F0EECFD2F0EECFD3F0006E0E
:10074000100EE15E00500001C4516BE0620E00012A
:10075000C55D67E10B0EE126F7EC08F0F3CF10F072
:10076000F4CF11F010C0E6FF11C0E6FF94EC0DF0DD
:10077000F3CF12F0F4CF13F012C0E6FF13C0E6FF80
:10078000620EE66E03EC07F0EECF00F0EECF01F064
:10079000EECF02F0EECF03F0EECF04F0EECF05F097
:1007A000EECF06F0EECF07F0EECF08F0EECF09F077
:1007B000EECF0AF0EECF0BF0EECF0CF0EECF0DF057
:1007C000EECF0EF0EECF0FF0146E100EE15E14506F
:1007D00000C0E6FF01C0E6FF02C0E6FF03C0E6FF7F
:1007E00004C0E6FF05C0E6FF06C0E6FF07C0E6FF5F
:1007F00008C0E6FF09C0E6FF0AC0E6FF0BC0E6FF3F
:100800000CC0E6FF0DC0E6FF0EC0E6FF0FC0E6FF1E
:1008100002EC0BF0156E100EE15E15500001E16B5D
:0A082000E26BD38E030093D41200A4
:06082A00D9CFE6FFE1CF8B
:10083000D9FF020EE126FD0EDBCFE9FFFE0EDBCF76
:10084000EAFF010EEFCFDBFFDF6EDFCF00F00D0E12
:10085000E76E0018E8AE02D0E73402D0E750005C43
:1008600017E2DFCF00F0016A00BE0168FD0EDB5029
:100870000024E96EFE0EDB500120EA6E010EDBCF94
:10088000E7FFEF50E71A010EE7CFDBFFDF2ADDD7E6
:10089000010EDB50006E020EE15C03E200D0E16A63
:1008A000E552E16E0050E552E7CFD9FF1200D9CFF3
:1008B000E6FFE1CFD9FF120EE126160EDF6EDE5203
:1008C000550EDD6EF20EDB50E76E020EE7CFDBFF5A
:1008D000F30EDB50E76E030EE7CFDBFFF40EDB50C9
:1008E000E76E040EE7CFDBFFF50EDBCFE6FFF60E7B
:1008F000DBCFE6FFE9EC0DF0E552E552100EF3CF49
:10090000DBFF110EF4CFDBFF100EDBCFE9FF110E82
:10091000DBCFEAFF050EEFCFDBFF010EE76E100E17
:10092000DBCFE9FF110EDBCFEAFFE750E926000E2F
:10093000EA22060EEFCFDBFFF70EDBCFE6FFF80E65
:10094000DBCFE6FFE9EC0DF0E552E552100EF3CFF8
:10095000DBFF110EF4CFDBFF100EDBCFE9FF110E32
:10096000DBCFEAFF070EEFCFDBFF010EE76E100EC5
:10097000DBCFE9FF110EDBCFEAFFE750E926000EDF
:10098000EA22080EEFCFDBFFF90EDBCFE6FFFA0E0F
:10099000DBCFE6FFE9EC0DF0E552E552100EF3CFA8
:1009A000DBFF110EF4CFDBFF100EDBCFE9FF110EE2
:1009B000DBCFEAFF090EEFCFDBFF010EE76E100E73
:1009C000DBCFE9FF110EDBCFEAFFE750E926000E8F
:1009D000EA220A0EEFCFDBFFFB0EDBCFE6FFFC0EB9
:1009E000DBCFE6FFE9EC0DF0E552E552100EF3CF58
:1009F000DBFF110EF4CFDBFF100EDBCFE9FF110E92
:100A0000DBCFEAFF0B0EEFCFDBFF010EE76E100E20
:100A1000DBCFE9FF110EDBCFEAFFE750E926000E3E
:100A2000EA220C0EEFCFDBFFFD0EDBCFE6FFFE0E62
:100A3000DBCFE6FFE9EC0DF0E552E552100EF3CF07
:100A4000DBFF110EF4CFDBFF100EDBCFE9FF110E41
:100A5000DBCFEAFF0D0EEFCFDBFF010EE76E100ECE
:100A6000DBCFE9FF110EDBCFEAFFE750E926000EEE
:100A7000EA220E0EEFCFDBFFD950020FE66E000E1A
:100A8000DA20E66ED2DEE552E552E76E0F0EE7CFD2
:100A9000DBFFD9CFE9FFDACFEAFFEECF00F0EECFF0
:100AA00001F0EECF02F0EECF03F0EECF04F0EECF88
:100AB00005F0EECF06F0EECF07F0EECF08F0EECF68
:100AC00009F0EECF0AF0EECF0BF0EECF0CF0EECF48
:100AD0000DF0EECF0EF0EFCF0FF0D9CFE9FFDACF68
:100AE000EAFFED50ED500FC0EDFF0EC0EDFF0DC061
:100AF000EDFF0CC0EDFF0BC0EDFF0AC0EDFF09C01C
:100B0000EDFF08C0EDFF07C0EDFF06C0EDFF05C01B
:100B1000EDFF04C0EDFF03C0EDFF02C0EDFF01C01B
:100B2000EDFF00C0EFFF120EE15C03E200D0E16ACE
:100B3000E552E16EE552E7CFD9FF1200D9CFE6FFCB
:100B4000E1CFD9FF0D0EE126F10EDB50DF6EF20E84
:100B5000DB50E76E010EE7CFDBFFF30EDB50E76EF5
:100B6000020EE7CFDBFFF50EDBCFE6FFF40EDBCFA7
:100B7000E6FF3BEC0EF0E552E552030EF3CFDBFF50
:100B8000040EF4CFDBFFF70EDBCFE6FFF60EDBCF74
:100B9000E6FF3BEC0EF0E552E552050EF3CFDBFF2E
:100BA000060EF4CFDBFFF90EDBCFE6FFF80EDBCF4E
:100BB000E6FF3BEC0EF0E552E552070EF3CFDBFF0C
:100BC000080EF4CFDBFFFB0EDBCFE6FFFA0EDBCF28
:100BD000E6FF3BEC0EF0E552E552090EF3CFDBFFEA
:100BE0000A0EF4CFDBFFFD0EDBCFE6FFFC0EDBCF02
:100BF000E6FF3BEC0EF0E552E5520B0EF3CFDBFFC8
:100C00000C0EF4CFDBFFD9CFE9FFDACFEAFFEECF4E
:100C100000F0EECF01F0EECF02F0EECF03F0EECF1A
:100C200004F0EECF05F0EECF06F0EECF07F0EECFFA
:100C300008F0EECF09F0EECF0AF0EECF0BF0EFCFD9
:100C40000CF0D9CFE9FFDACFEAFFED50ED500CC040
:100C5000EDFF0BC0EDFF0AC0EDFF09C0EDFF08C0BE
:100C6000EDFF07C0EDFF06C0EDFF05C0EDFF04C0BE
:100C7000EDFF03C0EDFF02C0EDFF01C0EDFF00C0BE
:100C8000EFFF0D0EE15C03E200D0E16AE552E16E98
:100C9000E552E7CFD9FF1200D9CFE6FFE1CFD9FF68
:100CA000120EE1260001A2291F0BA26FE96EEA6A6B
:100CB000E9BEEA68A40EE926000EEA22EFCFDFFFC4
:100CC000A2291F0BA26FE96EEA6AE9BEEA68A40EC8
:100CD000E926000EEA22010EEFCFDBFF100EDB6AE1
:100CE000DBCF00F00D0EE76E0018E8AE02D0E7345F
:100CF00002D0E750005C24E2A2291F0BA26FE96E2C
:100D0000EA6AE9BEEA68A40EE926000EEA22EF507C
:100D1000E66ED950020F006EDACF01F0100EDBCF75
:100D200002F0036A02BE036800500224E96E01501B
:100D30000320EA6EE552E750EF6E100EDB2AD0D7A3
:100D4000A2291F0BA26FE96EEA6AE9BEEA68A40E47
:100D5000E926000EEA220F0EEFCFDBFFD9CFE9FF25
:100D6000DACFEAFFEECF00F0EECF01F0EECF02F0E7
:100D7000EECF03F0EECF04F0EECF05F0EECF06F0AD
:100D8000EECF07F0EECF08F0EECF09F0EECF0AF08D
:100D9000EECF0BF0EECF0CF0EECF0DF0EECF0EF06D
:100DA000EFCF0FF0D9CFE9FFDACFEAFFED50ED50EA
:100DB0000FC0EDFF0EC0EDFF0DC0EDFF0CC0EDFF4D
:100DC0000BC0EDFF0AC0EDFF09C0EDFF08C0EDFF4D
:100DD00007C0EDFF06C0EDFF05C0EDFF04C0EDFF4D
:100DE00003C0EDFF02C0EDFF01C0EDFF00C0EFFF4B
:100DF000120EE15C03E200D0E16AE552E16EE552D9
:100E0000E7CFD9FF1200D9CFE6FFE1CFD9FF130E0C
:100E1000E126160EF36E030EF3CFDBFFFE0EDB5062
:100E2000E76E040EE7CFDBFFFC0EDBCFE6FFFD0E27
:100E3000DBCFE6FFE9EC0DF0E552E552F3CFDEFF44
:100E4000F4CFDDFFDECFE9FFDDCFEAFF050EEFCF08
:100E5000DBFFDECFE9FFDDCFEAFF010EE926000E62
:100E6000EA22060EEFCFDBFFFA0EDBCFE6FFFB0E2A
:100E7000DBCFE6FFE9EC0DF0E552E552F3CFDEFF04
:100E8000F4CFDDFFDECFE9FFDDCFEAFF070EEFCFC6
:100E9000DBFFDECFE9FFDDCFEAFF010EE926000E22
:100EA000EA22080EEFCFDBFF040EF36E020EF3CF43
:100EB000DBFFDBCF00F00D0EE76E0018E8AE02D0CE
:100EC000E73402D0E750005C15E2D950050F006E00
:100ED000DACF01F0020EDBCF02F0036A02BE036834
:100EE00000500224E96E01500320EA6EEF6A020E00
:100EF000DB2ADFD7D950050FE66E000EDA20E66E4A
:100F000094DCE552E552E76E120EE7CFDBFF030EED
:100F1000DBCF00F0040EDBCF01F0050EDBCF02F0DB
:100F2000060EDBCF03F0070EDBCF04F0080EDBCF9D
:100F300005F0090EDBCF06F00A0EDBCF07F00B0E33
:100F4000DBCF08F00C0EDBCF09F00D0EDBCF0AF083
:100F50000E0EDBCF0BF00F0EDBCF0CF0100EDBCF45
:100F60000DF0110EDBCF0EF0120EDBCF0FF0D9CF4C
:100F7000E9FFDACFEAFFED50ED500FC0EDFF0EC0F4
:100F8000EDFF0DC0EDFF0CC0EDFF0BC0EDFF0AC083
:100F9000EDFF09C0EDFF08C0EDFF07C0EDFF06C083
:100FA000EDFF05C0EDFF04C0EDFF03C0EDFF02C083
:100FB000EDFF01C0EDFF00C0EFFF130EE15C03E2A7
:100FC00000D0E16AE552E16EE552E7CFD9FF1200A9
:100FD00093802FEF0FF0D9CFE6FFE1CFD9FFE6C026
:100FE000E7F0E4C0E5F08150010B0001E46FD95057
:100FF000F70FE96EFF0EDA20EA6ED880000EEE548D
:10100000000EEE54000EEE54000EEE5434E2FB0ED1
:10101000DBCF04F0FC0EDBCF05F0FD0EDBCF06F0DE
:10102000FE0EDBCF07F0D950F70FE96EFF0EDA2086
:10103000EA6EEE50045C006EEE500558016EEE5004
:101040000658026EEE500758036EED0EDBCF08F027
:10105000EE0EDBCF09F00A6A0B6A0050085C015003
:10106000095802500A5803500B5802E2000E01D0F2
:10107000010EE66F01D0E66BE8C0E9F0D950F30F3E
:10108000E96EFF0EDA20EA6ED880000EEE54000EF4
:10109000EE54000EEE54000EEE5434E2FB0EDBCFA5
:1010A00004F0FC0EDBCF05F0FD0EDBCF06F0FE0EEC
:1010B000DBCF07F0D950F30FE96EFF0EDA20EA6EAE
:1010C000EE50045C006EEE500558016EEE5006586E
:1010D000026EEE500758036EED0EDBCF08F0EE0EF9
:1010E000DBCF09F00A6A0B6A0050085C015009580E
:1010F00002500A5803500B5802E2000E01D0010EB4
:10110000E86F01D0E86BEAC0EBF0D950EF0FE96E61
:10111000FF0EDA20EA6ED880000EEE54000EEE5478
:10112000000EEE54000EEE542AE2EB0EDBCFE6FF8B
:10113000EC0EDBCFE6FFD950EF0FE96EFF0EDA20A1
:10114000EA6EEECFE6FFEECFE6FFEECFE6FFEFCFA3
:10115000E6FFD950FB0FE96EFF0EDA20EA6EEECF04
:10116000E6FFEECFE6FFEECFE6FFEFCFE6FF93D848
:10117000006E0A0EE15E00500001EA6F01D0EA6BDA
:10118000E552E7CFD9FF12000001E65106E1E55133
:1011900004E0E45102E0010E02D0000E00D0120083
:1011A000D9CFE6FFE1CFD9FF0001E85111E1EEC050
:1011B00000F0EFC001F0FD0EDB50001803E1FE0E61
:1011C000DB50011805E1F051F11102E1010E02D0EE
:1011D000000E00D0E552E7CFD9FF12000001E65122
:1011E000E81102E0010E02D0000E00D01200000152
:1011F000E65115E0E7510AE1530EE66E560EE66E33
:101200003BEC0EF0E552E55229D028D0290EE66ECF
:10121000280EE66E3BEC0EF0E552E5521FD0E85189
:1012200015E0E9510AE1500EE66E560EE66E3BEC13
:101230000EF0E552E55212D011D0290EE66E280EBE
:10124000E66E3BEC0EF0E552E55208D02D0EE66E50
:10125000E66E3BEC0EF0E552E55200D01200D9CF1D
:10126000E6FFE1CFD9FFEEC000F0EFC001F0FD0EC8
:10127000DB50001803E1FE0EDB50011806E100010F
:10128000F051F11102E1010E02D0000E00D0E55242
:10129000E7CFD9FF1200D9CFE6FFE1CFD9FFD95070
:1012A000F70FE96EFF0EDA20EA6ED880000EEE54DA
:1012B000000EEE54000EEE54000EEE5431E2FB0E22
:1012C000DBCF04F0FC0EDBCF05F0FD0EDBCF06F02C
:1012D000FE0EDBCF07F0D950F70FE96EFF0EDA20D4
:1012E000EA6EEE50045C006EEE500558016EEE5052
:1012F0000658026EEE500758036EF50EDBCF08F06D
:10130000F60EDBCF09F00A6A0B6A0050085C015048
:10131000095802500A5803500B5802E3010E02D03C
:10132000000E00D0E552E7CFD9FF1200D9CFE6FF7B
:10133000E1CFD9FF0001E7511FE1E6511DE0F40EB6
:10134000DB5013E0F50EDBCF00F0F60EDBCF01F043
:10135000F70EDB500001002401012C6FF80EDB506A
:101360000001012001012D6F06D0F70EDBCF2CF11B
:10137000F80EDBCF2DF10AD0E95108E1E85106E083
:10138000F70EDBCF2CF1F80EDBCF2DF1E552E7CFD6
:10139000D9FF1200D9CFE6FFE1CFD9FF040EE12635
:1013A000E4D8D950F70FE96EFF0EDA20EA6EEECFDF
:1013B000E6FFEECFE6FFEECFE6FFEFCFE6FFA3D8E6
:1013C000E552E552E552E552D950F70FE96EFF0EAE
:1013D000DA20EA6EEECFE6FFEECFE6FFEECFE6FFD5
:1013E000EFCFE6FFA9D8E552E552E552E552EEC04F
:1013F000F0F0EFC0F1F0ECC0EEF0EDC0EFF0D9503E
:10140000F70FE96EFF0EDA20EA6E0001F651EE5C8E
:10141000006EF751EE58016EF851EE58026EF95118
:10142000EE58036EFB0EDB5001012C5D0001046ED3
:10143000FC0EDB5001012D590001056E066A076A9A
:101440000050041809E10150051806E10250061881
:1014500003E10350071800E110E10001FE5108E12B
:10146000FF5106E1FD0EDBCFECF0FE0EDBCFEDF021
:10147000010EFF6FFFC0FEF035D0D950F70FE96EB7
:10148000FF0EDA20EA6E0001F651EE5C006EF751B5
:10149000EE58016EF851EE58026EF951EE58036E97
:1014A000FB0EDB5001012C5D0001046EFC0EDB50D5
:1014B00001012D590001056E066A076A00500418E3
:1014C00009E10150051806E10250061803E1035036
:1014D000071800E107E00001FC5101E1FE6BFA5141
:1014E00001E1FF6B0001EB5104E0EA5102E1EC6B1A
:1014F000ED6B040EE15C02E2E16AE552E16EE55259
:10150000E7CFD9FF1200D9CFE6FFE1CFD9FF000125
:10151000FA050EE1FB510CE1FB0EDBCFF2F0FC0E05
:10152000DBCFF3F0FD0EDBCFF4F0FE0EDBCFF5F0FA
:10153000E552E7CFD9FF1200D9CFE6FFE1CFD9FFBF
:101540000001FC050EE1FD510CE1FB0EDBCFF6F0D6
:10155000FC0EDBCFF7F0FD0EDBCFF8F0FE0EDBCF9D
:10156000F9F0E552E7CFD9FF1200FCC0FDF036DEFE
:10157000000904E10001EE51EF1102E0000E01D07C
:10158000010E0001FC6FFAC0FBF028DE000903E148
:101590000001E45102E0000E01D0010E0001FA6FDB
:0215A000120037
:0E15A200100EAF6E948C948EAC98AB8EAC8A0B
:1015B000AC84B886AB88D08E9F8A9F88F28E9D8A35
:1015C0009E981200D9CFE6FFE1CFD9FFFE0EDB5087
:1015D00047080CE0FE0EDB50490808E0FE0EDB5029
:1015E000620804E0FE0EDB50550805E1010EF36EC3
:1015F000F46A04D003D0F36AF46A00D0E552E7CF6E
:10160000D9FF1200D9CFE6FFE1CFD9FFE6520001A2
:1016100081291F0B816FE96EEA6AE9BEEA68820ED2
:10162000E926000EEA22EF0EDBCFEFFF81291F0B28
:10163000816FE96EEA6AE9BEEA68820EE926000E69
:10164000EA22F00EDBCFEFFFDF6ADFCF00F00D0EF6
:10165000E76E0018E8AE02D0E73402D0E750005C35
:1016600023E2D950F10F006EFF0EDA20016EDFCFBA
:1016700002F0036A02BE036800500224E96E0150C2
:101680000320EA6EEF50E66E81291F0B816FE96E31
:10169000EA6AE9BEEA68820EE926000EEA22E5520D
:1016A000E750EF6EDF2AD1D781291F0B816FE96EDA
:1016B000EA6AE9BEEA68820EE926000EEA22FE0E18
:1016C000DBCFEFFF9D88E552E552E7CFD9FF12004F
:1016D000D9CFE6FFE1CFD9FF110EE126100EE126AA
:1016E0004CEC06F0EECF00F0EECF01F0EECF02F0C2
:1016F000EECF03F0EECF04F0EECF05F0EECF06F024
:10170000EECF07F0EECF08F0EECF09F0EECF0AF003
:10171000EECF0BF0EECF0CF0EECF0DF0EECF0EF0E3
:10172000EECF0FF0106E100EE15E105000C0DFFF24
:10173000010E01C0DBFF020E02C0DBFF030E03C07F
:10174000DBFF040E04C0DBFF050E05C0DBFF060E49
:1017500006C0DBFF070E07C0DBFF080E08C0DBFF7B
:10176000090E09C0DBFF0A0E0AC0DBFF0B0E0BC01F
:10177000DBFF0C0E0CC0DBFF0D0E0DC0DBFF0E0EF1
:101780000EC0DBFF0F0E0FC0DBFFD950020FE66E5D
:10179000000EDA20E66E15EC04F0E552E552E76E35
:1017A000100EE7CFDBFF010EDBCFE6FF0BDFE552CC
:1017B000F3CF00F0F4CF01F00050011056E0160E08
:1017C000DF5C53E1100EDB50F36E0F0EDB50F35C69
:1017D0004CE1D9CFE9FFDACFEAFFEECF00F0EECF50
:1017E00001F0EECF02F0EECF03F0EECF04F0EECF3B
:1017F00005F0EECF06F0EECF07F0EECF08F0EECF1B
:1018000009F0EECF0AF0EECF0BF0EECF0CF0EECFFA
:101810000DF0EECF0EF0EFCF0FF0D9CFE9FFDACF1A
:10182000EAFFED50ED500FC0EDFF0EC0EDFF0DC013
:10183000EDFF0CC0EDFF0BC0EDFF0AC0EDFF09C0CE
:10184000EDFF08C0EDFF07C0EDFF06C0EDFF05C0CE
:10185000EDFF04C0EDFF03C0EDFF02C0EDFF01C0CE
:10186000EDFF00C0EFFF4DD04CD0DF6AD9CFE9FFCC
:10187000DACFEAFFEECF00F0EECF01F0EECF02F0CC
:10188000EECF03F0EECF04F0EECF05F0EECF06F092
:10189000EECF07F0EECF08F0EECF09F0EECF0AF072
:1018A000EECF0BF0EECF0CF0EECF0DF0EECF0EF052
:1018B000EFCF0FF0D9CFE9FFDACFEAFFED50ED50CF
:1018C0000FC0EDFF0EC0EDFF0DC0EDFF0CC0EDFF32
:1018D0000BC0EDFF0AC0EDFF09C0EDFF08C0EDFF32
:1018E00007C0EDFF06C0EDFF05C0EDFF04C0EDFF32
:1018F00003C0EDFF02C0EDFF01C0EDFF00C0EFFF30
:1019000000D0110EE15C02E2E16AE552E16EE552BF
:10191000E7CFD9FF1200D9CFE6FFE1CFD9FF000111
:1019200081291F0B816FE96EEA6AE9BEEA68820EBF
:10193000E926000EEA22FE0EDBCFEFFF9D88E5527E
:10194000E7CFD9FF1200D9CFE6FFE1CFD9FF060ECE
:10195000E126FD0EDBCFE6FFFE0EDBCFE6FFE9EC76
:101960000DF0E552E552F3CFDEFFF4CFDDFFDECF21
:10197000E9FFDDCFEAFF020EEFCFDBFFDECFE9FFAD
:10198000DDCFEAFF010EE926000EEA22030EEFCFBB
:10199000DBFFFB0EDBCFE6FFFC0EDBCFE6FFE9EC67
:1019A0000DF0E552E552F3CFDEFFF4CFDDFFDECFE1
:1019B000E9FFDDCFEAFF040EEFCFDBFFDECFE9FF6B
:1019C000DDCFEAFF010EE926000EEA22050EEFCF79
:1019D000DBFF020EDBCF00F0030EDBCF01F0040EC5
:1019E000DBCF02F0050EDBCF03F000C01AF001C020
:1019F0001BF002C01CF003C01DF0060EE15C03E208
:101A000000D0E16AE552E16EE552E7CFD9FF12005E
:101A1000D9CFE6FFE1CFD9FFE652DF6ADFCF00F092
:101A2000040EE76E0018E8AE02D0E73402D0E750AB
:101A3000005C24E2D950FB0F006EFF0EDA20016E2D
:101A4000DFCF02F0036A02BE036800500224E96E91
:101A500001500320EA6EEF50E66E000181291F0B52
:101A6000816FE96EEA6AE9BEEA68820EE926000E35
:101A7000EA22E552E750EF6EDF2AD0D79D88E55283
:081A8000E552E7CFD9FF120087
:081A880095988388959A838AE2
:101A900094969488949A928A1200D9CFE6FFE1CF67
:101AA000D9FF030EE126DE6ADD6A020EDB6ADBCFB8
:101AB00000F0100EE76E0018E8AE02D0E73402D056
:101AC000E750005C14E282968286D9CFE9FFDACF34
:101AD000EAFF010ED890EE36ED36E806FBE18250C3
:101AE000100B01E0010EDF12020EDB2AE0D7DECF81
:101AF00000F0DDCF01F000C0F3FF01C0F4FF030EE2
:101B0000E15C03E200D0E16AE552E16EE552E7CF25
:101B1000D9FF1200829A82968286828A82A8FED794
:101B200012008296829A12002AC1F3FF2BC1F4FFA1
:101B300000D01200D9CFE6FFE1CFD9FF040EE12695
:101B4000B190E8DFAADFF3CF00F0F4CF01F0000E90
:101B500000C0DFFF010E01C0DBFF020EDB6A030ED7
:101B6000DB6AD9CFE9FFDACFEAFFEECF1AF0EECF8A
:101B70001BF0EECF1CF0EFCF1DF0880E1F6E130E82
:101B8000206E216A226AB5EC0EF016C01AF017C05A
:101B90001BF018C01CF019C01DF01F682068216AD6
:101BA000226AEDEC0EF01AC02AF11BC02BF1B9DF4E
:101BB000B180040EE15C02E2E16AE552E16EE552B9
:101BC000E7CFD9FF120028C1F3FF29C1F4FF00D0ED
:021BD000120001
:0E1BD200D9CFE6FFE1CFD9FF040EE126FD0ECC
:101BE000DBCF00F0FE0EDBCF01F0000E0016FF0E83
:101BF0000116020E00C0DBFF030E01C0DBFF020E68
:101C0000DBCF00F0030EDBCF01F001C000F0016A72
:101C1000020E00C0DBFF030E01C0DBFF020EDB5033
:101C2000DF6EFF0EE76EFD0EDBCF00F0FE0EDBCFAA
:101C300001F0E7500016016A020E00C0DBFF030E40
:101C400001C0DBFF020EDB50E76E010EE7CFDBFFCA
:101C5000D9CF00F0DACF01F000C0F3FF01C0F4FFEC
:101C6000040EE15C03E200D0E16AE552E16EE55268
:101C7000E7CFD9FF1200D9CFE6FFE1CFD9FF020E9F
:101C8000E126FE0EDB50DE6EDD6ADECF00F0DDCF3A
:101C900001F000C001F0006A00C0DEFF01C0DDFFFE
:101CA000FD0EDB50DF12DECF00F0DDCF01F000C013
:101CB000F3FF01C0F4FF020EE15C03E200D0E16A31
:0C1CC000E552E16EE552E7CFD9FF1200BB
:041CCC000E0EF66E94
:101CD000000EF76E000EF86E01010900F550236F3B
:101CE0000900F550246F03E1236701D03DD00900BE
:101CF000F5501E6F0900F5501F6F0900F550206F59
:101D000009000900F550E96E0900F550EA6E090076
:101D100009000900F550216F0900F550226F0900F4
:101D20000900F6CF25F1F7CF26F1F8CF27F11EC134
:101D3000F6FF1FC1F7FF20C1F8FF0101215302E1A7
:101D4000225307E00900F550EE6E2107F8E2220762
:101D5000F9D725C1F6FF26C1F7FF27C1F8FF01011A
:0A1D60002307000E245BBFD712001A
:061D6A001A501F02F3CF26
:101D700016F0F4CF17F02002F3501726000EF420CF
:101D8000186E1A502102F3501826000EF420196E16
:101D90001A502202F35019261B501F02F350172627
:101DA000F4501822000E19221B502002F35018265E
:101DB000F45019221B502102F35019261C501F0207
:101DC000F3501826F45019221C502002F350192603
:0A1DD0001D501F02F35019261200E7
:061DDA00196A186A176A7D
:101DE000166A200EE76ED8901A361B361C361D3642
:101DF00016361736183619361F50165C20501758ED
:101E0000215018582250195809E31F50165E2050CF
:101E1000175A2150185A2250195A1A2AE72EE4D775
:021E20001200AE
:0E1E2200000EF36E00EE00F0060E01D8120066
:101E3000EA6002D0EE6AFCD7F350E9601200EE6A65
:021E4000FCD7CD
:0E1E420015EE00F025EE00F0F86A259C66EC27
:0E1E50000EF003EC00F091EC00F0FBD7120056
:021E5E00810EF3
:0E1E6000B16EB368050EB26EA192A0821200A0
:021E6E00000072
:101E70000000000000000000000000000000000062
:0A1E80000000000000000000000058
:061E8A0000000000000052
:101E90000000000000000000000000000000000042
:081EA00000000000000000003A
:020000040030CA
:0100010002FC
:010003001EDE
:00000001FF
