:020000040000FA
:060000008EEF0EF012006D
:020006000000F8
:06000800D5EF03F0120029
:02000E00D9CF48
:10001000E6FFE1CFD9FF020EE126FD0EDBCFE9FFBF
:10002000FE0EDBCFEAFF010EEFCFDBFFDF6EDFCF8F
:1000300014F00D0EE76E1418E8AE02D0E73402D0CB
:10004000E750145C17E2DFCF14F0156A14BE156890
:10005000FD0EDB501424E96EFE0EDB501520EA6E17
:10006000010EDBCFE7FFEF50E71A010EE7CFDBFF12
:10007000DF2ADDD7010EDB50146E020EE15C03E2D5
:1000800000D0E16AE552E16E1450E552E7CFD9FFA6
:100090001200D9CFE6FFE1CFD9FF120EE126160EEE
:1000A000DF6EDE52550EDD6EF20EDB50E76E020E95
:1000B000E7CFDBFFF30EDB50E76E030EE7CFDBFF8E
:1000C000F40EDB50E76E040EE7CFDBFFF50EDBCF5F
:1000D000E6FFF60EDBCFE6FFA1EC0DF0E552E552B0
:1000E000100EF3CFDBFF110EF4CFDBFF100EDBCFD2
:1000F000E9FF110EDBCFEAFF050EEFCFDBFF010EAC
:10010000E76E100EDBCFE9FF110EDBCFEAFFE75001
:10011000E926000EEA22060EEFCFDBFFF50EDBCF5D
:10012000E6FFF60EDBCFE6FFA1EC0DF0E552E5525F
:10013000100EF3CFDBFF110EF4CFDBFF100EDBCF81
:10014000E9FF110EDBCFEAFF070EEFCFDBFF010E59
:10015000E76E100EDBCFE9FF110EDBCFEAFFE750B1
:10016000E926000EEA22080EEFCFDBFFF70EDBCF09
:10017000E6FFF80EDBCFE6FFA1EC0DF0E552E5520D
:10018000100EF3CFDBFF110EF4CFDBFF100EDBCF31
:10019000E9FF110EDBCFEAFF090EEFCFDBFF010E07
:1001A000E76E100EDBCFE9FF110EDBCFEAFFE75061
:1001B000E926000EEA220A0EEFCFDBFFF90EDBCFB5
:1001C000E6FFFA0EDBCFE6FFA1EC0DF0E552E552BB
:1001D000100EF3CFDBFF110EF4CFDBFF100EDBCFE1
:1001E000E9FF110EDBCFEAFF0B0EEFCFDBFF010EB5
:1001F000E76E100EDBCFE9FF110EDBCFEAFFE75011
:10020000E926000EEA220C0EEFCFDBFFFB0EDBCF60
:10021000E6FFFC0EDBCFE6FFA1EC0DF0E552E55268
:10022000100EF3CFDBFF110EF4CFDBFF100EDBCF90
:10023000E9FF110EDBCFEAFF0D0EEFCFDBFF010E62
:10024000E76E100EDBCFE9FF110EDBCFEAFFE750C0
:10025000E926000EEA220E0EEFCFDBFFD950020F87
:10026000E66E000EDA20E66ED2DEE552E552E76E6B
:100270000F0EE7CFDBFFD9CFE9FFDACFEAFFEECFF2
:1002800014F0EECF15F0EECF16F0EECF17F0EECF64
:1002900018F0EECF19F0EECF1AF0EECF1BF0EECF44
:1002A0001CF0EECF1DF0EECF1EF0EECF1FF0EECF24
:1002B00020F0EECF21F0EECF22F0EFCF23F0D9CF18
:1002C000E9FFDACFEAFFED50ED5023C0EDFF22C089
:1002D000EDFF21C0EDFF20C0EDFF1FC0EDFF1EC0F0
:1002E000EDFF1DC0EDFF1CC0EDFF1BC0EDFF1AC0F0
:1002F000EDFF19C0EDFF18C0EDFF17C0EDFF16C0F0
:10030000EDFF15C0EDFF14C0EFFF120EE15C03E23C
:1003100000D0E16AE552E16EE552E7CFD9FF120065
:10032000D9CFE6FFE1CFD9FF0D0EE126F10EDB506C
:10033000DF6EF20EDB50E76E010EE7CFDBFFF30E50
:10034000DB50E76E020EE7CFDBFFF50EDBCFE6FFFB
:10035000F40EDBCFE6FFF3EC0DF0E552E552030EB1
:10036000F3CFDBFF040EF4CFDBFFF70EDBCFE6FFAE
:10037000F60EDBCFE6FFF3EC0DF0E552E552050E8D
:10038000F3CFDBFF060EF4CFDBFFF90EDBCFE6FF8A
:10039000F80EDBCFE6FFF3EC0DF0E552E552070E69
:1003A000F3CFDBFF080EF4CFDBFFFB0EDBCFE6FF66
:1003B000FA0EDBCFE6FFF3EC0DF0E552E552090E45
:1003C000F3CFDBFF0A0EF4CFDBFFFD0EDBCFE6FF42
:1003D000FC0EDBCFE6FFF3EC0DF0E552E5520B0E21
:1003E000F3CFDBFF0C0EF4CFDBFFD9CFE9FFDACF81
:1003F000EAFFEECF14F0EECF15F0EECF16F0EECF11
:1004000017F0EECF18F0EECF19F0EECF1AF0EECFD6
:100410001BF0EECF1CF0EECF1DF0EECF1EF0EECFB6
:100420001FF0EFCF20F0D9CFE9FFDACFEAFFED5090
:10043000ED5020C0EDFF1FC0EDFF1EC0EDFF1DC041
:10044000EDFF1CC0EDFF1BC0EDFF1AC0EDFF19C092
:10045000EDFF18C0EDFF17C0EDFF16C0EDFF15C092
:10046000EDFF14C0EFFF0D0EE15C03E200D0E16A86
:10047000E552E16EE552E7CFD9FF1200D9CFE6FF92
:10048000E1CFD9FF120EE126FD0EDBCFE6FFFE0E17
:10049000DBCFE6FFF3EC0AF0E552E552DF6EFD0E2E
:1004A000DBCFE6FFFE0EDBCFE6FFF3EC0AF0E55212
:1004B000E552E76E010EE7CFDBFF100EDB6ADBCF04
:1004C00014F00D0EE76E1418E8AE02D0E73402D037
:1004D000E750145C22E2FD0EDBCFE6FFFE0EDBCF21
:1004E000E6FFF3EC0AF0E552E552E66ED950020F52
:1004F000146EDACF15F0100EDBCF16F0176A16BEA9
:10050000176814501624E96E15501720EA6EE5524C
:10051000E750EF6E100EDB2AD2D7FD0EDBCFE6FFE1
:10052000FE0EDBCFE6FFF3EC0AF0E552E552E76E94
:100530000F0EE7CFDBFFD9CFE9FFDACFEAFFEECF2F
:1005400014F0EECF15F0EECF16F0EECF17F0EECFA1
:1005500018F0EECF19F0EECF1AF0EECF1BF0EECF81
:100560001CF0EECF1DF0EECF1EF0EECF1FF0EECF61
:1005700020F0EECF21F0EECF22F0EFCF23F0D9CF55
:10058000E9FFDACFEAFFED50ED5023C0EDFF22C0C6
:10059000EDFF21C0EDFF20C0EDFF1FC0EDFF1EC02D
:1005A000EDFF1DC0EDFF1CC0EDFF1BC0EDFF1AC02D
:1005B000EDFF19C0EDFF18C0EDFF17C0EDFF16C02D
:1005C000EDFF15C0EDFF14C0EFFF120EE15C03E27A
:1005D00000D0E16AE552E16EE552E7CFD9FF1200A3
:1005E000D9CFE6FFE1CFD9FF130EE126160EF36E49
:1005F000030EF3CFDBFFFE0EDB50E76E040EE7CFFA
:10060000DBFFFC0EDBCFE6FFFD0EDBCFE6FFA1EC50
:100610000DF0E552E552F3CFDEFFF4CFDDFFDECF84
:10062000E9FFDDCFEAFF050EEFCFDBFFDECFE9FF0D
:10063000DDCFEAFF010EE926000EEA22060EEFCF1B
:10064000DBFFFA0EDBCFE6FFFB0EDBCFE6FFA1EC14
:100650000DF0E552E552F3CFDEFFF4CFDDFFDECF44
:10066000E9FFDDCFEAFF070EEFCFDBFFDECFE9FFCB
:10067000DDCFEAFF010EE926000EEA22080EEFCFD9
:10068000DBFF040EF36E020EF3CFDBFFDBCF14F0C3
:100690000D0EE76E1418E8AE02D0E73402D0E75032
:1006A000145C15E2D950050F146EDACF15F0020E66
:1006B000DBCF16F0176A16BE176814501624E96EC1
:1006C00015501720EA6EEF6A020EDB2ADFD7D950E9
:1006D000050FE66E000EDA20E66E99DCE552E55273
:1006E000E76E120EE7CFDBFF030EDBCF14F0040E34
:1006F000DBCF15F0050EDBCF16F0060EDBCF17F0C3
:10070000070EDBCF18F0080EDBCF19F0090EDBCF98
:100710001AF00A0EDBCF1BF00B0EDBCF1CF00C0E19
:10072000DBCF1DF00D0EDBCF1EF00E0EDBCF1FF06A
:100730000F0EDBCF20F0100EDBCF21F0110EDBCF40
:1007400022F0120EDBCF23F0D9CFE9FFDACFEAFF98
:10075000ED50ED5023C0EDFF22C0EDFF21C0EDFFB5
:1007600020C0EDFF1FC0EDFF1EC0EDFF1DC0EDFF5F
:100770001CC0EDFF1BC0EDFF1AC0EDFF19C0EDFF5F
:1007800018C0EDFF17C0EDFF16C0EDFF15C0EDFF5F
:1007900014C0EFFF130EE15C03E200D0E16AE55202
:0A07A000E16EE552E7CFD9FF120029
:0607AA00DACFE4FFE2CF0C
:1007B000DAFFE9CFE4FFEACFE4FFF6CFE4FFF7CFBB
:1007C000E4FFF5CFE4FFF3CFE4FFF4CFE4FFFACF8B
:1007D000E4FF00EE00F0140EE80403E3EECFE4FFC4
:1007E000FBD700EE14F0140EE80403E3EECFE4FFB1
:1007F000FBD7E6529EA031D0ADEC0CF0800EE66E39
:10080000000EE66E2D0EE66EE66AA7EC0CF0F3CF56
:100810002CF0F4CF2DF02CC0E6FF2DC0E6FF9AECB3
:1008200008F0E552E552E552E55206C028F007C04F
:1008300029F008C02AF009C02BF028C0E6FF29C023
:10084000E6FF2AC0E6FF2BC0E6FFFFEC08F02E6EA5
:10085000060EE15E2E50D38E03009EAA24D0AE5029
:10086000E66EA20EE66E000EE66E0DEC0CF0E552A2
:10087000E552E552A20EE66E000EE66E33EC0BF08A
:10088000E552E552F3CF28F0F4CF29F0100E2818E6
:1008900001E1295008E10001E551E61104E1010EF2
:1008A0000001E56FE66B9EA81AD0800EE66E000E82
:1008B000E66EC8EC0BF0E552E552F3CF28F0F4CF2A
:1008C00029F02850291002E09D9809D0800EE66E8C
:1008D000000EE66EF3EC0AF0E552E552AD6EE5521D
:1008E00000EE27F0140EE80403E3E5CFEDFFFBD79D
:1008F00000EE13F0140EE80403E3E5CFEDFFFBD7A1
:10090000E5CFFAFFE5CFF4FFE5CFF3FFE5CFF5FF45
:10091000E5CFF7FFE5CFF6FFE5CFEAFFE5CFE9FF4B
:10092000E5CFDAFF1100C8EC06F055EC0CF057ECFF
:100930000CF0A20EE66E000EE66EDBEC0AF0E5525D
:10094000E552800EE66E000EE66EDBEC0AF0E55234
:10095000E5520001E56BE66B0001010EE51901E1CE
:10096000E65101E061D1A20EE66E000EE66E33ECB8
:100970000BF0E552E552F3CF14F0F4CF15F0100E62
:10098000141801E1155001E04ED10E0EE126A20E21
:10099000E66E000EE66E5AEC07F0EECFC4F0EECF36
:1009A000C5F0EECFC6F0EECFC7F0EECFC8F0EECF79
:1009B000C9F0EECFCAF0EECFCBF0EECFCCF0EECF59
:1009C000CDF0EECFCEF0EECFCFF0EECFD0F0EECF39
:1009D000D1F0EECFD2F0EECFD3F0146E100EE15E78
:1009E00014500001C45101E11ED1550EC55D41E115
:1009F000C4C0E6FFC5C0E6FFC6C0E6FFC7C0E6FF4D
:100A0000C8C0E6FFC9C0E6FFCAC0E6FFCBC0E6FF2C
:100A1000CCC0E6FFCDC0E6FFCEC0E6FFCFC0E6FF0C
:100A2000D0C0E6FFD1C0E6FFD2C0E6FFD3C0E6FFEC
:100A300090EC01F0EECFD4F0EECFD5F0EECFD6F0C3
:100A4000EECFD7F0EECFD8F0EECFD9F0EECFDAF090
:100A5000EECFDBF0EECFDCF0EECFDDF0EECFDEF070
:100A6000EECFDFF0EECFE0F0146E100EE15E14502A
:100A7000DAD0490EC55D6DE1800EE66E000EE66EC1
:100A8000030EE126D4C0E6FFD5C0E6FFD6C0E6FFE0
:100A9000D7C0E6FFD8C0E6FFD9C0E6FFDAC0E6FF60
:100AA000DBC0E6FFDCC0E6FFDDC0E6FFDEC0E6FF40
:100AB000DFC0E6FFE0C0E6FF49EC00F0EECF14F047
:100AC000EECF15F0EECF16F0EECF17F0EECF18F018
:100AD000EECF19F0EECF1AF0EECF1BF0EECF1CF0F8
:100AE000EECF1DF0EECF1EF0EECF1FF0EECF20F0D8
:100AF000EECF21F0EECF22F0EECF23F0246E100ED9
:100B0000E15E245014C0E6FF15C0E6FF16C0E6FF04
:100B100017C0E6FF18C0E6FF19C0E6FF1AC0E6FFDF
:100B20001BC0E6FF1CC0E6FF1DC0E6FF1EC0E6FFBF
:100B30001FC0E6FF20C0E6FF21C0E6FF22C0E6FF9F
:100B400023C0E6FFF8EC06F0256E120EE15E25509C
:100B50006AD0470EC55D67E1800EE66E000EE66E58
:100B60000B0EE1262D0EE66EE66AA7EC0CF0F3CF35
:100B700024F0F4CF25F024C0E6FF25C0E6FF470EA1
:100B8000E66EF0EC02F0EECF14F0EECF15F0EECF03
:100B900016F0EECF17F0EECF18F0EECF19F0EECF43
:100BA0001AF0EECF1BF0EECF1CF0EECF1DF0EECF23
:100BB0001EF0EECF1FF0EECF20F0EECF21F0EECF03
:100BC00022F0EECF23F0266E100EE15E265014C008
:100BD000E6FF15C0E6FF16C0E6FF17C0E6FF18C027
:100BE000E6FF19C0E6FF1AC0E6FF1BC0E6FF1CC007
:100BF000E6FF1DC0E6FF1EC0E6FF1FC0E6FF20C0E7
:100C0000E6FF21C0E6FF22C0E6FF23C0E6FFF8ECC6
:100C100006F0276E120EE15E27504DEC0CF0020E2E
:100C20000001E56FE66BB2D0020EE51901E1E65175
:100C300001E0ACD0A20EE66E000EE66E33EC0BF0D7
:100C4000E552E552F3CF14F0F4CF15F0100E14185E
:100C500001E1155001E09AD00E0EE126A20EE66EDB
:100C6000000EE66E5AEC07F0EECFC4F0EECFC5F002
:100C7000EECFC6F0EECFC7F0EECFC8F0EECFC9F0A2
:100C8000EECFCAF0EECFCBF0EECFCCF0EECFCDF082
:100C9000EECFCEF0EECFCFF0EECFD0F0EECFD1F062
:100CA000EECFD2F0EECFD3F0146E100EE15E145002
:100CB0000001C4516BE0620EC55D68E1800EE66E16
:100CC000000EE66E0B0EE1262D0EE66EE66AA7EC30
:100CD0000CF0F3CF24F0F4CF25F024C0E6FF25C0BC
:100CE000E6FF620EE66EF0EC02F0EECF14F0EECF0F
:100CF00015F0EECF16F0EECF17F0EECF18F0EECFE6
:100D000019F0EECF1AF0EECF1BF0EECF1CF0EECFC5
:100D10001DF0EECF1EF0EECF1FF0EECF20F0EECFA5
:100D200021F0EECF22F0EECF23F0266E100EE15E22
:100D3000265014C0E6FF15C0E6FF16C0E6FF17C038
:100D4000E6FF18C0E6FF19C0E6FF1AC0E6FF1BC0A9
:100D5000E6FF1CC0E6FF1DC0E6FF1EC0E6FF1FC089
:100D6000E6FF20C0E6FF21C0E6FF22C0E6FF23C069
:100D7000E6FFF8EC06F0276E120EE15E2750010E3A
:100D80000001E56FE66B9D909E90CD90E5D5120039
:100D9000100EAF6E948C948EAC98AB8EAC8AAC84F3
:100DA000B886AB88D08E9F8A9F88F28E9D8A12006B
:100DB000D9CFE6FFE1CFD9FFFE0EDB5047080CE0AC
:100DC000FE0EDB50490808E0FE0EDB50620804E02E
:100DD000FE0EDB50550805E1010EF36EF46A04D0F7
:100DE00003D0F36AF46A00D0E552E7CFD9FF1200CE
:100DF000D9CFE6FFE1CFD9FFE652EF0EDBCFE6FF1A
:100E0000ED0EDBCFE6FFEE0EDBCFE6FF0DEC0CF0D8
:100E1000E552E552E552F00EDBCFE6FFED0EDBCFFB
:100E2000E6FFEE0EDBCFE6FF0DEC0CF0E552E552EF
:100E3000E552DF6ADFCF14F00D0EE76E1418E8AE4E
:100E400002D0E73402D0E750145C20E2D950F10F11
:100E5000146EFF0EDA20156EDFCF16F0176A16BE7D
:100E6000176814501624E96E15501720EA6EEF50DB
:100E7000E66EED0EDBCFE6FFEE0EDBCFE6FF0DEC10
:100E80000CF0E552E552E552DF2AD4D7FE0EDBCF57
:100E9000E6FFED0EDBCFE6FFEE0EDBCFE6FF0DEC5F
:100EA0000CF0E552E552E5529D88E552E552E7CF58
:100EB000D9FF1200D9CFE6FFE1CFD9FF110EE1260D
:100EC0000E0EE126FD0EDBCFE6FFFE0EDBCFE6FFCA
:100ED0003EEC02F0EECF14F0EECF15F0EECF16F0B0
:100EE000EECF17F0EECF18F0EECF19F0EECF1AF0EC
:100EF000EECF1BF0EECF1CF0EECF1DF0EECF1EF0CC
:100F0000EECF1FF0EECF20F0EECF21F0EECF22F0AB
:100F1000EECF23F0246E100EE15E245014C0DFFFEC
:100F2000010E15C0DBFF020E16C0DBFF030E17C05B
:100F3000DBFF040E18C0DBFF050E19C0DBFF060E39
:100F40001AC0DBFF070E1BC0DBFF080E1CC0DBFF57
:100F5000090E1DC0DBFF0A0E1EC0DBFF0B0E1FC0FB
:100F6000DBFF0C0E20C0DBFF0D0E21C0DBFF0E0EE1
:100F700022C0DBFF0F0E23C0DBFFD950020FE66E4D
:100F8000000EDA20E66E07EC00F0E552E552E76E5F
:100F9000100EE7CFDBFF010EDBCFE6FF09DFE552E6
:100FA000F3CF14F0F4CF15F01450151056E0160ED0
:100FB000DF5C53E1100EDB50F36E0F0EDB50F35C81
:100FC0004CE1D9CFE9FFDACFEAFFEECF14F0EECF54
:100FD00015F0EECF16F0EECF17F0EECF18F0EECF03
:100FE00019F0EECF1AF0EECF1BF0EECF1CF0EECFE3
:100FF0001DF0EECF1EF0EECF1FF0EECF20F0EECFC3
:1010000021F0EECF22F0EFCF23F0D9CFE9FFDACFF6
:10101000EAFFED50ED5023C0EDFF22C0EDFF21C0EF
:10102000EDFF20C0EDFF1FC0EDFF1EC0EDFF1DC096
:10103000EDFF1CC0EDFF1BC0EDFF1AC0EDFF19C096
:10104000EDFF18C0EDFF17C0EDFF16C0EDFF15C096
:10105000EDFF14C0EFFF4DD04CD0DF6AD9CFE9FFD0
:10106000DACFEAFFEECF14F0EECF15F0EECF16F0A8
:10107000EECF17F0EECF18F0EECF19F0EECF1AF05A
:10108000EECF1BF0EECF1CF0EECF1DF0EECF1EF03A
:10109000EECF1FF0EECF20F0EECF21F0EECF22F01A
:1010A000EFCF23F0D9CFE9FFDACFEAFFED50ED50D3
:1010B00023C0EDFF22C0EDFF21C0EDFF20C0EDFFFA
:1010C0001FC0EDFF1EC0EDFF1DC0EDFF1CC0EDFFFA
:1010D0001BC0EDFF1AC0EDFF19C0EDFF18C0EDFFFA
:1010E00017C0EDFF16C0EDFF15C0EDFF14C0EFFFF8
:1010F00000D0110EE15C02E2E16AE552E16EE552D8
:10110000E7CFD9FF1200D9CFE6FFE1CFD9FFFE0E1E
:10111000DBCFE6FFFC0EDBCFE6FFFD0EDBCFE6FF0D
:101120000DEC0CF0E552E552E5529D88E552E7CF13
:10113000D9FF1200D9CFE6FFE1CFD9FF060EE12695
:10114000FD0EDBCFE6FFFE0EDBCFE6FFA1EC0DF0E0
:10115000E552E552F3CFDEFFF4CFDDFFDECFE9FF4E
:10116000DDCFEAFF020EEFCFDBFFDECFE9FFDDCF01
:10117000EAFF010EE926000EEA22030EEFCFDBFFA5
:10118000FB0EDBCFE6FFFC0EDBCFE6FFA1EC0DF0A4
:10119000E552E552F3CFDEFFF4CFDDFFDECFE9FF0E
:1011A000DDCFEAFF040EEFCFDBFFDECFE9FFDDCFBF
:1011B000EAFF010EE926000EEA22050EEFCFDBFF63
:1011C000020EDBCF14F0030EDBCF15F0040EDBCFE5
:1011D00016F0050EDBCF17F014C006F015C007F0AF
:1011E00016C008F017C009F0060EE15C03E200D05B
:1011F000E16AE552E16EE552E7CFD9FF1200D9CF9F
:10120000E6FFE1CFD9FFE652DF6ADFCF14F0040E2C
:10121000E76E1418E8AE02D0E73402D0E750145C51
:1012200020E2D950FB0F146EFF0EDA20156EDFCFCF
:1012300016F0176A16BE176814501624E96E15507A
:101240001720EA6EEF50E66EF90EDBCFE6FFFA0EDE
:10125000DBCFE6FF0DEC0CF0E552E552E552DF2A5C
:0E126000D4D79D88E552E552E7CFD9FF1200A2
:02126E00019EDF
:1012700008D0019E09AE05D0086C091EE86A092253
:10128000018E09C003F008C002F0136A126A8E0EC4
:10129000046E056A71EF0AF0016AADEC0AF0C5EC64
:1012A0000AF001B655EF0AF001A205D001BA55EFD8
:1012B0000AF05CEF0AF001BA68EF0AF001A005D06D
:1012C00001B855EF0AF068EF0AF001B85CEF0AF0D8
:1012D000056A7F0E0A24046EE86A05220F50045E38
:1012E000E86A055A1A0E106E0A6A126A136A026ACE
:1012F000036A0C50075E0D50085A0E50095A000E32
:101300000A5A09E70C5007260D5008220E500922F0
:10131000000E0A2201D0128AD89007360836093604
:101320000A36D8901236133602360336102EE1D71D
:10133000095008100710D8A4128A71EF0AF0016A48
:10134000ADEC0AF0C5EC0AF001B655EF0AF001A2C7
:1013500005D001B855EF0AF05CEF0AF001AA05D0FC
:1013600001B055EF0AF05CEF0AF001B002D001A81D
:1013700002D068EF0AF0056A0F500A24046EE86A8A
:1013800005227E0E045EE86A055A126A136A026A32
:10139000036A0E500902F4CF03F0F3CF02F00D50B0
:1013A0000902F3501326F4500222000E03220E50BD
:1013B0000802F3501326F4500222000E03220C50B0
:1013C0000902F3501226F4501322000E02220322C7
:1013D0000D500802F3501226F4501322000E022280
:1013E00003220E500702F3501226F4501322000E6F
:1013F000022203220C500802F4501226000E13227F
:10140000022203220D500702F4501226000E13226E
:101410000222032271EF0AF0006A0EAE12EF0AF008
:101420000E6C001E09AE17EF0AF0096C001E9CEC52
:101430000EF009BE21EF0AF000AE000C096C056C3D
:10144000000C00BE1EEF0AF00188FF0C016AADEC33
:101450000AF001B630EF0AF001A20ED001B405D0B7
:101460007F0E096EFF0E086E1FD0800E096E086A8F
:101470001BD0096A086A18D001B0FBD78F0E0A602A
:10148000EDD77E0E0A64F5D78E0E0A5C05E0D89083
:10149000093208320A2AF8D701A406D0086C091EBE
:1014A000E86A092209AEE5D712007F0E0A6EFF0E28
:1014B000096E086E076E12007F0E01BEFF0E0A6EE7
:1014C00002D07F0E0A6E800E096E086A076AF3D793
:1014D00001AE04D0800E0A6E096AF7D70A6A096A5B
:1014E000F4D70350021013101210F8E005BEF0D725
:1014F00003BE0CD004500510EBE0D8901236133622
:10150000023603360406D8A00506F2D70550D4E10A
:101510000428D2E012AE11D07F0E121402E113A003
:101520000CD0132AE86A0222032207E3D880033290
:1015300002321332042A0428BFE00450C9E013C069
:1015400007F002C008F00334096E04300A6E093255
:101550000A9E01BE0A8E5BEF0AF009360A3602E3E4
:101560000184017E06E101800A6A096A086A076A45
:1015700012000A2803E0D88009321200D8900932FC
:1015800002E101821200018612000E360F3602E3DC
:10159000018C017E06E101880F6A0E6A0D6A0C6AF1
:1015A00012000F2803E0D8800E321200D8900E32BD
:0615B000EAE1018A1200CD
:0A15B600D9CFE6FFE1CFD9FFFD0E0B
:1015C000DBCFE9FFFE0EDBCFEAFFEE52EF6AFD0E46
:1015D000DBCFE9FFFE0EDBCFEAFF000EEF6EE55238
:1015E000E7CFD9FF1200D9CFE6FFE1CFD9FFE6520E
:1015F000FD0EDBCFE9FFFE0EDBCFEAFF020EE92690
:10160000000EEA22E9CF14F0EACF15F0FD0EDBCF91
:10161000E9FFFE0EDBCFEAFFEFCF16F0176A16BE2A
:10162000176814501624E96E15501720EA6EEFCF94
:10163000DFFFFD0EDBCFE9FFFE0EDBCFEAFFEF2A77
:10164000EF501F0BE66EFD0EDBCFE9FFFE0EDBCF8A
:10165000EAFFE552E750EF6EDF5000D0E552E55269
:10166000E7CFD9FF1200D9CFE6FFE1CFD9FF020EB5
:10167000E126FD0EDBCFE9FFFE0EDBCFEAFFEFCF69
:1016800014F0FD0EDBCFE9FFFE0EDBCFEAFFEE52DA
:10169000EF50E76E1418E8AE02D0143403D0E750D0
:1016A000D88014541AE3FD0EDBCFE9FFFE0EDBCF2A
:1016B000EAFFEE52EFCF16F0FD0EDBCFE9FFFE0E94
:1016C000DBCFEAFFEF50165C146E156A14BE156886
:1016D00014C0DEFF15C0DDFF3CD0FD0EDBCFE9FFFF
:1016E000FE0EDBCFEAFFEE52EFCF14F0FD0EDBCFA4
:1016F000E9FFFE0EDBCFEAFFEF50E76E1418E8AE0D
:1017000002D0E73402D0E750145C23E2200E166EBC
:10171000FD0EDBCFE9FFFE0EDBCFEAFFEFCF17F0C8
:10172000FD0EDBCFE9FFFE0EDBCFEAFFEE5217C066
:1017300009F0EFCF0EF00CEC0AF0EFBE056C05508F
:10174000165C146E156A14BE156814C0DEFF15C051
:10175000DDFFDECF14F0DDCF15F014C0F3FF15C0B0
:10176000F4FF020EE15C03E200D0E16AE552E16EB3
:10177000E552E7CFD9FF1200D9CFE6FFE1CFD9FF7D
:10178000200EF36EF46A00D0E552E7CFD9FF1200C5
:10179000D9CFE6FFE1CFD9FFFD0EDBCFE9FFFE0E8B
:1017A000DBCFEAFFEFCF14F0FD0EDBCFE9FFFE0E3B
:1017B000DBCFEAFFEE52EF50145C05E1010EF36E51
:1017C000F46A04D003D0F36AF46A00D0E552E7CF9C
:1017D000D9FF1200D9CFE6FFE1CFD9FFFD0EDBCF55
:1017E000E9FFFE0EDBCFEAFFEE52EF281F0B146E6F
:1017F000FD0EDBCFE9FFFE0EDBCFEAFFEF50145CFE
:1018000005E1010EF36EF46A04D003D0F36AF46AC2
:1018100000D0E552E7CFD9FF1200D9CFE6FFE1CFE4
:10182000D9FFFD0EDBCFE9FFFE0EDBCFEAFF020E94
:10183000E926000EEA22E9CF14F0EACF15F0FD0EFA
:10184000DBCFE9FFFE0EDBCFEAFFEE52EFCF16F063
:10185000176A16BE176814501624E96E1550172023
:10186000EA6EFC0EDBCFEFFFFD0EDBCFE9FFFE0ED5
:10187000DBCFEAFFEE52EF2AEF501F0BE66EFD0EB4
:10188000DBCFE9FFFE0EDBCFEAFFEE52E552E75079
:0A189000EF6EE552E7CFD9FF12001A
:06189A00F10ECD6ECF6AD5
:1018A0000B0ECE6E9E909D80120093801200959834
:1018B0008388959A838A94969488949A928A12003F
:1018C000D9CFE6FFE1CFD9FF030EE126DE6ADD6A5C
:1018D000020EDB6ADBCF14F0100EE76E1418E8AED0
:1018E00002D0E73402D0E750145C14E2829682867C
:1018F000D9CFE9FFDACFEAFF010ED890EE36ED3608
:10190000E806FBE18250100B01E0010EDF12020E2F
:10191000DB2AE0D7DECF14F0DDCF15F014C0F3FFE3
:1019200015C0F4FF030EE15C03E200D0E16AE5526A
:10193000E16EE552E7CFD9FF1200829A8296828645
:10194000828A82A8FED712008296829A1200F4C080
:10195000F3FFF5C0F4FF00D012009FDFEEDF1C6A3A
:101960001D6AA00E1E6E400E1F6E1CC0E6FF1DC03D
:10197000E6FF1EC0E6FF1FC0E6FFA2DFE552E7CF8D
:101980001FF0E552E7CF1EF0E552E7CF1DF0E5521C
:10199000E7CF1CF0F3CF24F0F4CF25F024C008F0FB
:1019A00025C009F037EC09F007C020F008C021F08D
:1019B00009C022F00AC023F020C00CF021C00DF0B5
:1019C00022C00EF023C00FF01CC007F01DC008F0AD
:1019D0001EC009F01FC00AF09FEC09F007C018F004
:1019E00008C019F009C01AF00AC01BF00C6A0D6893
:1019F0007F0E0E6E470E0F6E18C007F019C008F06C
:101A00001AC009F01BC00AF04CEC09F007C014F032
:101A100008C015F009C016F00AC017F00C6A0D6A6C
:101A20007A0E0E6E440E0F6E14C007F015C008F04B
:101A300016C009F017C00AF09FEC09F026EC0AF076
:101A400008C0F2F009C0F3F01C6A1D6AA00E1E6EF9
:101A5000400E1F6E1CC0E6FF1DC0E6FF1EC0E6FF65
:101A60001FC0E6FF2DDFE552E7CF1FF0E552E7CFBD
:101A70001EF0E552E7CF1DF0E552E7CF1CF0F3CFA3
:101A800024F0F4CF25F024C008F025C009F037EC8D
:101A900009F007C020F008C021F009C022F00AC0F8
:101AA00023F020C00CF021C00DF022C00EF023C0A6
:101AB0000FF01CC007F01DC008F01EC009F01FC0C9
:101AC0000AF09FEC09F007C018F008C019F009C02F
:101AD0001AF00AC01BF00C6A0D687F0E0E6E470EDE
:101AE0000F6E18C007F019C008F01AC009F01BC02B
:101AF0000AF04CEC09F007C014F008C015F009C05A
:101B000016F00AC017F00C6A0D6A7A0E0E6E440EBB
:101B10000F6E14C007F015C008F016C009F017C00A
:101B20000AF09FEC09F026EC0AF008C0F4F009C0B6
:101B3000F5F0A4EF0CF0F2C0F3FFF3C0F4FF00D017
:021B4000120091
:0E1B4200D9CFE6FFE1CFD9FF040EE126FD0E5C
:101B5000DBCF14F0FE0EDBCF15F0000E1416FF0ED7
:101B60001516020E14C0DBFF030E15C0DBFF020EBC
:101B7000DBCF14F0030EDBCF15F015C014F0156A9F
:101B8000020E14C0DBFF030E15C0DBFF020EDB509C
:101B9000DF6EFF0EE76EFD0EDBCF14F0FE0EDBCF27
:101BA00015F0E7501416156A020E14C0DBFF030E81
:101BB00015C0DBFF020EDB50E76E010EE7CFDBFF47
:101BC000D9CF14F0DACF15F014C0F3FF15C0F4FF2D
:101BD000040EE15C03E200D0E16AE552E16EE552F9
:101BE000E7CFD9FF1200D9CFE6FFE1CFD9FF020E30
:101BF000E126FE0EDBCF14F0156A14BE156814C082
:101C0000DEFF15C0DDFFDECF14F0DDCF15F014C010
:101C100015F0146A14C0DEFF15C0DDFFFD0EDBCF2A
:101C200014F0156A14BE1568D9CFE9FFDACFEAFFC0
:101C30001450EE121550ED12DECF14F0DDCF15F07A
:101C400014C0F3FF15C0F4FF020EE15C03E200D004
:0E1C5000E16AE552E16EE552E7CFD9FF1200DE
:021C5E00060E70
:101C6000F66E000EF76E000EF86E00010900F550DA
:101C7000ED6F0900F550EE6F03E1ED6701D03DD047
:101C80000900F550E86F0900F550E96F0900F550BB
:101C9000EA6F09000900F550E96E0900F550EA6E97
:101CA000090009000900F550EB6F0900F550EC6FD1
:101CB00009000900F6CFEFF0F7CFF0F0F8CFF1F020
:101CC000E8C0F6FFE9C0F7FFEAC0F8FF0001EB53F8
:101CD00002E1EC5307E00900F550EE6EEB07F8E285
:101CE000EC07F9D7EFC0F6FFF0C0F7FFF1C0F8FF3F
:0C1CF0000001ED07000EEE5BBFD71200F4
:041CFC00000EF36E75
:101D000000EE00F0060E01D81200EA6002D0EE6A82
:0C1D1000FCD7F350E9601200EE6AFCD72B
:041D1C0015EE00F0D0
:101D200025EE00F0F86A019C2FEC0EF0AAEC0EF004
:081D300093EC04F0FBD7120054
:081D3800056A080EE76ED89061
:101D4000093605360E50055C02E3056E092AE72EBA
:041D5000F7D71200AF
:021D540012007B
:020000040030CA
:0100010002FC
:010003001EDE
:00000001FF
