:020000040000FA
:06000000B2EF0EF0120049
:020006001200E6
:06000800E7EF03F0120017
:02000E000200EE
:100010009C1D00000001000018000000801D000071
:08002000E40000001C000000D8
:08002800D9CFE6FFE1CFD9FFBB
:10003000020EE126FD0EDBCFE9FFFE0EDBCFEAFF6D
:10004000010EEFCFDBFFDF6EDFCF00F00D0EE76EAE
:100050000018E8AE02D0E73402D0E750005C17E2A7
:10006000DFCF00F0016A00BE0168FD0EDB50002406
:10007000E96EFE0EDB500120EA6E010EDBCFE7FFDA
:10008000EF50E71A010EE7CFDBFFDF2ADDD7010EC5
:10009000DB50006E020EE15C03E200D0E16AE55243
:1000A000E16E0050E552E7CFD9FF1200D9CFE6FF4D
:1000B000E1CFD9FF120EE126160EDF6EDE52550E8D
:1000C000DD6EF20EDB50E76E020EE7CFDBFFF30EC4
:1000D000DB50E76E030EE7CFDBFFF40EDB50E76E7D
:1000E000040EE7CFDBFFF50EDBCFE6FFF60EDBCF2E
:1000F000E6FF69EC0DF0E552E552100EF3CFDBFFA1
:10010000110EF4CFDBFF100EDBCFE9FF110EDBCFBA
:10011000EAFF050EEFCFDBFF010EE76E100EDBCF1F
:10012000E9FF110EDBCFEAFFE750E926000EEA22D5
:10013000060EEFCFDBFFF70EDBCFE6FFF80EDBCFCF
:10014000E6FF69EC0DF0E552E552100EF3CFDBFF50
:10015000110EF4CFDBFF100EDBCFE9FF110EDBCF6A
:10016000EAFF070EEFCFDBFF010EE76E100EDBCFCD
:10017000E9FF110EDBCFEAFFE750E926000EEA2285
:10018000080EEFCFDBFFF90EDBCFE6FFFA0EDBCF79
:10019000E6FF69EC0DF0E552E552100EF3CFDBFF00
:1001A000110EF4CFDBFF100EDBCFE9FF110EDBCF1A
:1001B000EAFF090EEFCFDBFF010EE76E100EDBCF7B
:1001C000E9FF110EDBCFEAFFE750E926000EEA2235
:1001D0000A0EEFCFDBFFFB0EDBCFE6FFFC0EDBCF23
:1001E000E6FF69EC0DF0E552E552100EF3CFDBFFB0
:1001F000110EF4CFDBFF100EDBCFE9FF110EDBCFCA
:10020000EAFF0B0EEFCFDBFF010EE76E100EDBCF28
:10021000E9FF110EDBCFEAFFE750E926000EEA22E4
:100220000C0EEFCFDBFFFD0EDBCFE6FFFE0EDBCFCC
:10023000E6FF69EC0DF0E552E552100EF3CFDBFF5F
:10024000110EF4CFDBFF100EDBCFE9FF110EDBCF79
:10025000EAFF0D0EEFCFDBFF010EE76E100EDBCFD6
:10026000E9FF110EDBCFEAFFE750E926000EEA2294
:100270000E0EEFCFDBFFD950020FE66E000EDA2034
:10028000E66ED2DEE552E552E76E0F0EE7CFDBFFFA
:10029000D9CFE9FFDACFEAFFEECF00F0EECF01F0E1
:1002A000EECF02F0EECF03F0EECF04F0EECF05F08C
:1002B000EECF06F0EECF07F0EECF08F0EECF09F06C
:1002C000EECF0AF0EECF0BF0EECF0CF0EECF0DF04C
:1002D000EECF0EF0EFCF0FF0D9CFE9FFDACFEAFF84
:1002E000ED50ED500FC0EDFF0EC0EDFF0DC0EDFF66
:1002F0000CC0EDFF0BC0EDFF0AC0EDFF09C0EDFF24
:1003000008C0EDFF07C0EDFF06C0EDFF05C0EDFF23
:1003100004C0EDFF03C0EDFF02C0EDFF01C0EDFF23
:1003200000C0EFFF120EE15C03E200D0E16AE5528B
:10033000E16EE552E7CFD9FF1200D9CFE6FFE1CF5A
:10034000D9FF0D0EE126F10EDB50DF6EF20EDB5011
:10035000E76E010EE7CFDBFFF30EDB50E76E020E18
:10036000E7CFDBFFF50EDBCFE6FFF40EDBCFE6FFDA
:10037000BBEC0DF0E552E552030EF3CFDBFF040EAC
:10038000F4CFDBFFF70EDBCFE6FFF60EDBCFE6FFA9
:10039000BBEC0DF0E552E552050EF3CFDBFF060E88
:1003A000F4CFDBFFF90EDBCFE6FFF80EDBCFE6FF85
:1003B000BBEC0DF0E552E552070EF3CFDBFF080E64
:1003C000F4CFDBFFFB0EDBCFE6FFFA0EDBCFE6FF61
:1003D000BBEC0DF0E552E552090EF3CFDBFF0A0E40
:1003E000F4CFDBFFFD0EDBCFE6FFFC0EDBCFE6FF3D
:1003F000BBEC0DF0E552E5520B0EF3CFDBFF0C0E1C
:10040000F4CFDBFFD9CFE9FFDACFEAFFEECF00F080
:10041000EECF01F0EECF02F0EECF03F0EECF04F01E
:10042000EECF05F0EECF06F0EECF07F0EECF08F0FE
:10043000EECF09F0EECF0AF0EECF0BF0EFCF0CF0DD
:10044000D9CFE9FFDACFEAFFED50ED500CC0EDFF58
:100450000BC0EDFF0AC0EDFF09C0EDFF08C0EDFFC6
:1004600007C0EDFF06C0EDFF05C0EDFF04C0EDFFC6
:1004700003C0EDFF02C0EDFF01C0EDFF00C0EFFFC4
:100480000D0EE15C03E200D0E16AE552E16EE55257
:10049000E7CFD9FF1200D9CFE6FFE1CFD9FF120E87
:1004A000E1260001A251A22B1F0BE96EEA6AE9BE08
:1004B000EA68A40EE926000EEA22EFCFDFFFA25180
:1004C000A22B1F0BE96EEA6AE9BEEA68A40EE926D0
:1004D000000EEA22010EEFCFDBFF100EDB6ADBCF4E
:1004E00000F00D0EE76E0018E8AE02D0E73402D03F
:1004F000E750005C24E2A251A22B1F0BE96EEA6ACE
:10050000E9BEEA68A40EE926000EEA22EF50E66E84
:10051000D950020F006EDACF01F0100EDBCF02F0DF
:10052000036A02BE036800500224E96E01500320F2
:10053000EA6EE552E750EF6E100EDB2AD0D7A251DB
:10054000A22B1F0BE96EEA6AE9BEEA68A40EE9264F
:10055000000EEA220F0EEFCFDBFFD9CFE9FFDACF93
:10056000EAFFEECF00F0EECF01F0EECF02F0EECFDB
:1005700003F0EECF04F0EECF05F0EECF06F0EECFB5
:1005800007F0EECF08F0EECF09F0EECF0AF0EECF95
:100590000BF0EECF0CF0EECF0DF0EECF0EF0EFCF74
:1005A0000FF0D9CFE9FFDACFEAFFED50ED500FC0E1
:1005B000EDFF0EC0EDFF0DC0EDFF0CC0EDFF0BC059
:1005C000EDFF0AC0EDFF09C0EDFF08C0EDFF07C059
:1005D000EDFF06C0EDFF05C0EDFF04C0EDFF03C059
:1005E000EDFF02C0EDFF01C0EDFF00C0EFFF120EF6
:1005F000E15C03E200D0E16AE552E16EE552E7CF4B
:10060000D9FF1200D9CFE6FFE1CFD9FF130EE126C3
:10061000160EF36E030EF3CFDBFFFE0EDB50E76E1C
:10062000040EE7CFDBFFFC0EDBCFE6FFFD0EDBCFDA
:10063000E6FF69EC0DF0E552E552F3CFDEFFF4CFB3
:10064000DDFFDECFE9FFDDCFEAFF050EEFCFDBFFF9
:10065000DECFE9FFDDCFEAFF010EE926000EEA2238
:10066000060EEFCFDBFFFA0EDBCFE6FFFB0EDBCF94
:10067000E6FF69EC0DF0E552E552F3CFDEFFF4CF73
:10068000DDFFDECFE9FFDDCFEAFF070EEFCFDBFFB7
:10069000DECFE9FFDDCFEAFF010EE926000EEA22F8
:1006A000080EEFCFDBFF040EF36E020EF3CFDBFF7D
:1006B000DBCF00F00D0EE76E0018E8AE02D0E73495
:1006C00002D0E750005C15E2D950050F006EDACF7A
:1006D00001F0020EDBCF02F0036A02BE0368005095
:1006E0000224E96E01500320EA6EEF6A020EDB2A53
:1006F000DFD7D950050FE66E000EDA20E66E94DCE7
:10070000E552E552E76E120EE7CFDBFF030EDBCFBB
:1007100000F0040EDBCF01F0050EDBCF02F0060E79
:10072000DBCF03F0070EDBCF04F0080EDBCF05F0C4
:10073000090EDBCF06F00A0EDBCF07F00B0EDBCF86
:1007400008F00C0EDBCF09F00D0EDBCF0AF00E0E19
:10075000DBCF0BF00F0EDBCF0CF0100EDBCF0DF06C
:10076000110EDBCF0EF0120EDBCF0FF0D9CFE9FF69
:10077000DACFEAFFED50ED500FC0EDFF0EC0EDFFF8
:100780000DC0EDFF0CC0EDFF0BC0EDFF0AC0EDFF8B
:1007900009C0EDFF08C0EDFF07C0EDFF06C0EDFF8B
:1007A00005C0EDFF04C0EDFF03C0EDFF02C0EDFF8B
:1007B00001C0EDFF00C0EFFF130EE15C03E200D0CB
:0E07C000E16AE552E16EE552E7CFD9FF120083
:0207CE00DACF80
:1007D000E4FFE2CFDAFFE9CFE4FFEACFE4FFE6523D
:1007E0009EAA4BD0ABA214D0AB98AB880001A3510A
:1007F000A32B1F0BE96EEA6AE9BEEA68A40EE9269C
:10080000000EEA22AECFEFFFA36BA3C0A2F035D05B
:100810000001A351A32B1F0BE96EEA6AE9BEEA6847
:10082000A40EE926000EEA22AECFEFFFA351E76E39
:10083000A219E8AE02D0A23503D0E750D880A25565
:1008400003E3A251A35D05D0200E266EA351A25D45
:10085000265C01010A6F0B6B800B01E00B69000144
:10086000E151E2110AE10101100E0A1901E10B51F7
:1008700004E1010E0001E16FE26B9EA004D00101D2
:10088000010E146F9D90A1A204D00101010E156FFD
:10089000A0929EA813D000018151805D02E19D9835
:1008A0000DD08051802B1F0BE96EEA6AE9BEEA6821
:1008B000820EE926000EEA22EF50AD6EE552E5CF3A
:1008C000EAFFE5CFE9FFE5CFDAFF1100B6EC07F06C
:1008D00028EC0AF08FEC0CF00001A36BA3C0A2F08F
:1008E0000001816B81C080F00001E16BE26B0101CE
:1008F000155101E19ED00101002B000E01230223BE
:1009000003230CC10EF10DC10FF110C112F111C181
:1009100013F1BCEC0AF000090DE001010E510F11BA
:1009200009E1010E01010C6F0D6B00C104F101C161
:1009300005F103D001010C6B0D6BDBC0E6FFDCC0E1
:10094000E6FFC8EC0AF0E552E55200090DE00101AE
:100950001251131109E1010E0101106F116B00C159
:1009600006F101C107F103D00101106B116BDBC06F
:10097000E6FFDCC0E6FF27EC0BF0E552E55200098C
:1009800004E000C108F101C109F100C1E6FF01C1A5
:10099000E6FFDFC0E6FFE0C0E6FFDBC0E6FFDCC04D
:1009A000E6FFA8EC0BF0006E060EE15E0050DDC025
:1009B000E6FFDEC0E6FFDFC0E6FFE0C0E6FF08C1FD
:1009C000E6FF09C1E6FF06C1E6FF07C1E6FF04C175
:1009D000E6FF05C1E6FF00C1E6FF01C1E6FF2BEC23
:1009E0000AF0006E0C0EE15E0050D4C0E6FFD5C0E8
:1009F000E6FFD6C0E6FFD7C0E6FFD8C0E6FFD9C005
:100A0000E6FFDAC0E6FFDBC0E6FFDCC0E6FFDDC0E4
:100A1000E6FFDEC0E6FFDFC0E6FFE0C0E6FF74EC05
:100A20000BF0006E0D0EE15E00509AEC0EF001012D
:100A3000156B0101145134E0EFEC0AF0F3CF04F030
:100A4000F4CF05F004C0E6FF05C0E6FFDFEC0CF0D4
:100A5000F3CF06F0F4CF07F006C0E6FF07C0E6FFCD
:100A600087EC09F0E552E552E552E5521AC000F074
:100A70001BC001F01CC002F01DC003F000C0E6FF67
:100A800001C0E6FF02C0E6FF03C0E6FFECEC09F0A0
:100A9000E552E552E552E552E5EC0CF00101146B2C
:100AA0000001010EE11901E1E25101E09DD10001D7
:100AB000A3510001E76EA219E8AE02D0A23503D01F
:100AC000E750D880A25505E30001A2510001A35DC3
:100AD00007D0200E006E0001A3510001A25D005C52
:100AE00001010A6F0B6B800B01E00B690101100E15
:100AF0000A1901E10B5101E076D1100EE1264CEC10
:100B000008F0EECFC4F0EECFC5F0EECFC6F0EECFDA
:100B1000C7F0EECFC8F0EECFC9F0EECFCAF0EECFFF
:100B2000CBF0EECFCCF0EECFCDF0EECFCEF0EECFDF
:100B3000CFF0EECFD0F0EECFD1F0EECFD2F0EECFBF
:100B4000D3F0006E100EE15E00500001C45101E1CF
:100B500047D1550E0001C55D64E1C4C0E6FFC5C0C4
:100B6000E6FFC6C0E6FFC7C0E6FFC8C0E6FFC9C0D3
:100B7000E6FFCAC0E6FFCBC0E6FFCCC0E6FFCDC0B3
:100B8000E6FFCEC0E6FFCFC0E6FFD0C0E6FFD1C093
:100B9000E6FFD2C0E6FFD3C0E6FF9DEC01F0EECF4A
:100BA000D4F0EECFD5F0EECFD6F0EECFD7F0EECF3B
:100BB000D8F0EECFD9F0EECFDAF0EECFDBF0EECF1B
:100BC000DCF0EECFDDF0EECFDEF0EECFDFF0EECFFB
:100BD000E0F0006E100EE15E0050D4C0E6FFD5C01C
:100BE000E6FFD6C0E6FFD7C0E6FFD8C0E6FFD9C013
:100BF000E6FFDAC0E6FFDBC0E6FFDCC0E6FFDDC0F3
:100C0000E6FFDEC0E6FFDFC0E6FFE0C0E6FF74EC13
:100C10000BF0006E0D0EE15E00500001E16BE26B27
:100C2000DED0490E0001C55D6CE1030EE126D4C0A3
:100C3000E6FFD5C0E6FFD6C0E6FFD7C0E6FFD8C0C6
:100C4000E6FFD9C0E6FFDAC0E6FFDBC0E6FFDCC0A6
:100C5000E6FFDDC0E6FFDEC0E6FFDFC0E6FFE0C086
:100C6000E6FF56EC00F0EECF00F0EECF01F0EECF55
:100C700002F0EECF03F0EECF04F0EECF05F0EECFB2
:100C800006F0EECF07F0EECF08F0EECF09F0EECF92
:100C90000AF0EECF0BF0EECF0CF0EECF0DF0EECF72
:100CA0000EF0EECF0FF0106E100EE15E105000C08F
:100CB000E6FF01C0E6FF02C0E6FF03C0E6FF04C096
:100CC000E6FF05C0E6FF06C0E6FF07C0E6FF08C076
:100CD000E6FF09C0E6FF0AC0E6FF0BC0E6FF0CC056
:100CE000E6FF0DC0E6FF0EC0E6FF0FC0E6FFE6EC34
:100CF00007F0116E100EE15E11500001E16BE26B26
:100D00006ED0470E0001C55D6AE10B0EE126EFECE7
:100D10000AF0F3CF10F0F4CF11F010C0E6FF11C0CD
:100D2000E6FFDFEC0CF0F3CF12F0F4CF13F012C0BB
:100D3000E6FF13C0E6FF470EE66E02EC03F0EECFCF
:100D400000F0EECF01F0EECF02F0EECF03F0EECFE9
:100D500004F0EECF05F0EECF06F0EECF07F0EECFC9
:100D600008F0EECF09F0EECF0AF0EECF0BF0EECFA9
:100D70000CF0EECF0DF0EECF0EF0EECF0FF0146EC4
:100D8000100EE15E145000C0E6FF01C0E6FF02C095
:100D9000E6FF03C0E6FF04C0E6FF05C0E6FF06C0AD
:100DA000E6FF07C0E6FF08C0E6FF09C0E6FF0AC08D
:100DB000E6FF0BC0E6FF0CC0E6FF0DC0E6FF0EC06D
:100DC000E6FF0FC0E6FFE6EC07F0156E100EE15EE1
:100DD000155091EC0EF0020E0001E16FE26B03D0B2
:100DE0000001E16BE26BBED00001020EE11901E1EE
:100DF000E25101E0B7D00001A3510001E76EA21952
:100E0000E8AE02D0A23503D0E750D880A25505E362
:100E10000001A2510001A35D07D0200E006E000169
:100E2000A3510001A25D005C100801E09BD0100EF0
:100E3000E1264CEC08F0EECFC4F0EECFC5F0EECFDB
:100E4000C6F0EECFC7F0EECFC8F0EECFC9F0EECFD0
:100E5000CAF0EECFCBF0EECFCCF0EECFCDF0EECFB0
:100E6000CEF0EECFCFF0EECFD0F0EECFD1F0EECF90
:100E7000D2F0EECFD3F0006E100EE15E0050000114
:100E8000C45170E0620E0001C55D6CE10B0EE126FD
:100E9000EFEC0AF0F3CF10F0F4CF11F010C0E6FF42
:100EA00011C0E6FFDFEC0CF0F3CF12F0F4CF13F03B
:100EB00012C0E6FF13C0E6FF620EE66E02EC03F01E
:100EC000EECF00F0EECF01F0EECF02F0EECF03F068
:100ED000EECF04F0EECF05F0EECF06F0EECF07F048
:100EE000EECF08F0EECF09F0EECF0AF0EECF0BF028
:100EF000EECF0CF0EECF0DF0EECF0EF0EECF0FF008
:100F0000146E100EE15E145000C0E6FF01C0E6FF53
:100F100002C0E6FF03C0E6FF04C0E6FF05C0E6FF2F
:100F200006C0E6FF07C0E6FF08C0E6FF09C0E6FF0F
:100F30000AC0E6FF0BC0E6FF0CC0E6FF0DC0E6FFEF
:100F40000EC0E6FF0FC0E6FFE6EC07F0156E100ED0
:100F5000E15E15500001E16BE26B9D909E90CD909B
:0C0F60000101146BD38E0300C2D41200F8
:040F6C00100EAF6E46
:100F7000948C948EAC98AB8EAC8AAC84B886AB88DB
:100F8000D08E9F8A9F88F28E9D8A1200D9CFE6FF6D
:100F9000E1CFD9FFFE0EDB5047080CE0FE0EDB5020
:100FA000490808E0FE0EDB50620804E0FE0EDB504C
:100FB000550805E1010EF36EF46A04D003D0F36A1C
:100FC000F46A00D0E552E7CFD9FF1200D9CFE6FF8F
:100FD000E1CFD9FFE65200018151812B1F0BE96E51
:100FE000EA6AE9BEEA68820EE926000EEA22EF0EFE
:100FF000DBCFEFFF8151812B1F0BE96EEA6AE9BE5F
:10100000EA68820EE926000EEA22F00EDBCFEFFF3F
:10101000DF6ADFCF00F00D0EE76E0018E8AE02D0F9
:10102000E73402D0E750005C23E2D950F10F006EA4
:10103000FF0EDA20016EDFCF02F0036A02BE036802
:1010400000500224E96E01500320EA6EEF50E66E74
:101050008151812B1F0BE96EEA6AE9BEEA68820EB4
:10106000E926000EEA22E552E750EF6EDF2AD1D7DB
:101070008151812B1F0BE96EEA6AE9BEEA68820E94
:10108000E926000EEA22FE0EDBCFEFFF9D88E55237
:10109000E552E7CFD9FF1200D9CFE6FFE1CFD9FF64
:1010A000110EE126100EE1264BEC02F0EECF00F01F
:1010B000EECF01F0EECF02F0EECF03F0EECF04F072
:1010C000EECF05F0EECF06F0EECF07F0EECF08F052
:1010D000EECF09F0EECF0AF0EECF0BF0EECF0CF032
:1010E000EECF0DF0EECF0EF0EECF0FF0106E100E33
:1010F000E15E105000C0DFFF010E01C0DBFF020EF9
:1011000002C0DBFF030E03C0DBFF040E04C0DBFFE5
:10111000050E05C0DBFF060E06C0DBFF070E07C08D
:10112000DBFF080E08C0DBFF090E09C0DBFF0A0E5B
:101130000AC0DBFF0B0E0BC0DBFF0C0E0CC0DBFF8D
:101140000D0E0DC0DBFF0E0E0EC0DBFF0F0E0FC02D
:10115000DBFFD950020FE66E000EDA20E66E14ECCB
:1011600000F0E552E552E76E100EE7CFDBFF010E0F
:10117000DBCFE6FF0BDFE552F3CF00F0F4CF01F059
:101180000050011056E0160EDF5C53E1100EDB50EC
:10119000F36E0F0EDB50F35C4CE1D9CFE9FFDACFF1
:1011A000EAFFEECF00F0EECF01F0EECF02F0EECF8F
:1011B00003F0EECF04F0EECF05F0EECF06F0EECF69
:1011C00007F0EECF08F0EECF09F0EECF0AF0EECF49
:1011D0000BF0EECF0CF0EECF0DF0EECF0EF0EFCF28
:1011E0000FF0D9CFE9FFDACFEAFFED50ED500FC095
:1011F000EDFF0EC0EDFF0DC0EDFF0CC0EDFF0BC00D
:10120000EDFF0AC0EDFF09C0EDFF08C0EDFF07C00C
:10121000EDFF06C0EDFF05C0EDFF04C0EDFF03C00C
:10122000EDFF02C0EDFF01C0EDFF00C0EFFF4DD0AC
:101230004CD0DF6AD9CFE9FFDACFEAFFEECF00F07A
:10124000EECF01F0EECF02F0EECF03F0EECF04F0E0
:10125000EECF05F0EECF06F0EECF07F0EECF08F0C0
:10126000EECF09F0EECF0AF0EECF0BF0EECF0CF0A0
:10127000EECF0DF0EECF0EF0EFCF0FF0D9CFE9FFAC
:10128000DACFEAFFED50ED500FC0EDFF0EC0EDFFDD
:101290000DC0EDFF0CC0EDFF0BC0EDFF0AC0EDFF70
:1012A00009C0EDFF08C0EDFF07C0EDFF06C0EDFF70
:1012B00005C0EDFF04C0EDFF03C0EDFF02C0EDFF70
:1012C00001C0EDFF00C0EFFF00D0110EE15C02E2B3
:1012D000E16AE552E16EE552E7CFD9FF1200D9CFBE
:1012E000E6FFE1CFD9FF00018151812B1F0BE96E91
:1012F000EA6AE9BEEA68820EE926000EEA22FE0EDC
:10130000DBCFEFFF9D88E552E7CFD9FF1200D9CFA1
:10131000E6FFE1CFD9FF060EE126FD0EDBCFE6FFAB
:10132000FE0EDBCFE6FF69EC0DF0E552E552F3CFA0
:10133000DEFFF4CFDDFFDECFE9FFDDCFEAFF020EF7
:10134000EFCFDBFFDECFE9FFDDCFEAFF010EE926BD
:10135000000EEA22030EEFCFDBFFFB0EDBCFE6FF32
:10136000FC0EDBCFE6FF69EC0DF0E552E552F3CF62
:10137000DEFFF4CFDDFFDECFE9FFDDCFEAFF040EB5
:10138000EFCFDBFFDECFE9FFDDCFEAFF010EE9267D
:10139000000EEA22050EEFCFDBFF020EDBCF00F0DE
:1013A000030EDBCF01F0040EDBCF02F0050EDBCF26
:1013B00003F000C01AF001C01BF002C01CF003C013
:1013C0001DF0060EE15C03E200D0E16AE552E16E39
:1013D000E552E7CFD9FF1200D9CFE6FFE1CFD9FF21
:1013E000E652DF6ADFCF00F0040EE76E0018E8AEC9
:1013F00002D0E73402D0E750005C24E2D950FB0F62
:10140000006EFF0EDA20016EDFCF02F0036A02BE2B
:10141000036800500224E96E01500320EA6EEF5089
:10142000E66E00018151812B1F0BE96EEA6AE9BE6D
:10143000EA68820EE926000EEA22E552E750EF6ED6
:10144000DF2AD0D79D88E552E552E7CFD9FF1200B9
:1014500093809AEF0EF0D9CFE6FFE1CFD9FFE6C037
:10146000E7F0E4C0E5F08150010B0001E46FD950D2
:10147000FB0FE96EFF0EDA20EA6E000ED880EE5404
:10148000000EED541EE2FD0EDBCF02F0FE0EDBCFB0
:1014900003F0FB0EDB50025C006EFC0EDB500358C9
:1014A000016EF50EDBCF04F0F60EDBCF05F0005039
:1014B000045C0150055802E2000E01D0010EE66FF7
:1014C00001D0E66BE8C0E9F0D950F90FE96EFF0EE4
:1014D000DA20EA6E000ED880EE54000EED541EE2C3
:1014E000FD0EDBCF02F0FE0EDBCF03F0F90EDB507A
:1014F000025C006EFA0EDB500358016EF50EDBCF76
:1015000004F0F60EDBCF05F00050045C01500558E6
:1015100002E2000E01D0010EE86F01D0E86BEAC0D4
:10152000EBF0D950F70FE96EFF0EDA20EA6E000EED
:10153000D880EE54000EED541AE2F30EDBCFE6FF36
:10154000F40EDBCFE6FFF70EDBCFE6FFF80EDBCFC6
:10155000E6FFFD0EDBCFE6FFFE0EDBCFE6FF93D806
:10156000006E060EE15E00500001EA6F01D0EA6BEA
:10157000E552E7CFD9FF12000001E65106E1E5513F
:1015800004E0E45102E0010E02D0000E00D012008F
:10159000D9CFE6FFE1CFD9FF0001E85111E1EEC05C
:1015A00000F0EFC001F0FD0EDB50001803E1FE0E6D
:1015B000DB50011805E1F051F11102E1010E02D0FA
:1015C000000E00D0E552E7CFD9FF12000001E6512E
:1015D000E81102E0010E02D0000E00D0120000015E
:1015E000E65115E0E7510AE1530EE66E560EE66E3F
:1015F000BBEC0DF0E552E55229D028D0290EE66E5D
:10160000280EE66EBBEC0DF0E552E5521FD0E85116
:1016100015E0E9510AE1500EE66E560EE66EBBEC9F
:101620000DF0E552E55212D011D0290EE66E280ECB
:10163000E66EBBEC0DF0E552E55208D02D0EE66EDD
:10164000E66EBBEC0DF0E552E55200D01200D9CFAA
:10165000E6FFE1CFD9FFEEC000F0EFC001F0FD0ED4
:10166000DB50001803E1FE0EDB50011806E100011B
:10167000F051F11102E1010E02D0000E00D0E5524E
:10168000E7CFD9FF1200D9CFE6FFE1CFD9FFD9507C
:10169000FB0FE96EFF0EDA20EA6E000ED880EE54E2
:1016A000000EED541BE2FD0EDBCF02F0FE0EDBCF91
:1016B00003F0FB0EDB50025C006EFC0EDB500358A7
:1016C000016EF90EDBCF04F0FA0EDBCF05F000500F
:1016D000045C0150055802E3010E02D0000E00D058
:1016E000E552E7CFD9FF1200D9CFE6FFE1CFD9FF0E
:1016F0000001E7511FE1E6511DE0F40EDB5013E05D
:10170000F50EDBCF00F0F60EDBCF01F0F70EDB506D
:10171000000100240101266FF80EDB5000010120BA
:101720000101276F06D0F70EDBCF26F1F80EDBCFD5
:1017300027F10AD0E95108E1E85106E0F70EDBCFC6
:1017400026F1F80EDBCF27F1E552E7CFD9FF1200E3
:10175000D9CFE6FFE1CFD9FFC6D8F90EDBCFE6FF40
:10176000FA0EDBCFE6FF95D8E552E552F90EDBCF56
:10177000E6FFFA0EDBCFE6FFA1D8E552E552EEC058
:10178000F0F0EFC0F1F0ECC0EEF0EDC0EFF0F90ECC
:10179000DBCF04F0FA0EDBCF05F0066A076A000122
:1017A000F651045C006EF7510558016EF851065869
:1017B000026EF9510758036EFB0EDB500101265DE6
:1017C0000001086EFC0EDB50010127590001096E73
:1017D0000A6A0B6A0050081809E10150091806E16D
:1017E00002500A1803E103500B1800E110E1000158
:1017F000FE5108E1FF5106E1FD0EDBCFECF0FE0EDD
:10180000DBCFEDF0010EFF6FFFC0FEF037D0F90E19
:10181000DBCF04F0FA0EDBCF05F0066A076A0001A1
:10182000F651045C006EF7510558016EF8510658E8
:10183000026EF9510758036EFB0EDB500101265D65
:101840000001086EFC0EDB50010127590001096EF2
:101850000A6A0B6A0050081809E10150091806E1EC
:1018600002500A1803E103500B1800E107E00001E1
:10187000FC5101E1FE6BFA5101E1FF6B0001EB51FC
:1018800004E0EA5102E1EC6BED6BE552E7CFD9FFE2
:101890001200D9CFE6FFE1CFD9FF0001FA050AE136
:1018A000FB5108E1FD0EDBCFF2F0FE0EDBCFF3F0D3
:1018B000F46BF56BE552E7CFD9FF1200D9CFE6FF05
:1018C000E1CFD9FF0001FC050AE1FD5108E1FD0E61
:1018D000DBCFF6F0FE0EDBCFF7F0F86BF96BE552DD
:1018E000E7CFD9FF1200FCC0FDF070DE000904E173
:1018F0000001EE51EF1102E0000E01D0010E0001D7
:10190000FC6FFAC0FBF062DE000903E10001E45164
:0E19100002E0000E01D0010E0001FA6F12007D
:02191E0095989A
:101920008388959A838A94969488949A928A1200CE
:10193000D9CFE6FFE1CFD9FF030EE126DE6ADD6AEB
:10194000020EDB6ADBCF00F0100EE76E0018E8AE87
:1019500002D0E73402D0E750005C14E2829682861F
:10196000D9CFE9FFDACFEAFF010ED890EE36ED3697
:10197000E806FBE18250100B01E0010EDF12020EBF
:10198000DB2AE0D7DECF00F0DDCF01F000C0F3FFAF
:1019900001C0F4FF030EE15C03E200D0E16AE5520E
:1019A000E16EE552E7CFD9FF1200829A82968286D5
:1019B000828A82A8FED712008296829A120024C1DF
:1019C000F3FF25C1F4FF00D01200D9CFE6FFE1CF2D
:1019D000D9FF040EE12691EC0EF0E7DFA9DFF3CF8B
:1019E00000F0F4CF01F0000E00C0DFFF010E01C0D7
:1019F000DBFF020EDB6A030EDB6AD9CFE9FFDACF29
:101A0000EAFFEECF1AF0EECF1BF0EECF1CF0EFCFD7
:101A10001DF0880E1F6E130E206E216A226A35ECAF
:101A20000EF016C01AF017C01BF018C01CF019C039
:101A30001DF01F682068216A226A6DEC0EF01AC042
:101A400024F11BC025F174DFF3CF00F0F4CF01F0D7
:101A5000000E00C0DFFF010E01C0DBFF020EDB6ADB
:101A6000030EDB6AD9CFE9FFDACFEAFFEECF1AF037
:101A7000EECF1BF0EECF1CF0EFCF1DF0880E1F6EE7
:101A8000130E206E216A226A35EC0EF016C01AF091
:101A900017C01BF018C01CF019C01DF01F6820688B
:101AA000216A226A6DEC0EF01AC022F11BC023F1EC
:101AB00083DF040EE15C02E2E16AE552E16EE55289
:101AC000E7CFD9FF120022C1F3FF23C1F4FF00D0FA
:021AD000120002
:0E1AD200D9CFE6FFE1CFD9FF040EE126FD0ECD
:101AE000DBCF00F0FE0EDBCF01F0000E0016FF0E84
:101AF0000116020E00C0DBFF030E01C0DBFF020E69
:101B0000DBCF00F0030EDBCF01F001C000F0016A73
:101B1000020E00C0DBFF030E01C0DBFF020EDB5034
:101B2000DF6EFF0EE76EFD0EDBCF00F0FE0EDBCFAB
:101B300001F0E7500016016A020E00C0DBFF030E41
:101B400001C0DBFF020EDB50E76E010EE7CFDBFFCB
:101B5000D9CF00F0DACF01F000C0F3FF01C0F4FFED
:101B6000040EE15C03E200D0E16AE552E16EE55269
:101B7000E7CFD9FF1200D9CFE6FFE1CFD9FF020EA0
:101B8000E126FE0EDB50DE6EDD6ADECF00F0DDCF3B
:101B900001F000C001F0006A00C0DEFF01C0DDFFFF
:101BA000FD0EDB50DF12DECF00F0DDCF01F000C014
:101BB000F3FF01C0F4FF020EE15C03E200D0E16A32
:0C1BC000E552E16EE552E7CFD9FF1200BC
:041BCC000E0EF66E95
:101BD000000EF76E000EF86E01010900F5501D6F42
:101BE0000900F5501E6F03E11D6701D03DD00900CB
:101BF000F550186F0900F550196F0900F5501A6F6C
:101C000009000900F550E96E0900F550EA6E090077
:101C100009000900F5501B6F0900F5501C6F090001
:101C20000900F6CF1FF1F7CF20F1F8CF21F118C14D
:101C3000F6FF19C1F7FF1AC1F8FF01011B5302E1BA
:101C40001C5307E00900F550EE6E1B07F8E21C0775
:101C5000F9D71FC1F6FF20C1F7FF21C1F8FF01012D
:0A1C60001D07000E1E5BBFD7120027
:061C6A001A501F02F3CF27
:101C700016F0F4CF17F02002F3501726000EF420D0
:101C8000186E1A502102F3501826000EF420196E17
:101C90001A502202F35019261B501F02F350172628
:101CA000F4501822000E19221B502002F35018265F
:101CB000F45019221B502102F35019261C501F0208
:101CC000F3501826F45019221C502002F350192604
:0A1CD0001D501F02F35019261200E8
:061CDA00196A186A176A7E
:101CE000166A200EE76ED8901A361B361C361D3643
:101CF00016361736183619361F50165C20501758EE
:101D0000215018582250195809E31F50165E2050D0
:101D1000175A2150185A2250195A1A2AE72EE4D776
:021D20001200AF
:0E1D2200F10ECD6EFC0ECF6E110ECE6E9E90A9
:101D30009D801200810EB16EB368050EB26EA19245
:041D4000A08212006B
:0C1D4400000EF36E00EE00F0060E01D859
:101D50001200EA6002D0EE6AFCD7F350E96012008C
:041D6000EE6AFCD754
:0C1D640015EE00F025EE00F0F86A259C5A
:101D7000E6EC0DF003EC00F066EC04F0FBD712008B
:101D80000000000000000000000000000000000053
:0C1D900000000000000000000000000047
:041D9C000000000043
:101DA0000000000000000000000000000000000033
:041DB000000000002F
:020000040030CA
:0100010002FC
:010003001EDE
:00000001FF
