:020000040000FA
:0600000059EF0FF01200A1
:020006001200E6
:06000800C2EF03F012003C
:02000E000200EE
:10001000EA1E00000001000016000000CE1E0000D5
:08002000E40000001C000000D8
:08002800D9CFE6FFE1CFD9FFBB
:10003000020EE126FD0EDBCFE9FFFE0EDBCFEAFF6D
:10004000010EEFCFDBFFDF6EDFCF00F00D0EE76EAE
:100050000018E8AE02D0E73402D0E750005C17E2A7
:10006000DFCF00F0016A00BE0168FD0EDB50002406
:10007000E96EFE0EDB500120EA6E010EDBCFE7FFDA
:10008000EF50E71A010EE7CFDBFFDF2ADDD7010EC5
:10009000DB50006E020EE15C03E200D0E16AE55243
:1000A000E16E0050E552E7CFD9FF1200D9CFE6FF4D
:1000B000E1CFD9FF120EE126160EDF6EDE52550E8D
:1000C000DD6EF20EDB50E76E020EE7CFDBFFF30EC4
:1000D000DB50E76E030EE7CFDBFFF40EDB50E76E7D
:1000E000040EE7CFDBFFF50EDBCFE6FFF60EDBCF2E
:1000F000E6FF10EC0EF0E552E552100EF3CFDBFFF9
:10010000110EF4CFDBFF100EDBCFE9FF110EDBCFBA
:10011000EAFF050EEFCFDBFF010EE76E100EDBCF1F
:10012000E9FF110EDBCFEAFFE750E926000EEA22D5
:10013000060EEFCFDBFFF70EDBCFE6FFF80EDBCFCF
:10014000E6FF10EC0EF0E552E552100EF3CFDBFFA8
:10015000110EF4CFDBFF100EDBCFE9FF110EDBCF6A
:10016000EAFF070EEFCFDBFF010EE76E100EDBCFCD
:10017000E9FF110EDBCFEAFFE750E926000EEA2285
:10018000080EEFCFDBFFF90EDBCFE6FFFA0EDBCF79
:10019000E6FF10EC0EF0E552E552100EF3CFDBFF58
:1001A000110EF4CFDBFF100EDBCFE9FF110EDBCF1A
:1001B000EAFF090EEFCFDBFF010EE76E100EDBCF7B
:1001C000E9FF110EDBCFEAFFE750E926000EEA2235
:1001D0000A0EEFCFDBFFFB0EDBCFE6FFFC0EDBCF23
:1001E000E6FF10EC0EF0E552E552100EF3CFDBFF08
:1001F000110EF4CFDBFF100EDBCFE9FF110EDBCFCA
:10020000EAFF0B0EEFCFDBFF010EE76E100EDBCF28
:10021000E9FF110EDBCFEAFFE750E926000EEA22E4
:100220000C0EEFCFDBFFFD0EDBCFE6FFFE0EDBCFCC
:10023000E6FF10EC0EF0E552E552100EF3CFDBFFB7
:10024000110EF4CFDBFF100EDBCFE9FF110EDBCF79
:10025000EAFF0D0EEFCFDBFF010EE76E100EDBCFD6
:10026000E9FF110EDBCFEAFFE750E926000EEA2294
:100270000E0EEFCFDBFFD950020FE66E000EDA2034
:10028000E66ED2DEE552E552E76E0F0EE7CFDBFFFA
:10029000D9CFE9FFDACFEAFFEECF00F0EECF01F0E1
:1002A000EECF02F0EECF03F0EECF04F0EECF05F08C
:1002B000EECF06F0EECF07F0EECF08F0EECF09F06C
:1002C000EECF0AF0EECF0BF0EECF0CF0EECF0DF04C
:1002D000EECF0EF0EFCF0FF0D9CFE9FFDACFEAFF84
:1002E000ED50ED500FC0EDFF0EC0EDFF0DC0EDFF66
:1002F0000CC0EDFF0BC0EDFF0AC0EDFF09C0EDFF24
:1003000008C0EDFF07C0EDFF06C0EDFF05C0EDFF23
:1003100004C0EDFF03C0EDFF02C0EDFF01C0EDFF23
:1003200000C0EFFF120EE15C03E200D0E16AE5528B
:10033000E16EE552E7CFD9FF1200D9CFE6FFE1CF5A
:10034000D9FF0D0EE126F10EDB50DF6EF20EDB5011
:10035000E76E010EE7CFDBFFF30EDB50E76E020E18
:10036000E7CFDBFFF50EDBCFE6FFF40EDBCFE6FFDA
:1003700062EC0EF0E552E552030EF3CFDBFF040E04
:10038000F4CFDBFFF70EDBCFE6FFF60EDBCFE6FFA9
:1003900062EC0EF0E552E552050EF3CFDBFF060EE0
:1003A000F4CFDBFFF90EDBCFE6FFF80EDBCFE6FF85
:1003B00062EC0EF0E552E552070EF3CFDBFF080EBC
:1003C000F4CFDBFFFB0EDBCFE6FFFA0EDBCFE6FF61
:1003D00062EC0EF0E552E552090EF3CFDBFF0A0E98
:1003E000F4CFDBFFFD0EDBCFE6FFFC0EDBCFE6FF3D
:1003F00062EC0EF0E552E5520B0EF3CFDBFF0C0E74
:10040000F4CFDBFFD9CFE9FFDACFEAFFEECF00F080
:10041000EECF01F0EECF02F0EECF03F0EECF04F01E
:10042000EECF05F0EECF06F0EECF07F0EECF08F0FE
:10043000EECF09F0EECF0AF0EECF0BF0EFCF0CF0DD
:10044000D9CFE9FFDACFEAFFED50ED500CC0EDFF58
:100450000BC0EDFF0AC0EDFF09C0EDFF08C0EDFFC6
:1004600007C0EDFF06C0EDFF05C0EDFF04C0EDFFC6
:1004700003C0EDFF02C0EDFF01C0EDFF00C0EFFFC4
:100480000D0EE15C03E200D0E16AE552E16EE55257
:10049000E7CFD9FF1200D9CFE6FFE1CFD9FF120E87
:1004A000E1267FEC0DF0DF6E7FEC0DF0E76E010EC4
:1004B000E7CFDBFF100EDB6ADBCF00F00D0EE76E3F
:1004C0000018E8AE02D0E73402D0E750005C1AE230
:1004D0007FEC0DF0E66ED950020F006EDACF01F01E
:1004E000100EDBCF02F0036A02BE03680050022444
:1004F000E96E01500320EA6EE552E750EF6E100EF0
:10050000DB2ADAD77FEC0DF0E76E0F0EE7CFDBFFCB
:10051000D9CFE9FFDACFEAFFEECF00F0EECF01F05E
:10052000EECF02F0EECF03F0EECF04F0EECF05F009
:10053000EECF06F0EECF07F0EECF08F0EECF09F0E9
:10054000EECF0AF0EECF0BF0EECF0CF0EECF0DF0C9
:10055000EECF0EF0EFCF0FF0D9CFE9FFDACFEAFF01
:10056000ED50ED500FC0EDFF0EC0EDFF0DC0EDFFE3
:100570000CC0EDFF0BC0EDFF0AC0EDFF09C0EDFFA1
:1005800008C0EDFF07C0EDFF06C0EDFF05C0EDFFA1
:1005900004C0EDFF03C0EDFF02C0EDFF01C0EDFFA1
:1005A00000C0EFFF120EE15C03E200D0E16AE55209
:1005B000E16EE552E7CFD9FF1200D9CFE6FFE1CFD8
:1005C000D9FF130EE126160EF36E030EF3CFDBFFF9
:1005D000FE0EDB50E76E040EE7CFDBFFFC0EDBCF39
:1005E000E6FFFD0EDBCFE6FF10EC0EF0E552E55224
:1005F000F3CFDEFFF4CFDDFFDECFE9FFDDCFEAFF93
:10060000050EEFCFDBFFDECFE9FFDDCFEAFF010E06
:10061000E926000EEA22060EEFCFDBFFFA0EDBCF53
:10062000E6FFFB0EDBCFE6FF10EC0EF0E552E552E5
:10063000F3CFDEFFF4CFDDFFDECFE9FFDDCFEAFF52
:10064000070EEFCFDBFFDECFE9FFDDCFEAFF010EC4
:10065000E926000EEA22080EEFCFDBFF040EF36E50
:10066000020EF3CFDBFFDBCF00F00D0EE76E0018BC
:10067000E8AE02D0E73402D0E750005C15E2D95072
:10068000050F006EDACF01F0020EDBCF02F0036A35
:1006900002BE036800500224E96E01500320EA6E96
:1006A000EF6A020EDB2ADFD7D950050FE66E000E87
:1006B000DA20E66EB9DCE552E552E76E120EE7CFBE
:1006C000DBFF030EDBCF00F0040EDBCF01F0050EE5
:1006D000DBCF02F0060EDBCF03F0070EDBCF04F01A
:1006E000080EDBCF05F0090EDBCF06F00A0EDBCFDC
:1006F00007F00B0EDBCF08F00C0EDBCF09F00D0E70
:10070000DBCF0AF00E0EDBCF0BF00F0EDBCF0CF0C1
:10071000100EDBCF0DF0110EDBCF0EF0120EDBCF83
:100720000FF0D9CFE9FFDACFEAFFED50ED500FC05F
:10073000EDFF0EC0EDFF0DC0EDFF0CC0EDFF0BC0D7
:10074000EDFF0AC0EDFF09C0EDFF08C0EDFF07C0D7
:10075000EDFF06C0EDFF05C0EDFF04C0EDFF03C0D7
:10076000EDFF02C0EDFF01C0EDFF00C0EFFF130E73
:10077000E15C03E200D0E16AE552E16EE552E7CFC9
:04078000D9FF12008B
:0C078400DACFE4FFE2CFDAFFE9CFE4FFB8
:10079000EACFE4FFF6CFE4FFF7CFE4FFF5CFE4FFC5
:1007A000F3CFE4FFF4CFE4FFFACFE4FF00EE16F05E
:1007B000100EE80403E3EECFE4FFFBD700EE00F0F9
:1007C000160EE80403E3EECFE4FFFBD7E6529EAA41
:1007D00024D0ABA20AD0AB98AB88AE50E66EF7EC53
:1007E0000DF0E5527AEC0DF018D0AE50E66EF7EC55
:1007F0000DF0E5520001E151E2110FE19BEC0DF02B
:10080000F3CF26F0F4CF27F0100E261801E1275081
:1008100004E1010E0001E16FE26B9EA004D0010132
:10082000010E126F9D90A1A204D00101010E136F61
:10083000A0929EA809D04CEC0DF0000902E09D9812
:1008400003D0E9EC0CF0AD6EE55200EE15F0160E9B
:10085000E80403E3E5CFEDFFFBD700EE25F0100E33
:10086000E80403E3E5CFEDFFFBD7E5CFFAFFE5CFE3
:10087000F4FFE5CFF3FFE5CFF5FFE5CFF7FFE5CFD9
:10088000F6FFE5CFEAFFE5CFE9FFE5CFDAFF11009C
:10089000D1EC09F06AEC07F00AEC0CF07AEC0DF000
:1008A000E4EC0CF00001E16BE26B0101135101E19A
:1008B0009ED00101002B000E0123022303230AC155
:1008C0000CF10BC10DF10EC110F10FC111F1FEECD5
:1008D00007F000090DE001010C510D1109E1010EB5
:1008E00001010A6F0B6B00C104F101C105F103D0D6
:1008F00001010A6B0B6BDBC0E6FFDCC0E6FF0AEC14
:1009000008F0E552E55200090DE001011051111106
:1009100009E1010E01010E6F0F6B00C106F101C16B
:1009200007F103D001010E6B0F6BDBC0E6FFDCC0EB
:10093000E6FF69EC08F0E552E552000904E000C169
:1009400008F101C109F100C1E6FF01C1E6FFDFC006
:10095000E6FFE0C0E6FFDBC0E6FFDCC0E6FFEAEC56
:1009600008F0006E060EE15E0050DDC0E6FFDEC05E
:10097000E6FFDFC0E6FFE0C0E6FF08C1E6FF09C111
:10098000E6FF06C1E6FF07C1E6FF04C1E6FF05C1B9
:10099000E6FF00C1E6FF01C1E6FF6DEC07F0006E67
:1009A0000C0EE15E0050D4C0E6FFD5C0E6FFD6C015
:1009B000E6FFD7C0E6FFD8C0E6FFD9C0E6FFDAC041
:1009C000E6FFDBC0E6FFDCC0E6FFDDC0E6FFDEC021
:1009D000E6FFDFC0E6FFE0C0E6FFB6EC08F0006E21
:1009E0000D0EE15E005041EC0FF00101136B0101AF
:1009F000125134E031EC08F0F3CF04F0F4CF05F0FD
:100A000004C0E6FF05C0E6FF5AEC0CF0F3CF06F099
:100A1000F4CF07F006C0E6FF07C0E6FF75EC0BF069
:100A2000E552E552E552E5521AC000F01BC001F054
:100A30001CC002F01DC003F000C0E6FF01C0E6FFCD
:100A400002C0E6FF03C0E6FFDAEC0BF0E552E55228
:100A5000E552E55260EC0CF00101126B0001010E51
:100A6000E11901E1E25101E083D19BEC0DF0F3CFFC
:100A700000F0F4CF01F0100E001801E1015001E088
:100A800076D1100EE12643EC0AF0EECFC4F0EECFA3
:100A9000C5F0EECFC6F0EECFC7F0EECFC8F0EECF88
:100AA000C9F0EECFCAF0EECFCBF0EECFCCF0EECF68
:100AB000CDF0EECFCEF0EECFCFF0EECFD0F0EECF48
:100AC000D1F0EECFD2F0EECFD3F0006E100EE15E9B
:100AD00000500001C45101E147D1550E0001C55D30
:100AE00064E1C4C0E6FFC5C0E6FFC6C0E6FFC7C0FC
:100AF000E6FFC8C0E6FFC9C0E6FFCAC0E6FFCBC03C
:100B0000E6FFCCC0E6FFCDC0E6FFCEC0E6FFCFC01B
:100B1000E6FFD0C0E6FFD1C0E6FFD2C0E6FFD3C0FB
:100B2000E6FF9DEC01F0EECFD4F0EECFD5F0EECFA6
:100B3000D6F0EECFD7F0EECFD8F0EECFD9F0EECFA3
:100B4000DAF0EECFDBF0EECFDCF0EECFDDF0EECF83
:100B5000DEF0EECFDFF0EECFE0F0006E100EE15EE3
:100B60000050D4C0E6FFD5C0E6FFD6C0E6FFD7C030
:100B7000E6FFD8C0E6FFD9C0E6FFDAC0E6FFDBC07B
:100B8000E6FFDCC0E6FFDDC0E6FFDEC0E6FFDFC05B
:100B9000E6FFE0C0E6FFB6EC08F0006E0D0EE15E89
:100BA00000500001E16BE26BDED0490E0001C55D33
:100BB0006CE1030EE126D4C0E6FFD5C0E6FFD6C047
:100BC000E6FFD7C0E6FFD8C0E6FFD9C0E6FFDAC02F
:100BD000E6FFDBC0E6FFDCC0E6FFDDC0E6FFDEC00F
:100BE000E6FFDFC0E6FFE0C0E6FF56EC00F0EECF28
:100BF00000F0EECF01F0EECF02F0EECF03F0EECF3B
:100C000004F0EECF05F0EECF06F0EECF07F0EECF1A
:100C100008F0EECF09F0EECF0AF0EECF0BF0EECFFA
:100C20000CF0EECF0DF0EECF0EF0EECF0FF0106E19
:100C3000100EE15E105000C0E6FF01C0E6FF02C0EA
:100C4000E6FF03C0E6FF04C0E6FF05C0E6FF06C0FE
:100C5000E6FF07C0E6FF08C0E6FF09C0E6FF0AC0DE
:100C6000E6FF0BC0E6FF0CC0E6FF0DC0E6FF0EC0BE
:100C7000E6FF0FC0E6FF01EC0AF0116E100EE15E18
:100C800011500001E16BE26B6ED0470E0001C55DB3
:100C90006AE10B0EE12631EC08F0F3CF10F0F4CF4F
:100CA00011F010C0E6FF11C0E6FF5AEC0CF0F3CFD4
:100CB00012F0F4CF13F012C0E6FF13C0E6FF470EA8
:100CC000E66EDDEC02F0EECF00F0EECF01F0EECFFD
:100CD00002F0EECF03F0EECF04F0EECF05F0EECF52
:100CE00006F0EECF07F0EECF08F0EECF09F0EECF32
:100CF0000AF0EECF0BF0EECF0CF0EECF0DF0EECF12
:100D00000EF0EECF0FF0146E100EE15E145000C026
:100D1000E6FF01C0E6FF02C0E6FF03C0E6FF04C035
:100D2000E6FF05C0E6FF06C0E6FF07C0E6FF08C015
:100D3000E6FF09C0E6FF0AC0E6FF0BC0E6FF0CC0F5
:100D4000E6FF0DC0E6FF0EC0E6FF0FC0E6FF01ECB8
:100D50000AF0156E100EE15E155038EC0FF0020E21
:100D60000001E16FE26B03D00001E16BE26BAED0FA
:100D70000001020EE11901E1E25101E0A7D09BEC74
:100D80000DF0F3CF00F0F4CF01F0100E001801E1E8
:100D9000015001E09BD0100EE12643EC0AF0EECFAB
:100DA000C4F0EECFC5F0EECFC6F0EECFC7F0EECF79
:100DB000C8F0EECFC9F0EECFCAF0EECFCBF0EECF59
:100DC000CCF0EECFCDF0EECFCEF0EECFCFF0EECF39
:100DD000D0F0EECFD1F0EECFD2F0EECFD3F0006E68
:100DE000100EE15E00500001C45170E0620E00017F
:100DF000C55D6CE10B0EE12631EC08F0F3CF10F08D
:100E0000F4CF11F010C0E6FF11C0E6FF5AEC0CF071
:100E1000F3CF12F0F4CF13F012C0E6FF13C0E6FFD9
:100E2000620EE66EDDEC02F0EECF00F0EECF01F0E8
:100E3000EECF02F0EECF03F0EECF04F0EECF05F0F0
:100E4000EECF06F0EECF07F0EECF08F0EECF09F0D0
:100E5000EECF0AF0EECF0BF0EECF0CF0EECF0DF0B0
:100E6000EECF0EF0EECF0FF0146E100EE15E1450C8
:100E700000C0E6FF01C0E6FF02C0E6FF03C0E6FFD8
:100E800004C0E6FF05C0E6FF06C0E6FF07C0E6FFB8
:100E900008C0E6FF09C0E6FF0AC0E6FF0BC0E6FF98
:100EA0000CC0E6FF0DC0E6FF0EC0E6FF0FC0E6FF78
:100EB00001EC0AF0156E100EE15E15500001E16BB9
:100EC000E26B9D909E90CD900101126BD38E03003A
:040ED000ECD412004C
:0C0ED400938041EF0FF0D9CFE6FFE1CF93
:100EE000D9FFE6C0E7F0E4C0E5F08150010B000156
:100EF000E46FD950FB0FE96EFF0EDA20EA6E000EA8
:100F0000D880EE54000EED541EE2FD0EDBCF02F051
:100F1000FE0EDBCF03F0FB0EDB50025C006EFC0E1E
:100F2000DB500358016EF50EDBCF04F0F60EDBCF7D
:100F300005F00050045C0150055802E2000E01D09B
:100F4000010EE66F01D0E66BE8C0E9F0D950F90F69
:100F5000E96EFF0EDA20EA6E000ED880EE54000E25
:100F6000ED541EE2FD0EDBCF02F0FE0EDBCF03F0F0
:100F7000F90EDB50025C006EFA0EDB500358016E76
:100F8000F50EDBCF04F0F60EDBCF05F00050045C6D
:100F90000150055802E2000E01D0010EE86F01D0A9
:100FA000E86BEAC0EBF0D950F70FE96EFF0EDA20DC
:100FB000EA6E000ED880EE54000EED541AE2F30EE5
:100FC000DBCFE6FFF40EDBCFE6FFF70EDBCFE6FF6D
:100FD000F80EDBCFE6FFFD0EDBCFE6FFFE0EDBCF2C
:100FE000E6FF93D8006E060EE15E00500001EA6F46
:100FF00001D0EA6BE552E7CFD9FF12000001E651BC
:1010000006E1E55104E0E45102E0010E02D0000ED9
:1010100000D01200D9CFE6FFE1CFD9FF0001E8519F
:1010200011E1EEC000F0EFC001F0FD0EDB50001842
:1010300003E1FE0EDB50011805E1F051F11102E170
:10104000010E02D0000E00D0E552E7CFD9FF12000A
:101050000001E651E81102E0010E02D0000E00D0BE
:1010600012000001E65115E0E7510AE1530EE66E69
:10107000560EE66E62EC0EF0E552E55229D028D00D
:10108000290EE66E280EE66E62EC0EF0E552E55291
:101090001FD0E85115E0E9510AE1500EE66E560EF8
:1010A000E66E62EC0EF0E552E55212D011D0290E38
:1010B000E66E280EE66E62EC0EF0E552E55208D0C0
:1010C0002D0EE66EE66E62EC0EF0E552E55200D0B3
:1010D0001200D9CFE6FFE1CFD9FFEEC000F0EFC09C
:1010E00001F0FD0EDB50001803E1FE0EDB5001188D
:1010F00006E10001F051F11102E1010E02D0000EF3
:1011000000D0E552E7CFD9FF1200D9CFE6FFE1CFFB
:10111000D9FFD950FB0FE96EFF0EDA20EA6E000E00
:10112000D880EE54000EED541BE2FD0EDBCF02F032
:10113000FE0EDBCF03F0FB0EDB50025C006EFC0EFC
:10114000DB500358016EF90EDBCF04F0FA0EDBCF53
:1011500005F00050045C0150055802E3010E02D076
:10116000000E00D0E552E7CFD9FF1200D9CFE6FF3D
:10117000E1CFD9FF0001E7511FE1E6511DE0F40E78
:10118000DB5013E0F50EDBCF00F0F60EDBCF01F005
:10119000F70EDB50000100240101246FF80EDB5034
:1011A000000101200101256F06D0F70EDBCF24F1ED
:1011B000F80EDBCF25F10AD0E95108E1E85106E04D
:1011C000F70EDBCF24F1F80EDBCF25F1E552E7CFA8
:1011D000D9FF1200D9CFE6FFE1CFD9FFC6D8F90E6B
:1011E000DBCFE6FFFA0EDBCFE6FF95D8E552E552FE
:1011F000F90EDBCFE6FFFA0EDBCFE6FFA1D8E55212
:10120000E552EEC0F0F0EFC0F1F0ECC0EEF0EDC052
:10121000EFF0F90EDBCF04F0FA0EDBCF05F0066A33
:10122000076A0001F651045C006EF7510558016E23
:10123000F8510658026EF9510758036EFB0EDB5049
:101240000101245D0001086EFC0EDB5001012559EF
:101250000001096E0A6A0B6A0050081809E1015082
:10126000091806E102500A1803E103500B1800E1C7
:1012700010E10001FE5108E1FF5106E1FD0EDBCF58
:10128000ECF0FE0EDBCFEDF0010EFF6FFFC0FEF0C5
:1012900037D0F90EDBCF04F0FA0EDBCF05F0066A8B
:1012A000076A0001F651045C006EF7510558016EA3
:1012B000F8510658026EF9510758036EFB0EDB50C9
:1012C0000101245D0001086EFC0EDB50010125596F
:1012D0000001096E0A6A0B6A0050081809E1015002
:1012E000091806E102500A1803E103500B1800E147
:1012F00007E00001FC5101E1FE6BFA5101E1FF6BD7
:101300000001EB5104E0EA5102E1EC6BED6BE552B8
:10131000E7CFD9FF1200D9CFE6FFE1CFD9FF000117
:10132000FA050AE1FB5108E1FD0EDBCFF2F0FE0EFB
:10133000DBCFF3F0F46BF56BE552E7CFD9FF12008A
:10134000D9CFE6FFE1CFD9FF0001FC050AE1FD514D
:1013500008E1FD0EDBCFF6F0FE0EDBCFF7F0F86B09
:10136000F96BE552E7CFD9FF1200FCC0FDF070DE4B
:10137000000904E10001EE51EF1102E0000E01D07E
:10138000010E0001FC6FFAC0FBF062DE000903E110
:101390000001E45102E0000E01D0010E0001FA6FDD
:0213A000120039
:0E13A200100EAF6E948C948EAC98AB8EAC8A0D
:1013B000AC84B886AB88D08E9F8A9F88F28E9D8A37
:1013C0001200D9CFE6FFE1CFD9FFFE0EDB50470870
:1013D0000CE0FE0EDB50490808E0FE0EDB50620810
:1013E00004E0FE0EDB50550805E1010EF36EF46AD1
:1013F00004D003D0F36AF46A00D0E552E7CFD9FFF6
:101400001200D9CFE6FFE1CFD9FFE652EF0EDBCFD6
:10141000E6FF61EC0DF0E552F00EDBCFE6FF61EC8C
:101420000DF0E552DF6ADFCF00F00D0EE76E001819
:10143000E8AE02D0E73402D0E750005C18E2D950A1
:10144000F10F006EFF0EDA20016EDFCF02F0036AAB
:1014500002BE036800500224E96E01500320EA6EC8
:10146000EF50E66E61EC0DF0E552DF2ADCD7FE0EA0
:10147000DBCFE6FF61EC0DF0E5529D88E552E552C9
:10148000E7CFD9FF1200D9CFE6FFE1CFD9FF110E88
:10149000E126100EE1264BEC02F0EECF00F0EECF8D
:1014A00001F0EECF02F0EECF03F0EECF04F0EECF7E
:1014B00005F0EECF06F0EECF07F0EECF08F0EECF5E
:1014C00009F0EECF0AF0EECF0BF0EECF0CF0EECF3E
:1014D0000DF0EECF0EF0EECF0FF0106E100EE15EBD
:1014E000105000C0DFFF010E01C0DBFF020E02C082
:1014F000DBFF030E03C0DBFF040E04C0DBFF050EA1
:1015000005C0DBFF060E06C0DBFF070E07C0DBFFD2
:10151000080E08C0DBFF090E09C0DBFF0A0E0AC077
:10152000DBFF0B0E0BC0DBFF0C0E0CC0DBFF0D0E48
:101530000DC0DBFF0E0E0EC0DBFF0F0E0FC0DBFF7A
:10154000D950020FE66E000EDA20E66E14EC00F0C1
:10155000E552E552E76E100EE7CFDBFF010EDBCF61
:10156000E6FF2FDFE552F3CF00F0F4CF01F000509B
:10157000011056E0160EDF5C53E1100EDB50F36EE7
:101580000F0EDB50F35C4CE1D9CFE9FFDACFEAFF75
:10159000EECF00F0EECF01F0EECF02F0EECF03F091
:1015A000EECF04F0EECF05F0EECF06F0EECF07F071
:1015B000EECF08F0EECF09F0EECF0AF0EECF0BF051
:1015C000EECF0CF0EECF0DF0EECF0EF0EFCF0FF030
:1015D000D9CFE9FFDACFEAFFED50ED500FC0EDFFB4
:1015E0000EC0EDFF0DC0EDFF0CC0EDFF0BC0EDFF19
:1015F0000AC0EDFF09C0EDFF08C0EDFF07C0EDFF19
:1016000006C0EDFF05C0EDFF04C0EDFF03C0EDFF18
:1016100002C0EDFF01C0EDFF00C0EFFF4DD04CD088
:10162000DF6AD9CFE9FFDACFEAFFEECF00F0EECFE5
:1016300001F0EECF02F0EECF03F0EECF04F0EECFEC
:1016400005F0EECF06F0EECF07F0EECF08F0EECFCC
:1016500009F0EECF0AF0EECF0BF0EECF0CF0EECFAC
:101660000DF0EECF0EF0EFCF0FF0D9CFE9FFDACFCC
:10167000EAFFED50ED500FC0EDFF0EC0EDFF0DC0C5
:10168000EDFF0CC0EDFF0BC0EDFF0AC0EDFF09C080
:10169000EDFF08C0EDFF07C0EDFF06C0EDFF05C080
:1016A000EDFF04C0EDFF03C0EDFF02C0EDFF01C080
:1016B000EDFF00C0EFFF00D0110EE15C02E2E16A35
:1016C000E552E16EE552E7CFD9FF1200D9CFE6FF30
:1016D000E1CFD9FFFE0EDBCFE6FF61EC0DF0E55266
:1016E0009D88E552E7CFD9FF1200D9CFE6FFE1CFC1
:1016F000D9FF060EE126FD0EDBCFE6FFFE0EDBCFA7
:10170000E6FF10EC0EF0E552E552F3CFDEFFF4CF2A
:10171000DDFFDECFE9FFDDCFEAFF020EEFCFDBFF1B
:10172000DECFE9FFDDCFEAFF010EE926000EEA2257
:10173000030EEFCFDBFFFB0EDBCFE6FFFC0EDBCFB4
:10174000E6FF10EC0EF0E552E552F3CFDEFFF4CFEA
:10175000DDFFDECFE9FFDDCFEAFF040EEFCFDBFFD9
:10176000DECFE9FFDDCFEAFF010EE926000EEA2217
:10177000050EEFCFDBFF020EDBCF00F0030EDBCF59
:1017800001F0040EDBCF02F0050EDBCF03F000C04A
:101790001AF001C01BF002C01CF003C01DF0060EC1
:1017A000E15C03E200D0E16AE552E16EE552E7CF89
:1017B000D9FF1200D9CFE6FFE1CFD9FFE652DF6AA9
:1017C000DFCF00F0040EE76E0018E8AE02D0E73479
:1017D00002D0E750005C18E2D950FB0F006EFF0EFC
:1017E000DA20016EDFCF02F0036A02BE0368005008
:1017F0000224E96E01500320EA6EEF50E66E61ECC0
:101800000DF0E552DF2ADCD79D88E552E552E7CF9F
:04181000D9FF1200EA
:0C18140095988388959A838A949694880E
:10182000949A928A1200D9CFE6FFE1CFD9FF030E36
:10183000E126DE6ADD6A020EDB6ADBCF00F0100E05
:10184000E76E0018E8AE02D0E73402D0E750005C43
:1018500014E282968286D9CFE9FFDACFEAFF010E41
:10186000D890EE36ED36E806FBE18250100B01E031
:10187000010EDF12020EDB2AE0D7DECF00F0DDCF53
:1018800001F000C0F3FF01C0F4FF030EE15C03E2CE
:1018900000D0E16AE552E16EE552E7CFD9FF1200D0
:1018A000829A82968286828A82A8FED712008296C7
:1018B000829A120022C1F3FF23C1F4FF00D012006C
:1018C000D9CFE6FFE1CFD9FF040EE12638EC0FF0C7
:1018D000E7DFA9DFF3CF00F0F4CF01F0000E00C086
:1018E000DFFF010E01C0DBFF020EDB6A030EDB6AC5
:1018F000D9CFE9FFDACFEAFFEECF1AF0EECF1BF037
:10190000EECF1CF0EFCF1DF0880E1F6E130E206E71
:10191000216A226ADCEC0EF016C01AF017C01BF028
:1019200018C01CF019C01DF01F682068216A226AC7
:1019300014EC0FF01AC022F11BC023F174DFF3CFB7
:1019400000F0F4CF01F0000E00C0DFFF010E01C077
:10195000DBFF020EDB6A030EDB6AD9CFE9FFDACFC9
:10196000EAFFEECF1AF0EECF1BF0EECF1CF0EFCF78
:101970001DF0880E1F6E130E206E216A226ADCECA9
:101980000EF016C01AF017C01BF018C01CF019C0DA
:101990001DF01F682068216A226A14EC0FF01AC03B
:1019A00020F11BC021F183DF040EE15C02E2E16A59
:1019B000E552E16EE552E7CFD9FF120020C1F3FFF7
:0819C00021C1F4FF00D0120068
:0819C8000001816B81C080F079
:1019D0001200D9CFE6FFE1CFD9FFE65280C0E9FF80
:1019E000EA6AE9BEEA68820EE926000EEA22EFCF33
:1019F000DFFF0001802B1F0E8015806FDF5000D0AD
:101A0000E552E552E7CFD9FF1200D9CFE6FFE1CF8B
:101A1000D9FF020EE12600018151E76E8019E8AE80
:101A200002D0803503D0E750D88080550BE3805139
:101A3000815D006E016A00BE016800C0DEFF01C06A
:101A4000DDFF17D08051E76E8119E8AE02D0E73490
:101A500002D0E750815D0DE2200E026E8151805D63
:101A6000025C006E016A00BE016800C0DEFF01C0BA
:101A7000DDFFDECF00F0DDCF01F000C0F3FF01C0DD
:101A8000F4FF020EE15C03E200D0E16AE552E16E90
:101A9000E552E7CFD9FF120000018151805D03E1DB
:101AA000010E03D002D0000E00D0120000018129E7
:101AB0001F0B805D03E1010E03D002D0000E00D0A9
:101AC0001200D9CFE6FFE1CFD9FF81C0E9FFEA6A72
:101AD000E9BEEA68820EE926000EEA22FE0EDBCF9E
:101AE000EFFF0001812B1F0E8115816FE552E7CFBB
:041AF000D9FF120008
:0C1AF4000001A36BA3C0A2F01200D9CF28
:101B0000E6FFE1CFD9FFE652A2C0E9FFEA6AE9BEEB
:101B1000EA68A40EE926000EEA22EFCFDFFF0001FB
:101B2000A22B1F0EA215A26FDF5000D0E552E55286
:101B3000E7CFD9FF1200D9CFE6FFE1CFD9FF020EE0
:101B4000E1260001A351E76EA219E8AE02D0A2354A
:101B500003D0E750D880A2550BE3A251A35D006EDD
:101B6000016A00BE016800C0DEFF01C0DDFF17D0C2
:101B7000A251E76EA319E8AE02D0E73402D0E750D5
:101B8000A35D0DE2200E026EA351A25D025C006E09
:101B9000016A00BE016800C0DEFF01C0DDFFDECFCC
:101BA00000F0DDCF01F000C0F3FF01C0F4FF020E32
:101BB000E15C03E200D0E16AE552E16EE552E7CF75
:101BC000D9FF12000001A351A25D03E1010E03D071
:101BD00002D0000E00D012000001A3291F0BA25D4D
:101BE00003E1010E03D002D0000E00D01200D9CFC5
:101BF000E6FFE1CFD9FFA3C0E9FFEA6AE9BEEA68E0
:101C0000A40EE926000EEA22FE0EDBCFEFFF000154
:101C1000A32B1F0EA315A36FE552E7CFD9FF120028
:101C2000D9CFE6FFE1CFD9FF040EE126FD0EDBCFD1
:101C300000F0FE0EDBCF01F0000E0016FF0E0116C5
:101C4000020E00C0DBFF030E01C0DBFF020EDBCF84
:101C500000F0030EDBCF01F001C000F0016A020EBC
:101C600000C0DBFF030E01C0DBFF020EDB50DF6EA6
:101C7000FF0EE76EFD0EDBCF00F0FE0EDBCF01F0B6
:101C8000E7500016016A020E00C0DBFF030E01C020
:101C9000DBFF020EDB50E76E010EE7CFDBFFD9CF93
:101CA00000F0DACF01F000C0F3FF01C0F4FF040E32
:101CB000E15C03E200D0E16AE552E16EE552E7CF74
:101CC000D9FF1200D9CFE6FFE1CFD9FF020EE126FE
:101CD000FE0EDB50DE6EDD6ADECF00F0DDCF01F000
:101CE00000C001F0006A00C0DEFF01C0DDFFFD0E94
:101CF000DB50DF12DECF00F0DDCF01F000C0F3FFDC
:101D000001C0F4FF020EE15C03E200D0E16AE5529B
:0A1D1000E16EE552E7CFD9FF1200A3
:061D1A000E0EF66E000E35
:101D2000F76E000EF86E01010900F5501B6F0900F7
:101D3000F5501C6F03E11B6701D03DD00900F55041
:101D4000166F0900F550176F0900F550186F09005C
:101D50000900F550E96E0900F550EA6E0900090026
:101D60000900F550196F0900F5501A6F09000900B4
:101D7000F6CF1DF1F7CF1EF1F8CF1FF116C1F6FF18
:101D800017C1F7FF18C1F8FF0101195302E11A53F7
:101D900007E00900F550EE6E1907F8E21A07F9D7C7
:101DA0001DC1F6FF1EC1F7FF1FC1F8FF01011B0790
:081DB000000E1C5BBFD71200FE
:081DB8001A501F02F3CF16F0D0
:101DC000F4CF17F02002F3501726000EF420186EFF
:101DD0001A502102F3501826000EF420196E1A50E2
:101DE0002202F35019261B501F02F3501726F450FD
:101DF0001822000E19221B502002F3501826F4500E
:101E000019221B502102F35019261C501F02F350B7
:101E10001826F45019221C502002F35019261D5088
:081E20001F02F3501926120005
:081E2800196A186A176A166AAC
:101E3000200EE76ED8901A361B361C361D36163625
:101E40001736183619361F50165C20501758215077
:101E500018582250195809E31F50165E2050175A7F
:101E60002150185A2250195A1A2AE72EE4D7120084
:101E7000F10ECD6EFC0ECF6E110ECE6E9E909D803B
:101E80001200810EB16EB368050EB26EA192A082EF
:021E900012003E
:0E1E9200000EF36E00EE00F0060E01D81200F6
:101EA000EA6002D0EE6AFCD7F350E9601200EE6AF5
:021EB000FCD75D
:0E1EB20015EE00F025EE00F0F86A259C8DEC90
:0E1EC0000EF003EC00F048EC04F0FBD712002B
:021ECE00000012
:101ED0000000000000000000000000000000000002
:0A1EE00000000000000000000000F8
:061EEA00000000000000F2
:101EF00000000000000000000000000000000000E2
:020000040030CA
:0100010002FC
:010003001EDE
:00000001FF
