:020000040000FA
:0600000022EF0EF01200D9
:020006000000F8
:06000800DDEF03F0120021
:02000E001200DE
:060018004FEF04F012009E
:02001E00D9CF38
:10002000E6FFE1CFD9FF020EE126FD0EDBCFE9FFAF
:10003000FE0EDBCFEAFF010EEFCFDBFFDF6EDFCF7F
:1000400014F00D0EE76E1418E8AE02D0E73402D0BB
:10005000E750145C17E2DFCF14F0156A14BE156880
:10006000FD0EDB501424E96EFE0EDB501520EA6E07
:10007000010EDBCFE7FFEF50E71A010EE7CFDBFF02
:10008000DF2ADDD7010EDB50146E020EE15C03E2C5
:1000900000D0E16AE552E16E1450E552E7CFD9FF96
:1000A0001200D9CFE6FFE1CFD9FF120EE126160EDE
:1000B000DF6EDE52550EDD6EF20EDB50E76E020E85
:1000C000E7CFDBFFF30EDB50E76E030EE7CFDBFF7E
:1000D000F40EDB50E76E040EE7CFDBFFF50EDBCF4F
:1000E000E6FFF60EDBCFE6FF4CEC0DF0E552E552F5
:1000F000100EF3CFDBFF110EF4CFDBFF100EDBCFC2
:10010000E9FF110EDBCFEAFF050EEFCFDBFF010E9B
:10011000E76E100EDBCFE9FF110EDBCFEAFFE750F1
:10012000E926000EEA22060EEFCFDBFFF50EDBCF4D
:10013000E6FFF60EDBCFE6FF4CEC0DF0E552E552A4
:10014000100EF3CFDBFF110EF4CFDBFF100EDBCF71
:10015000E9FF110EDBCFEAFF070EEFCFDBFF010E49
:10016000E76E100EDBCFE9FF110EDBCFEAFFE750A1
:10017000E926000EEA22080EEFCFDBFFF70EDBCFF9
:10018000E6FFF80EDBCFE6FF4CEC0DF0E552E55252
:10019000100EF3CFDBFF110EF4CFDBFF100EDBCF21
:1001A000E9FF110EDBCFEAFF090EEFCFDBFF010EF7
:1001B000E76E100EDBCFE9FF110EDBCFEAFFE75051
:1001C000E926000EEA220A0EEFCFDBFFF90EDBCFA5
:1001D000E6FFFA0EDBCFE6FF4CEC0DF0E552E55200
:1001E000100EF3CFDBFF110EF4CFDBFF100EDBCFD1
:1001F000E9FF110EDBCFEAFF0B0EEFCFDBFF010EA5
:10020000E76E100EDBCFE9FF110EDBCFEAFFE75000
:10021000E926000EEA220C0EEFCFDBFFFB0EDBCF50
:10022000E6FFFC0EDBCFE6FF4CEC0DF0E552E552AD
:10023000100EF3CFDBFF110EF4CFDBFF100EDBCF80
:10024000E9FF110EDBCFEAFF0D0EEFCFDBFF010E52
:10025000E76E100EDBCFE9FF110EDBCFEAFFE750B0
:10026000E926000EEA220E0EEFCFDBFFD950020F77
:10027000E66E000EDA20E66ED2DEE552E552E76E5B
:100280000F0EE7CFDBFFD9CFE9FFDACFEAFFEECFE2
:1002900014F0EECF15F0EECF16F0EECF17F0EECF54
:1002A00018F0EECF19F0EECF1AF0EECF1BF0EECF34
:1002B0001CF0EECF1DF0EECF1EF0EECF1FF0EECF14
:1002C00020F0EECF21F0EECF22F0EFCF23F0D9CF08
:1002D000E9FFDACFEAFFED50ED5023C0EDFF22C079
:1002E000EDFF21C0EDFF20C0EDFF1FC0EDFF1EC0E0
:1002F000EDFF1DC0EDFF1CC0EDFF1BC0EDFF1AC0E0
:10030000EDFF19C0EDFF18C0EDFF17C0EDFF16C0DF
:10031000EDFF15C0EDFF14C0EFFF120EE15C03E22C
:1003200000D0E16AE552E16EE552E7CFD9FF120055
:10033000D9CFE6FFE1CFD9FF0D0EE126F10EDB505C
:10034000DF6EF20EDB50E76E010EE7CFDBFFF30E40
:10035000DB50E76E020EE7CFDBFFF50EDBCFE6FFEB
:10036000F40EDBCFE6FF87EC0DF0E552E552030E0D
:10037000F3CFDBFF040EF4CFDBFFF70EDBCFE6FF9E
:10038000F60EDBCFE6FF87EC0DF0E552E552050EE9
:10039000F3CFDBFF060EF4CFDBFFF90EDBCFE6FF7A
:1003A000F80EDBCFE6FF87EC0DF0E552E552070EC5
:1003B000F3CFDBFF080EF4CFDBFFFB0EDBCFE6FF56
:1003C000FA0EDBCFE6FF87EC0DF0E552E552090EA1
:1003D000F3CFDBFF0A0EF4CFDBFFFD0EDBCFE6FF32
:1003E000FC0EDBCFE6FF87EC0DF0E552E5520B0E7D
:1003F000F3CFDBFF0C0EF4CFDBFFD9CFE9FFDACF71
:10040000EAFFEECF14F0EECF15F0EECF16F0EECF00
:1004100017F0EECF18F0EECF19F0EECF1AF0EECFC6
:100420001BF0EECF1CF0EECF1DF0EECF1EF0EECFA6
:100430001FF0EFCF20F0D9CFE9FFDACFEAFFED5080
:10044000ED5020C0EDFF1FC0EDFF1EC0EDFF1DC031
:10045000EDFF1CC0EDFF1BC0EDFF1AC0EDFF19C082
:10046000EDFF18C0EDFF17C0EDFF16C0EDFF15C082
:10047000EDFF14C0EFFF0D0EE15C03E200D0E16A76
:10048000E552E16EE552E7CFD9FF1200D9CFE6FF82
:10049000E1CFD9FF120EE126FD0EDBCFE6FFFE0E07
:1004A000DBCFE6FF55EC0AF0E552E552DF6EFD0EBC
:1004B000DBCFE6FFFE0EDBCFE6FF55EC0AF0E552A0
:1004C000E552E76E010EE7CFDBFF100EDB6ADBCFF4
:1004D00014F00D0EE76E1418E8AE02D0E73402D027
:1004E000E750145C22E2FD0EDBCFE6FFFE0EDBCF11
:1004F000E6FF55EC0AF0E552E552E66ED950020FE0
:10050000146EDACF15F0100EDBCF16F0176A16BE98
:10051000176814501624E96E15501720EA6EE5523C
:10052000E750EF6E100EDB2AD2D7FD0EDBCFE6FFD1
:10053000FE0EDBCFE6FF55EC0AF0E552E552E76E22
:100540000F0EE7CFDBFFD9CFE9FFDACFEAFFEECF1F
:1005500014F0EECF15F0EECF16F0EECF17F0EECF91
:1005600018F0EECF19F0EECF1AF0EECF1BF0EECF71
:100570001CF0EECF1DF0EECF1EF0EECF1FF0EECF51
:1005800020F0EECF21F0EECF22F0EFCF23F0D9CF45
:10059000E9FFDACFEAFFED50ED5023C0EDFF22C0B6
:1005A000EDFF21C0EDFF20C0EDFF1FC0EDFF1EC01D
:1005B000EDFF1DC0EDFF1CC0EDFF1BC0EDFF1AC01D
:1005C000EDFF19C0EDFF18C0EDFF17C0EDFF16C01D
:1005D000EDFF15C0EDFF14C0EFFF120EE15C03E26A
:1005E00000D0E16AE552E16EE552E7CFD9FF120093
:1005F000D9CFE6FFE1CFD9FF130EE126160EF36E39
:10060000030EF3CFDBFFFE0EDB50E76E040EE7CFE9
:10061000DBFFFA0EDBCFE6FFFB0EDBCFE6FF4CEC99
:100620000DF0E552E552F3CFDEFFF4CFDDFFDECF74
:10063000E9FFDDCFEAFF050EEFCFDBFFDECFE9FFFD
:10064000DDCFEAFF010EE926000EEA22060EEFCF0B
:10065000DBFFFC0EDBCFE6FFFD0EDBCFE6FF4CEC55
:100660000DF0E552E552F3CFDEFFF4CFDDFFDECF34
:10067000E9FFDDCFEAFF070EEFCFDBFFDECFE9FFBB
:10068000DDCFEAFF010EE926000EEA22080EEFCFC9
:10069000DBFF040EF36E020EF3CFDBFFDBCF14F0B3
:1006A0000D0EE76E1418E8AE02D0E73402D0E75022
:1006B000145C15E2D950050F146EDACF15F0020E56
:1006C000DBCF16F0176A16BE176814501624E96EB1
:1006D00015501720EA6EEF6A020EDB2ADFD7D950D9
:1006E000050FE66E000EDA20E66E99DCE552E55263
:1006F000E76E120EE7CFDBFF030EDBCF14F0040E24
:10070000DBCF15F0050EDBCF16F0060EDBCF17F0B2
:10071000070EDBCF18F0080EDBCF19F0090EDBCF88
:100720001AF00A0EDBCF1BF00B0EDBCF1CF00C0E09
:10073000DBCF1DF00D0EDBCF1EF00E0EDBCF1FF05A
:100740000F0EDBCF20F0100EDBCF21F0110EDBCF30
:1007500022F0120EDBCF23F0D9CFE9FFDACFEAFF88
:10076000ED50ED5023C0EDFF22C0EDFF21C0EDFFA5
:1007700020C0EDFF1FC0EDFF1EC0EDFF1DC0EDFF4F
:100780001CC0EDFF1BC0EDFF1AC0EDFF19C0EDFF4F
:1007900018C0EDFF17C0EDFF16C0EDFF15C0EDFF4F
:1007A00014C0EFFF130EE15C03E200D0E16AE552F2
:0A07B000E16EE552E7CFD9FF120019
:0607BA00DACFE4FFE2CFFC
:1007C000DAFFE9CFE4FFEACFE4FFF6CFE4FFF7CFAB
:1007D000E4FFF5CFE4FFF3CFE4FFF4CFE4FFFACF7B
:1007E000E4FF00EE00F0140EE80403E3EECFE4FFB4
:1007F000FBD700EE14F0120EE80403E3EECFE4FFA3
:10080000FBD7E6529EAA0BD0AE50E66E930EE66E74
:10081000000EE66E90EC0BF0E552E552E5529EA814
:100820001AD0800EE66E000EE66E44EC0BF0E55238
:10083000E552F3CF26F0F4CF27F02650271002E040
:100840009D9809D0800EE66E000EE66E55EC0AF01B
:10085000E552E552AD6EE55200EE25F0120EE804C9
:1008600003E3E5CFEDFFFBD700EE13F0140EE80431
:1008700003E3E5CFEDFFFBD7E5CFFAFFE5CFF4FFCC
:10088000E5CFF3FFE5CFF5FFE5CFF7FFE5CFF6FFC7
:10089000E5CFEAFFE5CFE9FFE5CFDAFF1100DACFD8
:1008A000E4FFE2CFDAFFE652E552E5CFDAFF1100CE
:1008B0005BEC06F0930EE66E000EE66E3DEC0AF081
:1008C000E552E552800EE66E000EE66E3DEC0AF053
:1008D000E552E552160EE66E930EE66E000EE66EDB
:1008E00090EC0BF0E552E552E552490EE66E930EA0
:1008F000E66E000EE66E90EC0BF0E552E552E55226
:10090000550EE66E930EE66E000EE66E90EC0BF062
:10091000E552E552E5521F0EE66E930EE66E000EAE
:10092000E66E90EC0BF0E552E552E552550EE66EA0
:10093000930EE66E000EE66E90EC0BF0E552E5527B
:10094000E5521F0EE66E930EE66E000EE66E90EC1C
:100950000BF0E552E552E552550EE66E930EE66E4B
:10096000000EE66E90EC0BF0E552E552E5521F0EDC
:10097000E66E930EE66E000EE66E90EC0BF0E5521E
:10098000E552E552550EE66E930EE66E000EE66EEB
:1009900090EC0BF0E552E552E5521F0EE66E930E19
:1009A000E66E000EE66E90EC0BF0E552E552E55275
:1009B000550EE66E930EE66E000EE66E90EC0BF0B2
:1009C000E552E552E5521F0EE66E930EE66E000EFE
:1009D000E66E90EC0BF0E552E552E552550EE66EF0
:1009E000930EE66E000EE66E90EC0BF0E552E552CB
:1009F000E5521F0EE66E930EE66E000EE66E90EC6C
:100A00000BF0E552E552E552550EE66E930EE66E9A
:100A1000000EE66E90EC0BF0E552E552E552550EF5
:100A2000E66E930EE66E000EE66E90EC0BF0E5526D
:100A3000E552E552010E0001C36FC46B010EC319EC
:100A400001E1C45101E0FAD0930EE66E000EE66EAD
:100A500066EC0BF0E552E552F3CF14F0F4CF15F04D
:100A60001450151001E1EAD00E0EE126930EE66E49
:100A7000000EE66EEDEC06F0EECFA6F0EECFA7F09E
:100A8000EECFA8F0EECFA9F0EECFAAF0EECFABF00C
:100A9000EECFACF0EECFADF0EECFAEF0EECFAFF0EC
:100AA000EECFB0F0EECFB1F0EECFB2F0EECFB3F0CC
:100AB000EECFB4F0EECFB5F0146E100EE15E145030
:100AC0000001A65101E1BAD0550EA75D41E1A6C0D3
:100AD000E6FFA7C0E6FFA8C0E6FFA9C0E6FFAAC0E0
:100AE000E6FFABC0E6FFACC0E6FFADC0E6FFAEC0C0
:100AF000E6FFAFC0E6FFB0C0E6FFB1C0E6FFB2C0A0
:100B0000E6FFB3C0E6FFB4C0E6FFB5C0E6FF98EC71
:100B100001F0EECFB6F0EECFB7F0EECFB8F0EECFFB
:100B2000B9F0EECFBAF0EECFBBF0EECFBCF0EECF27
:100B3000BDF0EECFBEF0EECFBFF0EECFC0F0EECF07
:100B4000C1F0EECFC2F0146E100EE15E145076D0FC
:100B5000490EA75D6DE1800EE66E000EE66E030E97
:100B6000E126B6C0E6FFB7C0E6FFB8C0E6FFB9C0F1
:100B7000E6FFBAC0E6FFBBC0E6FFBCC0E6FFBDC0F3
:100B8000E6FFBEC0E6FFBFC0E6FFC0C0E6FFC1C0D3
:100B9000E6FFC2C0E6FF51EC00F0EECF14F0EECF5E
:100BA00015F0EECF16F0EECF17F0EECF18F0EECF37
:100BB00019F0EECF1AF0EECF1BF0EECF1CF0EECF17
:100BC0001DF0EECF1EF0EECF1FF0EECF20F0EECFF7
:100BD00021F0EECF22F0EECF23F0246E100EE15E76
:100BE000245014C0E6FF15C0E6FF16C0E6FF17C08C
:100BF000E6FF18C0E6FF19C0E6FF1AC0E6FF1BC0FB
:100C0000E6FF1CC0E6FF1DC0E6FF1EC0E6FF1FC0DA
:100C1000E6FF20C0E6FF21C0E6FF22C0E6FF23C0BA
:100C2000E6FF8BEC06F0256E120EE15E255006D035
:100C3000470EA75D03E1020EC36FC46B0001020EF5
:100C4000C31901E1C45135E10E0EE126930EE66EA3
:100C5000000EE66EEDEC06F0EECFA6F0EECFA7F0BC
:100C6000EECFA8F0EECFA9F0EECFAAF0EECFABF02A
:100C7000EECFACF0EECFADF0EECFAEF0EECFAFF00A
:100C8000EECFB0F0EECFB1F0EECFB2F0EECFB3F0EA
:100C9000EECFB4F0EECFB5F0146E100EE15E14504E
:100CA0000001A65106E0620EA75D03E1010EC36FCD
:060CB000C46BC4D6120063
:0A0CB600100EAF6E948C948EAB8E7E
:100CC000AC98AC8AAC84B886AB88D08E9F8A9F885B
:100CD000F28E9D8A1200D9CFE6FFE1CFD9FFFE0E3A
:100CE000DB5047080CE0FE0EDB50490808E0FE0E22
:100CF000DB50620804E0FE0EDB50550805E1010EF2
:100D0000F36EF46A04D003D0F36AF46A00D0E552BB
:100D1000E7CFD9FF1200D9CFE6FFE1CFD9FFE652E6
:100D2000EF0EDBCFE6FFED0EDBCFE6FFEE0EDBCF07
:100D3000E6FF90EC0BF0E552E552E552F00EDBCF0A
:100D4000E6FFED0EDBCFE6FFEE0EDBCFE6FF90EC2D
:100D50000BF0E552E552E552DF6ADFCF14F00D0EDD
:100D6000E76E1418E8AE02D0E73402D0E750145C06
:100D700020E2D950F10F146EFF0EDA20156EDFCF8E
:100D800016F0176A16BE176814501624E96E15502F
:100D90001720EA6EEF50E66EED0EDBCFE6FFEE0EAB
:100DA000DBCFE6FF90EC0BF0E552E552E552DF2A8F
:100DB000D4D7FE0EDBCFE6FFED0EDBCFE6FFEE0E67
:100DC000DBCFE6FF90EC0BF0E552E552E5529D8853
:100DD000E552E552E7CFD9FF1200D9CFE6FFE1CFC8
:100DE000D9FF110EE1260E0EE126FD0EDBCFE6FF48
:100DF000FE0EDBCFE6FF46EC02F0EECF14F0EECFB6
:100E000015F0EECF16F0EECF17F0EECF18F0EECFD4
:100E100019F0EECF1AF0EECF1BF0EECF1CF0EECFB4
:100E20001DF0EECF1EF0EECF1FF0EECF20F0EECF94
:100E300021F0EECF22F0EECF23F0246E100EE15E13
:100E4000245014C0DFFF010E15C0DBFF020E16C0D8
:100E5000DBFF030E17C0DBFF040E18C0DBFF050E1F
:100E600019C0DBFF060E1AC0DBFF070E1BC0DBFF3D
:100E7000080E1CC0DBFF090E1DC0DBFF0A0E1EC0E2
:100E8000DBFF0B0E1FC0DBFF0C0E20C0DBFF0D0EC7
:100E900021C0DBFF0E0E22C0DBFF0F0E23C0DBFFE5
:100EA000D950020FE66E000EDA20E66E0FEC00F06D
:100EB000E552E552E76E100EE7CFDBFF010EDBCF08
:100EC000E6FF09DFE552F3CF14F0F4CF15F014502C
:100ED000151056E0160EDF5C53E1100EDB50F36E7A
:100EE0000F0EDB50F35C4CE1D9CFE9FFDACFEAFF1C
:100EF000EECF14F0EECF15F0EECF16F0EECF17F0E8
:100F0000EECF18F0EECF19F0EECF1AF0EECF1BF0C7
:100F1000EECF1CF0EECF1DF0EECF1EF0EECF1FF0A7
:100F2000EECF20F0EECF21F0EECF22F0EFCF23F086
:100F3000D9CFE9FFDACFEAFFED50ED5023C0EDFF46
:100F400022C0EDFF21C0EDFF20C0EDFF1FC0EDFF6F
:100F50001EC0EDFF1DC0EDFF1CC0EDFF1BC0EDFF6F
:100F60001AC0EDFF19C0EDFF18C0EDFF17C0EDFF6F
:100F700016C0EDFF15C0EDFF14C0EFFF4DD04CD0F3
:100F8000DF6AD9CFE9FFDACFEAFFEECF14F0EECF78
:100F900015F0EECF16F0EECF17F0EECF18F0EECF43
:100FA00019F0EECF1AF0EECF1BF0EECF1CF0EECF23
:100FB0001DF0EECF1EF0EECF1FF0EECF20F0EECF03
:100FC00021F0EECF22F0EFCF23F0D9CFE9FFDACF37
:100FD000EAFFED50ED5023C0EDFF22C0EDFF21C030
:100FE000EDFF20C0EDFF1FC0EDFF1EC0EDFF1DC0D7
:100FF000EDFF1CC0EDFF1BC0EDFF1AC0EDFF19C0D7
:10100000EDFF18C0EDFF17C0EDFF16C0EDFF15C0D6
:10101000EDFF14C0EFFF00D0110EE15C02E2E16AC7
:10102000E552E16EE552E7CFD9FF1200D9CFE6FFD6
:10103000E1CFD9FFFE0EDBCFE6FFFC0EDBCFE6FFF4
:10104000FD0EDBCFE6FF90EC0BF0E552E552E552EA
:101050009D88E552E7CFD9FF1200D9CFE6FFE1CF57
:10106000D9FFE652DF6ADFCF14F0030EE76E1418E3
:10107000E8AE02D0E73402D0E750145C20E2D95049
:10108000FB0F146EFF0EDA20156EDFCF16F0176A15
:1010900016BE176814501624E96E15501720EA6E14
:1010A000EF50E66EF90EDBCFE6FFFA0EDBCFE6FF80
:1010B00090EC0BF0E552E552E552DF2AD4D79D883B
:0A10C000E552E552E7CFD9FF120018
:0610CA00D9CFE6FFE1CFE3
:1010D000D9FF040EE126800EDE6E840EDE6E1E0E3B
:1010E000DE6EDD6ADD52DD52800ED56ED9CFE9FFAE
:1010F000DACFEAFFEECF14F0EECF15F0EECF16F018
:10110000EFCF17F0100ED890173216321532143276
:10111000E806F9E1145015101610171034E0D9CF75
:10112000E9FFDACFEAFFD890030EEB32020EEB3282
:10113000010EEB32EF32D9CFE9FFDACFEAFFEECF83
:1011400014F0EECF15F0EECF16F0EFCF17F0100E33
:10115000D8901732163215321432E806F9E11450DD
:101160001510161017100EE0D9CFE9FFDACFEAFFFD
:10117000D890030EEB32020EEB32010EEB32EF325F
:10118000D52AD9D701D0D586D9CFE9FFDACFEAFF62
:10119000EECF14F0EECF15F0EECF16F0EFCF17F044
:1011A000141E151E142A000E15221622172214C012
:1011B000DFFF010E15C0DBFF020E16C0DBFF030EC2
:1011C00017C0DBFFD9CFE9FFDACFEAFFEECF14F08B
:1011D000EECF15F0EECF16F0EFCF17F0080ED89047
:1011E0001732163215321432E806F9E11450D76E70
:1011F000D9CFE9FFDACFEAFFEECF14F0EECF15F04A
:10120000EECF16F0EFCF17F01450D66EF294F28AAC
:10121000040EE15C02E2E16AE552E16EE552E7CFDD
:10122000D9FF12009380120095988388959A838A3B
:1012300094969488949A928A1200D9CFE6FFE1CFCF
:10124000D9FF030EE126DE6ADD6A020EDB6ADBCF20
:1012500014F0100EE76E1418E8AE02D0E73402D096
:10126000E750145C14E282968286D9CFE9FFDACF88
:10127000EAFF010ED890EE36ED36E806FBE182502B
:10128000100B01E0010EDF12020EDB2AE0D7DECFE9
:1012900014F0DDCF15F014C0F3FF15C0F4FF030EFA
:1012A000E15C03E200D0E16AE552E16EE552E7CF8E
:1012B000D9FF1200829A82968286828A82A8FED7FD
:1012C00012008296829A1200D9CFE6FFE1CFD9FFB1
:1012D0000C0EE126FADEEEDF186A196AA00E1A6E0D
:1012E000400E1B6E18C0E6FF19C0E6FF1AC0E6FFED
:1012F0001BC0E6FFA2DFE552E7CF1BF0E552E7CFC8
:101300001AF0E552E7CF19F0E552E7CF18F0F3CF26
:1013100020F0F4CF21F020C008F021C009F0D7EC74
:101320000BF007C01CF008C01DF009C01EF00AC079
:101330001FF01CC00CF01DC00DF01EC00EF01FC031
:101340000FF018C007F019C008F01AC009F01BC050
:101350000AF03FEC0CF007C014F008C015F009C00B
:1013600016F00AC017F00C6A0D687F0E0E6E470E5D
:101370000F6E14C007F015C008F016C009F017C0B2
:101380000AF0ECEC0BF0080E07C0DBFF090E08C0FA
:10139000DBFF0A0E09C0DBFF0B0E0AC0DBFF186A79
:1013A000196AA00E1A6E400E1B6E18C0E6FF19C017
:1013B000E6FF1AC0E6FF1BC0E6FF3FDFE552E7CFBE
:1013C0001BF0E552E7CF1AF0E552E7CF19F0E552EE
:1013D000E7CF18F0F3CF20F0F4CF21F020C008F0D1
:1013E00021C009F0D7EC0BF007C01CF008C01DF0BD
:1013F00009C01EF00AC01FF01CC00CF01DC00DF08B
:101400001EC00EF01FC00FF018C007F019C008F082
:101410001AC009F01BC00AF03FEC0CF007C014F032
:1014200008C015F009C016F00AC017F00C6A0D6864
:101430007F0E0E6E470E0F6E14C007F015C008F039
:1014400016C009F017C00AF0ECEC0BF0080E07C04C
:10145000DBFF090E08C0DBFF0A0E09C0DBFF0B0E25
:101460000AC0DBFF2EDF0C0EE15C02E2E16AE5520E
:0A147000E16EE552E7CFD9FF12004C
:06147A00D9CFE6FFE1CF2F
:10148000D9FFFD0EDBCFE9FFFE0EDBCFEAFFEE5208
:10149000EF6AFD0EDBCFE9FFFE0EDBCFEAFF000EA9
:1014A000EF6EE552E7CFD9FF1200D9CFE6FFE1CFCB
:1014B000D9FFE652FD0EDBCFE9FFFE0EDBCFEAFFE0
:1014C000020EE926000EEA22E9CF14F0EACF15F069
:1014D000FD0EDBCFE9FFFE0EDBCFEAFFEFCF16F00C
:1014E000176A16BE176814501624E96E1550172097
:1014F000EA6EEFCFDFFFFD0EDBCFE9FFFE0EDBCFA5
:10150000EAFFEF2AEFCF14F014C009F0110E0E6EAF
:10151000ACEC0CF00550E66EFD0EDBCFE9FFFE0EE5
:10152000DBCFEAFFE552E750EF6EDF5000D0E55227
:10153000E552E7CFD9FF1200D9CFE6FFE1CFD9FFBF
:10154000020EE126FD0EDBCFE9FFFE0EDBCFEAFF48
:10155000EFCF14F0FD0EDBCFE9FFFE0EDBCFEAFF8D
:10156000EE52EF50E76E1418E8AE02D0E73402D026
:10157000E750145C19E2FD0EDBCFE9FFFE0EDBCF76
:10158000EAFFEE52EFCF16F0FD0EDBCFE9FFFE0EC5
:10159000DBCFEAFFEF50165C146E156A14BE1568B7
:1015A00014C0DEFF15C0DDFFFD0EDBCFE9FFFE0E30
:1015B000DBCFEAFFEE52EFCF14F0FD0EDBCFE9FFF9
:1015C000FE0EDBCFEAFFEF50E76E1418E8AE02D054
:1015D000E73402D0E750145C23E2110E166EFD0EC4
:1015E000DBCFE9FFFE0EDBCFEAFFEFCF17F0FD0EFA
:1015F000DBCFE9FFFE0EDBCFEAFFEE5217C009F0AA
:10160000EFCF0EF0ACEC0CF0EFBE056C0550165CA5
:10161000146E156A14BE156814C0DEFF15C0DDFF18
:10162000FD0EDBCFE9FFFE0EDBCFEAFFEF50E66EEB
:10163000FD0EDBCFE9FFFE0EDBCFEAFFEE52E552F7
:10164000E750EF6E02E0DE6ADD6ADECF14F0DDCF38
:1016500015F014C0F3FF15C0F4FF020EE15C03E2C5
:1016600000D0E16AE552E16EE552E7CFD9FF120002
:10167000D9CFE6FFE1CFD9FF110EF36EF46A00D0A7
:10168000E552E7CFD9FF1200D9CFE6FFE1CFD9FF6E
:10169000FD0EDBCFE9FFFE0EDBCFEAFFEFCF14F04C
:1016A000FD0EDBCFE9FFFE0EDBCFEAFFEE52EF507F
:1016B000145C05E1010EF36EF46A04D003D0F36A02
:1016C000F46A00D0E552E7CFD9FF1200D9CFE6FF88
:1016D000E1CFD9FFFD0EDBCFE9FFFE0EDBCFEAFF46
:1016E000EE52EF28156E15C009F0110E0E6EACEC1F
:1016F0000CF005C014F0FD0EDBCFE9FFFE0EDBCFD2
:10170000EAFFEF50145C05E1010EF36EF46A04D0B9
:1017100003D0F36AF46A00D0E552E7CFD9FF120094
:10172000D9CFE6FFE1CFD9FFFD0EDBCFE9FFFE0EFB
:10173000DBCFEAFF020EE926000EEA22E9CF14F021
:10174000EACF15F0FD0EDBCFE9FFFE0EDBCFEAFF9F
:10175000EE52EFCF16F0176A16BE17681450162413
:10176000E96E15501720EA6EFC0EDBCFEFFFFD0E81
:10177000DBCFE9FFFE0EDBCFEAFFEE52EF2AEFCF21
:1017800014F014C009F0110E0E6EACEC0CF0055004
:10179000E66EFD0EDBCFE9FFFE0EDBCFEAFFEE5279
:0E17A000E552E750EF6EE552E7CFD9FF120099
:0217AE00019E9A
:1017B00008D0019E09AE05D0086C091EE86A09220E
:1017C000018E09C003F008C002F0136A126A8E0E7F
:1017D000046E056AE2EF0CF0016A1EEC0DF036ECC7
:1017E0000DF001B6C6EF0CF001A205D001BAC6EFAC
:1017F0000CF0CDEF0CF001BAD9EF0CF001A005D040
:1018000001B8C6EF0CF0D9EF0CF001B8CDEF0CF039
:10181000056A7F0E0A24046EE86A05220F50045EF2
:10182000E86A055A1A0E106E0A6A126A136A026A88
:10183000036A0C50075E0D50085A0E50095A000EEC
:101840000A5A09E70C5007260D5008220E500922AB
:10185000000E0A2201D0128AD890073608360936BF
:101860000A36D8901236133602360336102EE1D7D8
:10187000095008100710D8A4128AE2EF0CF0016A90
:101880001EEC0DF036EC0DF001B6C6EF0CF001A227
:1018900005D001B8C6EF0CF0CDEF0CF001AA05D0D1
:1018A00001B0C6EF0CF0CDEF0CF001B002D001A8F2
:1018B00002D0D9EF0CF0056A0F500A24046EE86AD2
:1018C00005227E0E045EE86A055A126A136A026AED
:1018D000036A0E500902F4CF03F0F3CF02F00D506B
:1018E0000902F3501326F4500222000E03220E5078
:1018F0000802F3501326F4500222000E03220C506B
:101900000902F3501226F4501322000E0222032281
:101910000D500802F3501226F4501322000E02223A
:1019200003220E500702F3501226F4501322000E29
:10193000022203220C500802F4501226000E132239
:10194000022203220D500702F4501226000E132229
:1019500002220322E2EF0CF0006A0EAEB2EF0CF0AE
:101960000E6C001E09AEB7EF0CF0096C001E30ECD7
:101970000EF009BEC1EF0CF000AE000C096C056C56
:10198000000C00BEBEEF0CF00188FF0C7F0E0A6E4B
:10199000FF0E096E086E076E12007F0E01BEFF0E6D
:1019A0000A6E02D07F0E0A6E800E096E086A076A00
:1019B000F3D701AE04D0800E0A6E096AF7D70A6A1F
:1019C000096AF4D70350021013101210F8E005BE94
:1019D000F0D703BE0CD004500510EBE0D8901236BF
:1019E0001336023603360406D8A00506F2D7055092
:1019F000D4E10428D2E012AE11D07F0E121402E11D
:101A000013A00CD0132AE86A0222032207E3D8802D
:101A1000033202321332042A0428BFE00450C9E022
:101A200013C007F002C008F00334096E04300A6ED8
:101A300009320A9E01BE0A8ECCEF0CF009360A3636
:101A400002E30184017E06E101800A6A096A086AEC
:101A5000076A12000A2803E0D88009321200D890E1
:101A6000093202E101821200018612000E360F36A1
:101A700002E3018C017E06E101880F6A0E6A0D6A9D
:101A80000C6A12000F2803E0D8800E321200D890A2
:081A90000E32EAE1018A1200A6
:081A9800D9CFE6FFE1CFD9FF31
:101AA000020EE126D950FD0FE96EFF0EDA20EA6E34
:101AB000EE6AED52FD0EDBCF14F0FE0EDBCF15F01B
:101AC00015C014F0156AFD0EDB50DF6ED950FD0F06
:101AD000E96EFF0EDA20EA6EEE52ED6AFD0EDB5083
:101AE000E76E010EE7CFDBFFD9CF14F0DACF15F0A8
:101AF00014C0F3FF15C0F4FF020EE15C03E200D056
:101B0000E16AE552E16EE552E7CFD9FF1200D9CF85
:101B1000E6FFE1CFD9FF020EE126FE0EDBCF14F087
:101B2000156A14BE156814C0DEFF15C0DDFFDECFD8
:101B300014F0DDCF15F014C015F0146A14C0DEFFE8
:101B400015C0DDFFFD0EDBCF14F0156A14BE15685D
:101B5000D9CFE9FFDACFEAFF1450EE121550ED129B
:101B6000DECF14F0DDCF15F014C0F3FF15C0F4FF85
:101B7000020EE15C03E200D0E16AE552E16EE5525B
:061B8000E7CFD9FF1200BF
:0A1B8600060EF66E000EF76E000E5C
:101B9000F86E00010900F550CB6F0900F550CC6FCD
:101BA00003E1CB6701D03DD00900F550C66F0900B5
:101BB000F550C76F0900F550C86F09000900F550CE
:101BC000E96E0900F550EA6E090009000900F550B8
:101BD000C96F0900F550CA6F09000900F6CFCDF0B2
:101BE000F7CFCEF0F8CFCFF0C6C0F6FFC7C0F7FFF3
:101BF000C8C0F8FF0001C95302E1CA5307E0090059
:101C0000F550EE6EC907F8E2CA07F9D7CDC0F6FF66
:101C1000CEC0F7FFCFC0F8FF0001CB07000ECC5BB2
:041C2000BFD7120018
:0C1C2400000EF36E00EE00F0060E01D87A
:101C30001200EA6002D0EE6AFCD7F350E9601200AD
:041C4000EE6AFCD775
:0C1C440015EE00F025EE00F0F86A019C9F
:101C5000C3EC0DF007EC00F058EC04F0FBD71200D9
:101C6000056A080EE76ED890093605360E50055CF9
:0C1C700002E3056E092AE72EF7D71200E8
:020000040030CA
:0100010002FC
:010003001EDE
:00000001FF
