:020000040000FA
:0600000069EF0EF0120092
:020006000000F8
:06000800D5EF03F0120029
:02000E00D9CF48
:10001000E6FFE1CFD9FF020EE126FD0EDBCFE9FFBF
:10002000FE0EDBCFEAFF010EEFCFDBFFDF6EDFCF8F
:1000300014F00D0EE76E1418E8AE02D0E73402D0CB
:10004000E750145C17E2DFCF14F0156A14BE156890
:10005000FD0EDB501424E96EFE0EDB501520EA6E17
:10006000010EDBCFE7FFEF50E71A010EE7CFDBFF12
:10007000DF2ADDD7010EDB50146E020EE15C03E2D5
:1000800000D0E16AE552E16E1450E552E7CFD9FFA6
:100090001200D9CFE6FFE1CFD9FF120EE126160EEE
:1000A000DF6EDE52550EDD6EF20EDB50E76E020E95
:1000B000E7CFDBFFF30EDB50E76E030EE7CFDBFF8E
:1000C000F40EDB50E76E040EE7CFDBFFF50EDBCF5F
:1000D000E6FFF60EDBCFE6FF7CEC0DF0E552E552D5
:1000E000100EF3CFDBFF110EF4CFDBFF100EDBCFD2
:1000F000E9FF110EDBCFEAFF050EEFCFDBFF010EAC
:10010000E76E100EDBCFE9FF110EDBCFEAFFE75001
:10011000E926000EEA22060EEFCFDBFFF50EDBCF5D
:10012000E6FFF60EDBCFE6FF7CEC0DF0E552E55284
:10013000100EF3CFDBFF110EF4CFDBFF100EDBCF81
:10014000E9FF110EDBCFEAFF070EEFCFDBFF010E59
:10015000E76E100EDBCFE9FF110EDBCFEAFFE750B1
:10016000E926000EEA22080EEFCFDBFFF70EDBCF09
:10017000E6FFF80EDBCFE6FF7CEC0DF0E552E55232
:10018000100EF3CFDBFF110EF4CFDBFF100EDBCF31
:10019000E9FF110EDBCFEAFF090EEFCFDBFF010E07
:1001A000E76E100EDBCFE9FF110EDBCFEAFFE75061
:1001B000E926000EEA220A0EEFCFDBFFF90EDBCFB5
:1001C000E6FFFA0EDBCFE6FF7CEC0DF0E552E552E0
:1001D000100EF3CFDBFF110EF4CFDBFF100EDBCFE1
:1001E000E9FF110EDBCFEAFF0B0EEFCFDBFF010EB5
:1001F000E76E100EDBCFE9FF110EDBCFEAFFE75011
:10020000E926000EEA220C0EEFCFDBFFFB0EDBCF60
:10021000E6FFFC0EDBCFE6FF7CEC0DF0E552E5528D
:10022000100EF3CFDBFF110EF4CFDBFF100EDBCF90
:10023000E9FF110EDBCFEAFF0D0EEFCFDBFF010E62
:10024000E76E100EDBCFE9FF110EDBCFEAFFE750C0
:10025000E926000EEA220E0EEFCFDBFFD950020F87
:10026000E66E000EDA20E66ED2DEE552E552E76E6B
:100270000F0EE7CFDBFFD9CFE9FFDACFEAFFEECFF2
:1002800014F0EECF15F0EECF16F0EECF17F0EECF64
:1002900018F0EECF19F0EECF1AF0EECF1BF0EECF44
:1002A0001CF0EECF1DF0EECF1EF0EECF1FF0EECF24
:1002B00020F0EECF21F0EECF22F0EFCF23F0D9CF18
:1002C000E9FFDACFEAFFED50ED5023C0EDFF22C089
:1002D000EDFF21C0EDFF20C0EDFF1FC0EDFF1EC0F0
:1002E000EDFF1DC0EDFF1CC0EDFF1BC0EDFF1AC0F0
:1002F000EDFF19C0EDFF18C0EDFF17C0EDFF16C0F0
:10030000EDFF15C0EDFF14C0EFFF120EE15C03E23C
:1003100000D0E16AE552E16EE552E7CFD9FF120065
:10032000D9CFE6FFE1CFD9FF0D0EE126F10EDB506C
:10033000DF6EF20EDB50E76E010EE7CFDBFFF30E50
:10034000DB50E76E020EE7CFDBFFF50EDBCFE6FFFB
:10035000F40EDBCFE6FFCEEC0DF0E552E552030ED6
:10036000F3CFDBFF040EF4CFDBFFF70EDBCFE6FFAE
:10037000F60EDBCFE6FFCEEC0DF0E552E552050EB2
:10038000F3CFDBFF060EF4CFDBFFF90EDBCFE6FF8A
:10039000F80EDBCFE6FFCEEC0DF0E552E552070E8E
:1003A000F3CFDBFF080EF4CFDBFFFB0EDBCFE6FF66
:1003B000FA0EDBCFE6FFCEEC0DF0E552E552090E6A
:1003C000F3CFDBFF0A0EF4CFDBFFFD0EDBCFE6FF42
:1003D000FC0EDBCFE6FFCEEC0DF0E552E5520B0E46
:1003E000F3CFDBFF0C0EF4CFDBFFD9CFE9FFDACF81
:1003F000EAFFEECF14F0EECF15F0EECF16F0EECF11
:1004000017F0EECF18F0EECF19F0EECF1AF0EECFD6
:100410001BF0EECF1CF0EECF1DF0EECF1EF0EECFB6
:100420001FF0EFCF20F0D9CFE9FFDACFEAFFED5090
:10043000ED5020C0EDFF1FC0EDFF1EC0EDFF1DC041
:10044000EDFF1CC0EDFF1BC0EDFF1AC0EDFF19C092
:10045000EDFF18C0EDFF17C0EDFF16C0EDFF15C092
:10046000EDFF14C0EFFF0D0EE15C03E200D0E16A86
:10047000E552E16EE552E7CFD9FF1200D9CFE6FF92
:10048000E1CFD9FF120EE126FD0EDBCFE6FFFE0E17
:10049000DBCFE6FF35EC0CF0E552E552DF6EFD0EEA
:1004A000DBCFE6FFFE0EDBCFE6FF35EC0CF0E552CE
:1004B000E552E76E010EE7CFDBFF100EDB6ADBCF04
:1004C00014F00D0EE76E1418E8AE02D0E73402D037
:1004D000E750145C22E2FD0EDBCFE6FFFE0EDBCF21
:1004E000E6FF35EC0CF0E552E552E66ED950020F0E
:1004F000146EDACF15F0100EDBCF16F0176A16BEA9
:10050000176814501624E96E15501720EA6EE5524C
:10051000E750EF6E100EDB2AD2D7FD0EDBCFE6FFE1
:10052000FE0EDBCFE6FF35EC0CF0E552E552E76E50
:100530000F0EE7CFDBFFD9CFE9FFDACFEAFFEECF2F
:1005400014F0EECF15F0EECF16F0EECF17F0EECFA1
:1005500018F0EECF19F0EECF1AF0EECF1BF0EECF81
:100560001CF0EECF1DF0EECF1EF0EECF1FF0EECF61
:1005700020F0EECF21F0EECF22F0EFCF23F0D9CF55
:10058000E9FFDACFEAFFED50ED5023C0EDFF22C0C6
:10059000EDFF21C0EDFF20C0EDFF1FC0EDFF1EC02D
:1005A000EDFF1DC0EDFF1CC0EDFF1BC0EDFF1AC02D
:1005B000EDFF19C0EDFF18C0EDFF17C0EDFF16C02D
:1005C000EDFF15C0EDFF14C0EFFF120EE15C03E27A
:1005D00000D0E16AE552E16EE552E7CFD9FF1200A3
:1005E000D9CFE6FFE1CFD9FF130EE126160EF36E49
:1005F000030EF3CFDBFFFE0EDB50E76E040EE7CFFA
:10060000DBFFFC0EDBCFE6FFFD0EDBCFE6FF7CEC75
:100610000DF0E552E552F3CFDEFFF4CFDDFFDECF84
:10062000E9FFDDCFEAFF050EEFCFDBFFDECFE9FF0D
:10063000DDCFEAFF010EE926000EEA22060EEFCF1B
:10064000DBFFFA0EDBCFE6FFFB0EDBCFE6FF7CEC39
:100650000DF0E552E552F3CFDEFFF4CFDDFFDECF44
:10066000E9FFDDCFEAFF070EEFCFDBFFDECFE9FFCB
:10067000DDCFEAFF010EE926000EEA22080EEFCFD9
:10068000DBFF040EF36E020EF3CFDBFFDBCF14F0C3
:100690000D0EE76E1418E8AE02D0E73402D0E75032
:1006A000145C15E2D950050F146EDACF15F0020E66
:1006B000DBCF16F0176A16BE176814501624E96EC1
:1006C00015501720EA6EEF6A020EDB2ADFD7D950E9
:1006D000050FE66E000EDA20E66E99DCE552E55273
:1006E000E76E120EE7CFDBFF030EDBCF14F0040E34
:1006F000DBCF15F0050EDBCF16F0060EDBCF17F0C3
:10070000070EDBCF18F0080EDBCF19F0090EDBCF98
:100710001AF00A0EDBCF1BF00B0EDBCF1CF00C0E19
:10072000DBCF1DF00D0EDBCF1EF00E0EDBCF1FF06A
:100730000F0EDBCF20F0100EDBCF21F0110EDBCF40
:1007400022F0120EDBCF23F0D9CFE9FFDACFEAFF98
:10075000ED50ED5023C0EDFF22C0EDFF21C0EDFFB5
:1007600020C0EDFF1FC0EDFF1EC0EDFF1DC0EDFF5F
:100770001CC0EDFF1BC0EDFF1AC0EDFF19C0EDFF5F
:1007800018C0EDFF17C0EDFF16C0EDFF15C0EDFF5F
:1007900014C0EFFF130EE15C03E200D0E16AE55202
:0A07A000E16EE552E7CFD9FF120029
:0607AA00DACFE4FFE2CF0C
:1007B000DAFFE9CFE4FFEACFE4FFF6CFE4FFF7CFBB
:1007C000E4FFF5CFE4FFF3CFE4FFF4CFE4FFFACF8B
:1007D000E4FF00EE00F0140EE80403E3EECFE4FFC4
:1007E000FBD700EE14F0120EE80403E3EECFE4FFB3
:1007F000FBD7E6529EAA0FD0AE50E66EA20EE66E72
:10080000000EE66E3CEC0DF0E552E552E552010EAD
:100810000001E16FE26B9EA81AD0800EE66E000E1A
:10082000E66EF7EC0CF0E552E552F3CF26F0F4CF8C
:1008300027F02650271002E09D9809D0800EE66E22
:10084000000EE66E35EC0CF0E552E552AD6EE55269
:1008500000EE25F0120EE80403E3E5CFEDFFFBD731
:1008600000EE13F0140EE80403E3E5CFEDFFFBD731
:10087000E5CFFAFFE5CFF4FFE5CFF3FFE5CFF5FFD6
:10088000E5CFF7FFE5CFF6FFE5CFEAFFE5CFE9FFDC
:10089000E5CFDAFF1100C6EC06F0A20EE66E000E00
:1008A000E66E1DEC0CF0E552E552800EE66E000E91
:1008B000E66E1DEC0CF0E552E5520001E16BE26BD7
:1008C0000001E151E21101E1FBD7010EE11901E163
:1008D000E25101E057D1A20EE66E000EE66E75EC15
:1008E0000CF0E552E552F3CF14F0F4CF15F0100EF2
:1008F000141801E1155001E044D10E0EE126A20EBC
:10090000E66E000EE66E58EC07F0EECFC4F0EECFC8
:10091000C5F0EECFC6F0EECFC7F0EECFC8F0EECF09
:10092000C9F0EECFCAF0EECFCBF0EECFCCF0EECFE9
:10093000CDF0EECFCEF0EECFCFF0EECFD0F0EECFC9
:10094000D1F0EECFD2F0EECFD3F0146E100EE15E08
:1009500014500001C45101E114D1550EC55D41E1AF
:10096000C4C0E6FFC5C0E6FFC6C0E6FFC7C0E6FFDD
:10097000C8C0E6FFC9C0E6FFCAC0E6FFCBC0E6FFBD
:10098000CCC0E6FFCDC0E6FFCEC0E6FFCFC0E6FF9D
:10099000D0C0E6FFD1C0E6FFD2C0E6FFD3C0E6FF7D
:1009A00090EC01F0EECFD4F0EECFD5F0EECFD6F054
:1009B000EECFD7F0EECFD8F0EECFD9F0EECFDAF021
:1009C000EECFDBF0EECFDCF0EECFDDF0EECFDEF001
:1009D000EECFDFF0EECFE0F0146E100EE15E1450BB
:1009E000D0D0490EC55D6DE1800EE66E000EE66E5C
:1009F000030EE126D4C0E6FFD5C0E6FFD6C0E6FF71
:100A0000D7C0E6FFD8C0E6FFD9C0E6FFDAC0E6FFF0
:100A1000DBC0E6FFDCC0E6FFDDC0E6FFDEC0E6FFD0
:100A2000DFC0E6FFE0C0E6FF49EC00F0EECF14F0D7
:100A3000EECF15F0EECF16F0EECF17F0EECF18F0A8
:100A4000EECF19F0EECF1AF0EECF1BF0EECF1CF088
:100A5000EECF1DF0EECF1EF0EECF1FF0EECF20F068
:100A6000EECF21F0EECF22F0EECF23F0246E100E69
:100A7000E15E245014C0E6FF15C0E6FF16C0E6FF95
:100A800017C0E6FF18C0E6FF19C0E6FF1AC0E6FF70
:100A90001BC0E6FF1CC0E6FF1DC0E6FF1EC0E6FF50
:100AA0001FC0E6FF20C0E6FF21C0E6FF22C0E6FF30
:100AB00023C0E6FFF6EC06F0256E120EE15E25502F
:100AC00060D0470EC55D5DE1800EE66E000EE66EFD
:100AD0000B0EE1262D0EE66EE66AE668E668470E26
:100AE000E66EF0EC02F0EECF14F0EECF15F0EECFA4
:100AF00016F0EECF17F0EECF18F0EECF19F0EECFE4
:100B00001AF0EECF1BF0EECF1CF0EECF1DF0EECFC3
:100B10001EF0EECF1FF0EECF20F0EECF21F0EECFA3
:100B200022F0EECF23F0246E100EE15E245014C0AC
:100B3000E6FF15C0E6FF16C0E6FF17C0E6FF18C0C7
:100B4000E6FF19C0E6FF1AC0E6FF1BC0E6FF1CC0A7
:100B5000E6FF1DC0E6FF1EC0E6FF1FC0E6FF20C087
:100B6000E6FF21C0E6FF22C0E6FF23C0E6FFF6EC69
:100B700006F0256E120EE15E2550020E0001E16FB7
:100B8000E26B02D1020EE11901E1E25101E0FCD079
:100B9000800EE66E000EE66E0B0EE1262D0EE66E62
:100BA000E66AE66EE668470EE66EF0EC02F0EECF1F
:100BB00014F0EECF15F0EECF16F0EECF17F0EECF2B
:100BC00018F0EECF19F0EECF1AF0EECF1BF0EECF0B
:100BD0001CF0EECF1DF0EECF1EF0EECF1FF0EECFEB
:100BE00020F0EECF21F0EECF22F0EECF23F0246EF6
:100BF000100EE15E245014C0E6FF15C0E6FF16C0DB
:100C0000E6FF17C0E6FF18C0E6FF19C0E6FF1AC0EE
:100C1000E6FF1BC0E6FF1CC0E6FF1DC0E6FF1EC0CE
:100C2000E6FF1FC0E6FF20C0E6FF21C0E6FF22C0AE
:100C3000E6FF23C0E6FFF6EC06F0256E120EE15E3D
:100C40002550A20EE66E000EE66E75EC0CF0E55235
:100C5000E552F3CF14F0F4CF15F0100E141801E1A3
:100C6000155001E091D00E0EE126A20EE66E000EA8
:100C7000E66E58EC07F0EECFC4F0EECFC5F0EECF45
:100C8000C6F0EECFC7F0EECFC8F0EECFC9F0EECF92
:100C9000CAF0EECFCBF0EECFCCF0EECFCDF0EECF72
:100CA000CEF0EECFCFF0EECFD0F0EECFD1F0EECF52
:100CB000D2F0EECFD3F0146E100EE15E14500001AE
:100CC000C45162E0620EC55D5FE1800EE66E000E0B
:100CD000E66E0B0EE1262D0EE66EE66A430EE66E1C
:100CE000230EE66E620EE66EF0EC02F0EECF14F02C
:100CF000EECF15F0EECF16F0EECF17F0EECF18F0E6
:100D0000EECF19F0EECF1AF0EECF1BF0EECF1CF0C5
:100D1000EECF1DF0EECF1EF0EECF1FF0EECF20F0A5
:100D2000EECF21F0EECF22F0EECF23F0246E100EA6
:100D3000E15E245014C0E6FF15C0E6FF16C0E6FFD2
:100D400017C0E6FF18C0E6FF19C0E6FF1AC0E6FFAD
:100D50001BC0E6FF1CC0E6FF1DC0E6FF1EC0E6FF8D
:100D60001FC0E6FF20C0E6FF21C0E6FF22C0E6FF6D
:100D700023C0E6FFF6EC06F0256E120EE15E25506C
:0C0D8000010E0001E16FE26B9BD5120038
:040D8C00100EAF6E28
:100D9000948C948EAC98AB8EAC8AAC84B886AB88BD
:100DA000D08E9F8A9F88F28E9D8A1200D9CFE6FF4F
:100DB000E1CFD9FFFE0EDB5047080CE0FE0EDB5002
:100DC000490808E0FE0EDB50620804E0FE0EDB502E
:100DD000550805E1010EF36EF46A04D003D0F36AFE
:100DE000F46A00D0E552E7CFD9FF1200D9CFE6FF71
:100DF000E1CFD9FFE652EF0EDBCFE6FFED0EDBCF02
:100E0000E6FFEE0EDBCFE6FF3CEC0DF0E552E552DF
:100E1000E552F00EDBCFE6FFED0EDBCFE6FFEE0E88
:100E2000DBCFE6FF3CEC0DF0E552E552E552DF6A20
:100E3000DFCF14F00D0EE76E1418E8AE02D0E734E1
:100E400002D0E750145C20E2D950F10F146EFF0E6F
:100E5000DA20156EDFCF16F0176A16BE1768145029
:100E60001624E96E15501720EA6EEF50E66EED0E6F
:100E7000DBCFE6FFEE0EDBCFE6FF3CEC0DF0E552FC
:100E8000E552E552DF2AD4D7FE0EDBCFE6FFED0EAA
:100E9000DBCFE6FFEE0EDBCFE6FF3CEC0DF0E552DC
:100EA000E552E5529D88E552E552E7CFD9FF1200A1
:100EB000D9CFE6FFE1CFD9FF110EE1260E0EE126D4
:100EC000FD0EDBCFE6FFFE0EDBCFE6FF3EEC02F0D1
:100ED000EECF14F0EECF15F0EECF16F0EECF17F008
:100EE000EECF18F0EECF19F0EECF1AF0EECF1BF0E8
:100EF000EECF1CF0EECF1DF0EECF1EF0EECF1FF0C8
:100F0000EECF20F0EECF21F0EECF22F0EECF23F0A7
:100F1000246E100EE15E245014C0DFFF010E15C0D8
:100F2000DBFF020E16C0DBFF030E17C0DBFF040E53
:100F300018C0DBFF050E19C0DBFF060E1AC0DBFF71
:100F4000070E1BC0DBFF080E1CC0DBFF090E1DC017
:100F5000DBFF0A0E1EC0DBFF0B0E1FC0DBFF0C0EFB
:100F600020C0DBFF0D0E21C0DBFF0E0E22C0DBFF19
:100F70000F0E23C0DBFFD950020FE66E000EDA2001
:100F8000E66E07EC00F0E552E552E76E100EE7CF93
:100F9000DBFF010EDBCFE6FF09DFE552F3CF14F0F4
:100FA000F4CF15F01450151056E0160EDF5C53E127
:100FB000100EDB50F36E0F0EDB50F35C4CE1D9CF1B
:100FC000E9FFDACFEAFFEECF14F0EECF15F0EECF67
:100FD00016F0EECF17F0EECF18F0EECF19F0EECFFF
:100FE0001AF0EECF1BF0EECF1CF0EECF1DF0EECFDF
:100FF0001EF0EECF1FF0EECF20F0EECF21F0EECFBF
:1010000022F0EFCF23F0D9CFE9FFDACFEAFFED509E
:10101000ED5023C0EDFF22C0EDFF21C0EDFF20C049
:10102000EDFF1FC0EDFF1EC0EDFF1DC0EDFF1CC09A
:10103000EDFF1BC0EDFF1AC0EDFF19C0EDFF18C09A
:10104000EDFF17C0EDFF16C0EDFF15C0EDFF14C09A
:10105000EFFF4DD04CD0DF6AD9CFE9FFDACFEAFFFE
:10106000EECF14F0EECF15F0EECF16F0EECF17F076
:10107000EECF18F0EECF19F0EECF1AF0EECF1BF056
:10108000EECF1CF0EECF1DF0EECF1EF0EECF1FF036
:10109000EECF20F0EECF21F0EECF22F0EFCF23F015
:1010A000D9CFE9FFDACFEAFFED50ED5023C0EDFFD5
:1010B00022C0EDFF21C0EDFF20C0EDFF1FC0EDFFFE
:1010C0001EC0EDFF1DC0EDFF1CC0EDFF1BC0EDFFFE
:1010D0001AC0EDFF19C0EDFF18C0EDFF17C0EDFFFE
:1010E00016C0EDFF15C0EDFF14C0EFFF00D0110ECC
:1010F000E15C02E2E16AE552E16EE552E7CFD9FF39
:101100001200D9CFE6FFE1CFD9FFFE0EDBCFE6FF1D
:10111000FC0EDBCFE6FFFD0EDBCFE6FF3CEC0DF077
:10112000E552E552E5529D88E552E7CFD9FF12001E
:10113000D9CFE6FFE1CFD9FFE652DF6ADFCF14F067
:10114000030EE76E1418E8AE02D0E73402D0E75081
:10115000145C20E2D950FB0F146EFF0EDA20156EDE
:10116000DFCF16F0176A16BE176814501624E96E02
:1011700015501720EA6EEF50E66EF90EDBCFE6FF52
:10118000FA0EDBCFE6FF3CEC0DF0E552E552E552FE
:10119000DF2AD4D79D88E552E552E7CFD9FF120068
:1011A000D9CFE6FFE1CFD9FF040EE126800EDE6E37
:1011B000840EDE6E1E0EDE6EDD6ADD52DD52800EA6
:1011C000D56ED9CFE9FFDACFEAFFEECF14F0EECF3C
:1011D00015F0EECF16F0EFCF17F0100ED8901732B3
:1011E000163215321432E806F9E1145015101610B3
:1011F000171034E0D9CFE9FFDACFEAFFD890030E19
:10120000EB32020EEB32010EEB32EF32D9CFE9FFB7
:10121000DACFEAFFEECF14F0EECF15F0EECF16F0F6
:10122000EFCF17F0100ED890173216321532143255
:10123000E806F9E114501510161017100EE0D9CF7A
:10124000E9FFDACFEAFFD890030EEB32020EEB3261
:10125000010EEB32EF32D52AD9D701D0D586D9CFBE
:10126000E9FFDACFEAFFEECF14F0EECF15F0EECFC4
:1012700016F0EFCF17F0141E151E142A000E1522BB
:101280001622172214C0DFFF010E15C0DBFF020E6D
:1012900016C0DBFF030E17C0DBFFD9CFE9FFDACFA3
:1012A000EAFFEECF14F0EECF15F0EECF16F0EFCF51
:1012B00017F0080ED8901732163215321432E8069D
:1012C000F9E11450D76ED9CFE9FFDACFEAFFEECFBC
:1012D00014F0EECF15F0EECF16F0EFCF17F014505C
:1012E000D66EF294F28A040EE15C02E2E16AE55203
:1012F000E16EE552E7CFD9FF120093801200959876
:101300008388959A838A94969488949A928A1200F4
:10131000D9CFE6FFE1CFD9FF030EE126DE6ADD6A11
:10132000020EDB6ADBCF14F0100EE76E1418E8AE85
:1013300002D0E73402D0E750145C14E28296828631
:10134000D9CFE9FFDACFEAFF010ED890EE36ED36BD
:10135000E806FBE18250100B01E0010EDF12020EE5
:10136000DB2AE0D7DECF14F0DDCF15F014C0F3FF99
:1013700015C0F4FF030EE15C03E200D0E16AE55220
:10138000E16EE552E7CFD9FF1200829A82968286FB
:10139000828A82A8FED712008296829A1200D9CF42
:1013A000E6FFE1CFD9FF0C0EE126FADEEEDF186A88
:1013B000196AA00E1A6E400E1B6E18C0E6FF19C007
:1013C000E6FF1AC0E6FF1BC0E6FFA2DFE552E7CF4B
:1013D0001BF0E552E7CF1AF0E552E7CF19F0E552DE
:1013E000E7CF18F0F3CF20F0F4CF21F020C008F0C1
:1013F00021C009F0A8EC0AF007C01CF008C01DF0DD
:1014000009C01EF00AC01FF01CC00CF01DC00DF07A
:101410001EC00EF01FC00FF018C007F019C008F072
:101420001AC009F01BC00AF010EC0BF007C014F052
:1014300008C015F009C016F00AC017F00C6A0D6854
:101440007F0E0E6E470E0F6E14C007F015C008F029
:1014500016C009F017C00AF0BDEC0AF0080E07C06C
:10146000DBFF090E08C0DBFF0A0E09C0DBFF0B0E15
:101470000AC0DBFF186A196AA00E1A6E400E1B6EB6
:1014800018C0E6FF19C0E6FF1AC0E6FF1BC0E6FF62
:101490003FDFE552E7CF1BF0E552E7CF1AF0E55208
:1014A000E7CF19F0E552E7CF18F0F3CF20F0F4CFF3
:1014B00021F020C008F021C009F0A8EC0AF007C014
:1014C0001CF008C01DF009C01EF00AC01FF01CC0AF
:1014D0000CF01DC00DF01EC00EF01FC00FF018C0A4
:1014E00007F019C008F01AC009F01BC00AF010EC90
:1014F0000BF007C014F008C015F009C016F00AC0C0
:1015000017F00C6A0D687F0E0E6E470E0F6E14C03A
:1015100007F015C008F016C009F017C00AF0BDECBE
:101520000AF0080E07C0DBFF090E08C0DBFF0A0E39
:1015300009C0DBFF0B0E0AC0DBFF2EDF0C0EE15CE7
:1015400002E2E16AE552E16EE552E7CFD9FF12000F
:10155000019E08D0019E09AE05D0086C091EE86AFC
:101560000922018E09C003F008C002F0136A126A52
:101570008E0E046E056AB3EF0BF0016AEFEC0BF010
:1015800007EC0CF001B697EF0BF001A205D001BA01
:1015900097EF0BF09EEF0BF001BAAAEF0BF001A052
:1015A00005D001B897EF0BF0AAEF0BF001B89EEF52
:1015B0000BF0056A7F0E0A24046EE86A05220F50BC
:1015C000045EE86A055A1A0E106E0A6A126A136AF5
:1015D000026A036A0C50075E0D50085A0E50095AF1
:1015E000000E0A5A09E70C5007260D5008220E502B
:1015F0000922000E0A2201D0128AD8900736083636
:1016000009360A36D8901236133602360336102EB3
:10161000E1D7095008100710D8A4128AB3EF0BF0D5
:10162000016AEFEC0BF007EC0CF001B697EF0BF052
:1016300001A205D001B897EF0BF09EEF0BF001AAC5
:1016400005D001B097EF0BF09EEF0BF001B002D088
:1016500001A802D0AAEF0BF0056A0F500A24046E0D
:10166000E86A05227E0E045EE86A055A126A136A69
:10167000026A036A0E500902F4CF03F0F3CF02F0BE
:101680000D500902F3501326F4500222000E0322DB
:101690000E500802F3501326F4500222000E0322CB
:1016A0000C500902F3501226F4501322000E0222AD
:1016B00003220D500802F3501226F4501322000E9C
:1016C000022203220E500702F3501226F450132276
:1016D000000E022203220C500802F4501226000EC3
:1016E0001322022203220D500702F4501226000E8C
:1016F000132202220322B3EF0BF0006A0EAE83EF37
:101700000BF00E6C001E09AE88EF0BF0096C001E8A
:1017100077EC0EF009BE92EF0BF000AE000C096CF6
:10172000056C000C00BE8FEF0BF00188FF0C7F0EE4
:101730000A6EFF0E096E086E076E12007F0E01BE64
:10174000FF0E0A6E02D07F0E0A6E800E096E086AC6
:10175000076AF3D701AE04D0800E0A6E096AF7D784
:101760000A6A096AF4D70350021013101210F8E045
:1017700005BEF0D703BE0CD004500510EBE0D890A6
:1017800012361336023603360406D8A00506F2D701
:101790000550D4E10428D2E012AE11D07F0E12140D
:1017A00002E113A00CD0132AE86A0222032207E305
:1017B000D880033202321332042A0428BFE00450D6
:1017C000C9E013C007F002C008F00334096E04300A
:1017D0000A6E09320A9E01BE0A8E9DEF0BF0093691
:1017E0000A3602E30184017E06E101800A6A096A81
:1017F000086A076A12000A2803E0D880093212003A
:10180000D890093202E101821200018612000E36E0
:101810000F3602E3018C017E06E101880F6A0E6A31
:101820000D6A0C6A12000F2803E0D8800E321200F5
:0A183000D8900E32EAE1018A12009E
:06183A00D9CFE6FFE1CF6B
:10184000D9FFFD0EDBCFE9FFFE0EDBCFEAFFEE5244
:10185000EF6AFD0EDBCFE9FFFE0EDBCFEAFF000EE5
:10186000EF6EE552E7CFD9FF1200D9CFE6FFE1CF07
:10187000D9FFE652FD0EDBCFE9FFFE0EDBCFEAFF1C
:10188000020EE926000EEA22E9CF14F0EACF15F0A5
:10189000FD0EDBCFE9FFFE0EDBCFEAFFEFCF16F048
:1018A000176A16BE176814501624E96E15501720D3
:1018B000EA6EEFCFDFFFFD0EDBCFE9FFFE0EDBCFE1
:1018C000EAFFEF2AEF501F0BE66EFD0EDBCFE9FFBC
:1018D000FE0EDBCFEAFFE552E750EF6EDF5000D09F
:1018E000E552E552E7CFD9FF1200D9CFE6FFE1CFAD
:1018F000D9FFE652FD0EDBCFE9FFFE0EDBCFEAFF9C
:10190000EFCF14F0FD0EDBCFE9FFFE0EDBCFEAFFD9
:10191000EE52EF50E76E1418E8AE02D0143403D044
:10192000E750D880145413E3FD0EDBCFE9FFFE0E21
:10193000DBCFEAFFEE52EFCF14F0FD0EDBCFE9FF75
:10194000FE0EDBCFEAFFEF50145CDF6E35D0FD0EEC
:10195000DBCFE9FFFE0EDBCFEAFFEE52EFCF14F054
:10196000FD0EDBCFE9FFFE0EDBCFEAFFEF50E76EA7
:101970001418E8AE02D0E73402D0E750145C1CE241
:10198000200E146EFD0EDBCFE9FFFE0EDBCFEAFF6B
:10199000EFCF15F0FD0EDBCFE9FFFE0EDBCFEAFF48
:1019A000EE5215C009F0EFCF0EF07DEC0BF0EFBE5C
:1019B000056C0550145CDF6EDFCF14F0156A14BEA1
:1019C000156814C0F3FF15C0F4FF00D0E552E552CE
:1019D000E7CFD9FF1200D9CFE6FFE1CFD9FF200E24
:1019E000F36EF46A00D0E552E7CFD9FF1200D9CFE9
:1019F000E6FFE1CFD9FFFD0EDBCFE9FFFE0EDBCF27
:101A0000EAFFEFCF14F0FD0EDBCFE9FFFE0EDBCFD8
:101A1000EAFFEE52EF50145C05E1010EF36EF46A3A
:101A200004D003D0F36AF46A00D0E552E7CFD9FFBF
:101A30001200D9CFE6FFE1CFD9FFFD0EDBCFE9FFE2
:101A4000FE0EDBCFEAFFEE52EF281F0B146EFD0EE9
:101A5000DBCFE9FFFE0EDBCFEAFFEF50145C05E1C0
:101A6000010EF36EF46A04D003D0F36AF46A00D076
:101A7000E552E7CFD9FF1200D9CFE6FFE1CFD9FF7A
:101A8000FD0EDBCFE9FFFE0EDBCFEAFF020EE926FB
:101A9000000EEA22E9CF14F0EACF15F0FD0EDBCFFD
:101AA000E9FFFE0EDBCFEAFFEE52EFCF16F0176A2A
:101AB00016BE176814501624E96E15501720EA6EEA
:101AC000FC0EDBCFEFFFFD0EDBCFE9FFFE0EDBCF21
:101AD000EAFFEE52EF2AEF501F0BE66EFD0EDBCF52
:101AE000E9FFFE0EDBCFEAFFEE52E552E750EF6E64
:081AF000E552E7CFD9FF120017
:081AF800D9CFE6FFE1CFD9FFD1
:101B0000040EE126FD0EDBCF14F0FE0EDBCF15F048
:101B1000000E1416FF0E1516020E14C0DBFF030E86
:101B200015C0DBFF020EDBCF14F0030EDBCF15F088
:101B300015C014F0156A020E14C0DBFF030E15C0A9
:101B4000DBFF020EDB50DF6EFF0EE76EFD0EDBCF1C
:101B500014F0FE0EDBCF15F0E7501416156A020ED6
:101B600014C0DBFF030E15C0DBFF020EDB50E76E77
:101B7000010EE7CFDBFFD9CF14F0DACF15F014C098
:101B8000F3FF15C0F4FF040EE15C03E200D0E16A4C
:101B9000E552E16EE552E7CFD9FF1200D9CFE6FF5B
:101BA000E1CFD9FF020EE126FE0EDBCF14F0156A5D
:101BB00014BE156814C0DEFF15C0DDFFDECF14F0C3
:101BC000DDCF15F014C015F0146A14C0DEFF15C087
:101BD000DDFFFD0EDBCF14F0156A14BE1568D9CFFA
:101BE000E9FFDACFEAFF1450EE121550ED12DECF06
:101BF00014F0DDCF15F014C0F3FF15C0F4FF020E92
:101C0000E15C03E200D0E16AE552E16EE552E7CF24
:041C1000D9FF1200E6
:0C1C1400060EF66E000EF76E000EF86E65
:101C200000010900F550E96F0900F550EA6F03E182
:101C3000E96701D03DD00900F550E46F0900F55087
:101C4000E56F0900F550E66F09000900F550E96EEF
:101C50000900F550EA6E090009000900F550E76F28
:101C60000900F550E86F09000900F6CFEBF0F7CF57
:101C7000ECF0F8CFEDF0E4C0F6FFE5C0F7FFE6C00A
:101C8000F8FF0001E75302E1E85307E00900F550CF
:101C9000EE6EE707F8E2E807F9D7EBC0F6FFECC015
:101CA000F7FFEDC0F8FF0001E907000EEA5BBFD7C0
:021CB000120020
:0E1CB200000EF36E00EE00F0060E01D81200D8
:101CC000EA6002D0EE6AFCD7F350E9601200EE6AD7
:021CD000FCD73F
:0E1CD20015EE00F025EE00F0F86A019C0AEC19
:0E1CE0000EF085EC0EF04BEC04F0FBD712007A
:021CEE00056A85
:101CF000080EE76ED890093605360E50055C02E3F3
:0A1D0000056E092AE72EF7D712003E
:021D0A001200C5
:020000040030CA
:0100010002FC
:010003001EDE
:00000001FF
