:020000040000FA
:0600000043EF07F01200BF
:020006000000F8
:0600080004EF05F01200F8
:02000E00100ED2
:10001000AF6E948C948EAB8EAC98AC8AAC84B88660
:10002000AB88D08E9F8A9F88F28E9D8A1200D9CF8E
:10003000E6FFE1CFD9FF020EE126FD0EDBCFE9FF9F
:10004000FE0EDBCFEAFFEF0EDBCFEFFFFD0EDBCFC7
:10005000E9FFFE0EDBCFEAFFEE52F00EDBCFEFFF43
:10006000FD0EDBCFE9FFFE0EDBCFEAFF020EE92635
:10007000000EEA22F10EDBCFEFFFF30EDBCFE6FF3F
:10008000F20EDBCFE6FFA8EC06F0E552E552F3CF27
:1000900000F0F4CF01F0FD0EDBCFE9FFFE0EDBCF69
:1000A000EAFF030EE926000EEA2200C0EEFF01C0BF
:1000B000EDFFF50EDBCFE6FFF40EDBCFE6FFA8EC9D
:1000C00006F0E552E552F3CF00F0F4CF01F0FD0E5B
:1000D000DBCFE9FFFE0EDBCFEAFF050EE926000EBF
:1000E000EA2200C0EEFF01C0EDFFF70EDBCFE6FF16
:1000F000F60EDBCFE6FFA8EC06F0E552E552F3CFB3
:1001000000F0F4CF01F0FD0EDBCFE9FFFE0EDBCFF8
:10011000EAFF070EE926000EEA2200C0EEFF01C04A
:10012000EDFFF90EDBCFE6FFF80EDBCFE6FFA8EC24
:1001300006F0E552E552F3CF00F0F4CF01F0FD0EEA
:10014000DBCFE9FFFE0EDBCFEAFF090EE926000E4A
:10015000EA2200C0EEFF01C0EDFFFB0EDBCFE6FFA1
:10016000FA0EDBCFE6FFA8EC06F0E552E552F3CF3E
:1001700000F0F4CF01F0FD0EDBCFE9FFFE0EDBCF88
:10018000EAFF0B0EE926000EEA2200C0EEFF01C0D6
:10019000EDFF020EE15C02E2E16AE552E16EE5523A
:1001A000E7CFD9FF1200D9CFE6FFE1CFD9FF020E8A
:1001B000E126FD0EDBCFE9FFFE0EDBCFEAFF010EED
:1001C000EFCFDBFFDF6EDFCF00F00D0EE76E001824
:1001D000E8AE02D0E73402D0E750005C17E2DFCF90
:1001E00000F0016A00BE0168FD0EDB500024E96EDC
:1001F000FE0EDB500120EA6E010EDBCFE7FFEF5071
:10020000E71A010EE7CFDBFFDF2ADDD7010EDB5057
:10021000006E020EE15C03E200D0E16AE552E16E9D
:100220000050E552E7CFD9FF1200D9CFE6FFE1CF6A
:10023000D9FFFE0EDB5047080CE0FE0EDB504908EC
:1002400008E0FE0EDB50620804E0FE0EDB505508AD
:1002500005E1010EF36EF46A04D003D0F36AF46A88
:1002600000D0E552E7CFD9FF1200D9CFE6FFE1CFAA
:10027000D9FF040EE126160EF36EE20EF3CFDBFF7C
:10028000550EF36EE30EF3CFDBFFF20EDB50E76E9D
:10029000E40EE7CFDBFFF30EDB50E76EE50EE7CFB2
:1002A000DBFFF40EDB50E76EE60EE7CFDBFFF50E6B
:1002B000DBCFE6FFF60EDBCFE6FF6DEC06F0E55296
:1002C000E552020EF3CFDBFF030EF4CFDBFF020E8D
:1002D000DBCFE9FF030EDBCFEAFFE70EEFCFDBFF5B
:1002E000010EE76E020EDBCFE9FF030EDBCFEAFF64
:1002F000E750E926000EEA22E80EEFCFDBFFF50E0D
:10030000DBCFE6FFF60EDBCFE6FF6DEC06F0E55245
:10031000E552020EF3CFDBFF030EF4CFDBFF020E3C
:10032000DBCFE9FF030EDBCFEAFFE90EEFCFDBFF08
:10033000010EE76E020EDBCFE9FF030EDBCFEAFF13
:10034000E750E926000EEA22EA0EEFCFDBFFF70EB8
:10035000DBCFE6FFF80EDBCFE6FF6DEC06F0E552F3
:10036000E552020EF3CFDBFF030EF4CFDBFF020EEC
:10037000DBCFE9FF030EDBCFEAFFEB0EEFCFDBFFB6
:10038000010EE76E020EDBCFE9FF030EDBCFEAFFC3
:10039000E750E926000EEA22EC0EEFCFDBFFF90E64
:1003A000DBCFE6FFFA0EDBCFE6FF6DEC06F0E552A1
:1003B000E552020EF3CFDBFF030EF4CFDBFF020E9C
:1003C000DBCFE9FF030EDBCFEAFFED0EEFCFDBFF64
:1003D000010EE76E020EDBCFE9FF030EDBCFEAFF73
:1003E000E750E926000EEA22EE0EEFCFDBFFFB0E10
:1003F000DBCFE6FFFC0EDBCFE6FF6DEC06F0E5524F
:10040000E552020EF3CFDBFF030EF4CFDBFF020E4B
:10041000DBCFE9FF030EDBCFEAFFEF0EEFCFDBFF11
:10042000010EE76E020EDBCFE9FF030EDBCFEAFF22
:10043000E750E926000EEA22F00EEFCFDBFF040EB4
:10044000E15C02E2E16AE552E16EE552E7CFD9FFF5
:100450001200D9CFE6FFE1CFD9FF120EE126FB0E45
:10046000DBCFE9FFFC0EDBCFEAFFE9CF00F0EACFFC
:1004700001F0FB0EDBCFE9FFFC0EDBCFEAFF100E35
:10048000E926000EEA22EF50EF2A0F0B026E036AF4
:1004900002BE036800500224E96E01500320EA6E98
:1004A000EFCFDFFFFB0EDBCFE9FFFC0EDBCFEAFF78
:1004B000E9CF00F0EACF01F0FB0EDBCFE9FFFC0E45
:1004C000DBCFEAFF100EE926000EEA22EF50EF2AFA
:1004D0000F0B026E036A02BE036800500224E96E2D
:1004E00001500320EA6E010EEFCFDBFF100EDB6A36
:1004F000DBCF00F00D0EE76E0018E8AE02D0E73457
:1005000002D0E750005C3AE2FB0EDBCFE9FFFC0EC5
:10051000DBCFEAFFE9CF04F0EACF05F0FB0EDBCF3B
:10052000E9FFFC0EDBCFEAFF100EE926000EEA22FF
:10053000EF50EF2A0F0B066E076A06BE07680450DD
:100540000624E96E05500720EA6EEF50E66ED9509A
:10055000020F006EDACF01F0100EDBCF02F0036A5B
:1005600002BE036800500224E96E01500320EA6EC7
:10057000E552E750EF6E100EDB2ABAD7FB0EDBCF49
:10058000E9FFFC0EDBCFEAFFE9CF00F0EACF01F094
:10059000FB0EDBCFE9FFFC0EDBCFEAFF100EE926F6
:1005A000000EEA22EF50EF2A0F0B026E036A02BE22
:1005B000036800500224E96E01500320EA6E0F0E1A
:1005C000EFCFDBFFD950020FE66E000EDA20E66EA9
:1005D000EADDE552E552E76E110EE7CFDBFF010ED3
:1005E000DBCFE6FF22DEE552F3CF00F0F4CF01F0DF
:1005F0000050011044E0160EDF5C41E1110EDB50AB
:10060000F36E0F0EDB50F35C3AE1FD0EDBCFE9FF3A
:10061000FE0EDBCFEAFFDFCFEEFF010EDBCFEEFFFA
:10062000020EDBCFEEFF030EDBCFEEFF040EDBCFBF
:10063000EEFF050EDBCFEEFF060EDBCFEEFF070E63
:10064000DBCFEEFF080EDBCFEEFF090EDBCFEEFFB8
:100650000A0EDBCFEEFF0B0EDBCFEEFF0C0EDBCF77
:10066000EEFF0D0EDBCFEEFF0E0EDBCFEEFF0F0E1B
:10067000DBCFEEFF010EF36EF46A04D003D0F36A11
:10068000F46A00D0120EE15C02E2E16AE552E16E2A
:10069000E552E7CFD9FF1200D9CFE6FFE1CFD9FF6E
:1006A000E652ED0EDBCFE9FFEE0EDBCFEAFFE9CF3E
:1006B00000F0EACF01F0ED0EDBCFE9FFEE0EDBCF6D
:1006C000EAFF110EE926000EEA22EF50EF2A0F0B87
:1006D000026E036A02BE036800500224E96E0150F4
:1006E0000320EA6EEF0EDBCFEFFFED0EDBCFE9FF6D
:1006F000EE0EDBCFEAFFE9CF00F0EACF01F0ED0E1E
:10070000DBCFE9FFEE0EDBCFEAFF110EE926000E8C
:10071000EA22EF50EF2A0F0B026E036A02BE036853
:1007200000500224E96E01500320EA6EF00EDBCF88
:10073000EFFFDF6ADFCF00F00D0EE76E0018E8AEC6
:1007400002D0E73402D0E750005C39E2D950F10F13
:10075000046EFF0EDA20056EDFCF06F0076A06BED4
:10076000076804500624E96E05500720EA6EEF5032
:10077000E66EED0EDBCFE9FFEE0EDBCFEAFFE9CF51
:1007800000F0EACF01F0ED0EDBCFE9FFEE0EDBCF9C
:10079000EAFF110EE926000EEA22EF50EF2A0F0BB6
:1007A000026E036A02BE036800500224E96E015023
:1007B0000320EA6EE552E750EF6EDF2ABBD7D9502F
:1007C000F10FE66EFF0EDA20E66EEDDCE552E55243
:1007D000E66EED0EDBCFE9FFEE0EDBCFEAFFE9CFF1
:1007E00000F0EACF01F0ED0EDBCFE9FFEE0EDBCF3C
:1007F000EAFF110EE926000EEA22EF50EF2A0F0B56
:10080000026E036A02BE036800500224E96E0150C2
:100810000320EA6EE552E750EF6E9D88E552E552FF
:10082000E7CFD9FF1200D9CFE6FFE1CFD9FFFC0E09
:10083000DBCFE9FFFD0EDBCFEAFFE9CF00F0EACF27
:1008400001F0FC0EDBCFE9FFFD0EDBCFEAFF110E5E
:10085000E926000EEA22EF50EF2A0F0B026E036A20
:1008600002BE036800500224E96E01500320EA6EC4
:10087000FE0EDBCFEFFF9D88E552E7CFD9FF1200D8
:10088000D9CFE6FFE1CFD9FF100EE126F00EDB5005
:10089000550833E1D950EF0FE96EFF0EDA20EA6E0A
:1008A000EECFE6FFEECFE6FFEECFE6FFEECFE6FFC0
:1008B000EECFE6FFEECFE6FFEECFE6FFEECFE6FFB0
:1008C000EECFE6FFEECFE6FFEECFE6FFEECFE6FFA0
:1008D000EECFE6FFEECFE6FFEECFE6FFEECFE6FF90
:1008E000D950ED0FE66EFF0EDA20E66E17EC00F041
:1008F000006E120EE15E00507DD0F00EDB50490814
:1009000001E078D0D9CFE9FFDACFEAFFEECFE6FFFA
:10091000EECFE6FFEECFE6FFEECFE6FFEECFE6FF4F
:10092000EECFE6FFEECFE6FFEECFE6FFEECFE6FF3F
:10093000EECFE6FFEECFE6FFEECFE6FFEECFE6FF2F
:10094000EECFE6FFEECFE6FFEECFE6FFED0EDBCF1C
:10095000E9FFEE0EDBCFEAFFEECFE6FFEECFE6FFDC
:10096000EECFE6FFEECFE6FFEECFE6FFEECFE6FFFF
:10097000EECFE6FFEECFE6FFEECFE6FFEECFE6FFEF
:10098000EECFE6FFEECFE6FFEECFE6FF6EDC006EC9
:100990001D0EE15E0050D950EB0FE66EFF0EDA201F
:1009A000E66ED9CFE9FFDACFEAFFEECFE6FFEECF72
:1009B000E6FFEECFE6FFEECFE6FFEECFE6FFEECFAF
:1009C000E6FFEECFE6FFEECFE6FFEECFE6FFEECF9F
:1009D000E6FFEECFE6FFEECFE6FFEECFE6FFEECF8F
:1009E000E6FFEECFE6FFEECFE6FF56DE006E120E1C
:1009F000E15E0050100EE15C02E2E16AE552E16E58
:080A0000E552E7CFD9FF120017
:080A0800DACFE4FFE2CFDAFFD0
:100A1000E9CFE4FFEACFE4FFE6529EAA0ED0000140
:100A2000A351A32B0F0BE96EEA6AE9BEEA68920EA6
:100A3000E926000EEA22AECFEFFF9EA814D00001F7
:100A4000910590190F0B02E19D980DD09051902BBC
:100A50000F0BE96EEA6AE9BEEA68800EE926000E2D
:100A6000EA22EF50AD6EE552E5CFEAFFE5CFE9FFB0
:100A7000E5CFDAFF110007EC00F00001A36BA3C083
:100A8000A2F0916B91C090F0A351A32B0F0BE96ED4
:100A9000EA6AE9BEEA68920EE926000EEA22160E1C
:100AA000EF6EA351A32B0F0BE96EEA6AE9BEEA6869
:100AB000920EE926000EEA22490EEF6EA351A32BF7
:100AC0000F0BE96EEA6AE9BEEA68920EE926000EAB
:100AD000EA22550EEF6EA351A32B0F0BE96EEA6AC3
:100AE000E9BEEA68920EE926000EEA221F0EEF6EBA
:100AF000A351A32B0F0BE96EEA6AE9BEEA68920ED6
:100B0000E926000EEA22550EEF6EA351A32B0F0B20
:100B1000E96EEA6AE9BEEA68920EE926000EEA2268
:100B20001F0EEF6EA351A32B0F0BE96EEA6AE9BE0D
:100B3000EA68920EE926000EEA22550EEF6EA351E6
:100B4000A32B0F0BE96EEA6AE9BEEA68920EE9266A
:100B5000000EEA221F0EEF6EA351A32B0F0BE96EBE
:100B6000EA6AE9BEEA68920EE926000EEA22550E0C
:100B7000EF6EA351A32B0F0BE96EEA6AE9BEEA6898
:100B8000920EE926000EEA221F0EEF6EA351A32B50
:100B90000F0BE96EEA6AE9BEEA68920EE926000EDA
:100BA000EA22550EEF6EA351A32B0F0BE96EEA6AF2
:100BB000E9BEEA68920EE926000EEA221F0EEF6EE9
:100BC000A351A32B0F0BE96EEA6AE9BEEA68920E05
:100BD000E926000EEA22550EEF6EA351A32B0F0B50
:100BE000E96EEA6AE9BEEA68920EE926000EEA2298
:100BF0001F0EEF6EA351A32B0F0BE96EEA6AE9BE3D
:100C0000EA68920EE926000EEA22550EEF6EA35115
:100C1000A32B0F0BE96EEA6AE9BEEA68920EE92699
:100C2000000EEA22550EEF6E010EC16FC26B00017D
:100C3000010EC11901E1C2514EE1920EE66E000EA5
:100C4000E66EA40EE66E000EE66E29EC02F0E552AA
:100C5000E552E552E552F3CF00F0F4CF01F0005039
:100C600001102FE0800EE66E000EE66EB40EE66E0A
:100C7000000EE66EA4C0E6FFA5C0E6FFA6C0E6FF34
:100C8000A7C0E6FFA8C0E6FFA9C0E6FFAAC0E6FF2E
:100C9000ABC0E6FFACC0E6FFADC0E6FFAEC0E6FF0E
:100CA000AFC0E6FFB0C0E6FFB1C0E6FFB2C0E6FFEE
:100CB000B3C0E6FF40EC04F0006E140EE15E00509D
:100CC0000AD0800EE66E000EE66EE66A13EC04F0C3
:0A0CD000E552E552E552ABD71200E1
:060CDA00D9CFE6FFE1CFD7
:100CE000D9FF020EE126D950FD0FE96EFF0EDA2082
:100CF000EA6EEE6AED52FD0EDBCF00F0FE0EDBCFAA
:100D000001F001C000F0016AFD0EDB50DF6ED9502A
:100D1000FD0FE96EFF0EDA20EA6EEE52ED6AFD0E6F
:100D2000DB50E76E010EE7CFDBFFD9CF00F0DACF63
:100D300001F000C0F3FF01C0F4FF020EE15C03E22A
:100D400000D0E16AE552E16EE552E7CFD9FF12002B
:100D5000D9CFE6FFE1CFD9FF020EE126FE0EDBCFB1
:100D600000F0016A00BE016800C0DEFF01C0DDFFC7
:100D7000DECF00F0DDCF01F000C001F0006A00C05E
:100D8000DEFF01C0DDFFFD0EDBCF00F0016A00BE1B
:100D90000168D9CFE9FFDACFEAFF0050EE12015027
:100DA000ED12DECF00F0DDCF01F000C0F3FF01C097
:100DB000F4FF020EE15C03E200D0E16AE552E16E6D
:080DC000E552E7CFD9FF120054
:080DC800060EF66E000EF76E38
:100DD000000EF86E00010900F550C96F0900F550CA
:100DE000CA6F03E1C96701D03DD00900F550C46F57
:100DF0000900F550C56F0900F550C66F09000900DC
:100E0000F550E96E0900F550EA6E09000900090085
:100E1000F550C76F0900F550C86F09000900F6CFFB
:100E2000CBF0F7CFCCF0F8CFCDF0C4C0F6FFC5C003
:100E3000F7FFC6C0F8FF0001C75302E1C85307E03F
:100E40000900F550EE6EC707F8E2C807F9D7CBC026
:100E5000F6FFCCC0F7FFCDC0F8FF0001C907000EB8
:060E6000CA5BBFD71200BF
:0A0E6600000EF36E00EE00F0060E21
:100E700001D81200EA6002D0EE6AFCD7F350E960B4
:060E80001200EE6AFCD72F
:0A0E860015EE00F025EE00F0F86A0A
:100E9000099CE4EC06F051EC07F03BEC05F0FBD7C5
:020EA00012003E
:020EA20012003C
:020EA40012003A
:020000040030CA
:0100010002FC
:010003001EDE
:00000001FF
